:100000000C94A3000C94CB000C94CB000C94CB006C
:100010000C94CB000C94CB000C94CB000C94CB0034
:100020000C94CB000C94CB000C94CB000C94CB0024
:100030000C94CB000C94CB000C94CB000C94CB0014
:100040000C94E6030C94CB000C94B4030C948E0334
:100050000C94CB000C94CB000C94CB000C94CB00F4
:100060000C94CB000C94CB0007634236B79BD8A707
:100070001A39685618AEBAAB558C1D3CB7CC5763CD
:10008000BD6DEDFD753EF6177231BF000000803F7B
:1000900008000000BE922449123EABAAAA2ABECD97
:1000A000CCCC4C3E00000080BEABAAAAAA3E000009
:1000B0000000BF000000803F000000000008417801
:1000C000D3BB4387D1133D190E3CC3BD4282AD2B38
:1000D0003E68EC8276BED98FE1A93E4C80EFFFBE30
:1000E00001C4FF7F3F000000000000000000250069
:1000F00028002B000000000023002600290000003B
:1001000000080002010000030407000000000000D6
:10011000000000000000240027002A00010204085B
:100120001020408001020408102001020408102061
:10013000040404040404040402020202020203038D
:1001400003030303300411241FBECFEFD8E0DEBF4A
:10015000CDBF11E0A0E0B1E0E8E6F9E102C0059012
:100160000D92AE37B107D9F722E0AEE7B1E001C09A
:100170001D92A533B207E1F710E0C3EAD0E004C056
:100180002197FE010E94850CC23AD107C9F70E944F
:1001900078040C94B20C0C940000FC01538D448D37
:1001A000252F30E0842F90E0821B930B541710F022
:1001B000CF96089501970895FC01918D828D98172F
:1001C00061F0A28DAE0FBF2FB11D5D968C91928D07
:1001D0009F5F9F73928F90E008958FEF9FEF089538
:1001E000FC01918D828D981731F0828DE80FF11D01
:1001F000858D90E008958FEF9FEF0895FC01918D1C
:10020000228D892F90E0805C9F4F821B91098F7314
:1002100099270895FC01A48DA80FB92FB11DA35AE9
:10022000BF4F2C91848D90E001968F739927848F16
:10023000A689B7892C93A089B1898C918370806439
:100240008C93938D848D981306C00288F389E02DDA
:1002500080818F7D80830895EF92FF920F931F938B
:10026000CF93DF93EC0181E0888F9B8D8C8D981369
:100270001AC0E889F989808185FF15C09FB7F89475
:10028000EE89FF896083E889F989808183708064C1
:1002900080839FBF81E090E0DF91CF911F910F910C
:1002A000FF90EF900895F62E0B8D10E00F5F1F4F1B
:1002B0000F731127E02E8C8D8E110CC00FB607FC2A
:1002C000FACFE889F989808185FFF5CFCE010E94B8
:1002D0000A01F1CFEB8DEC0FFD2FF11DE35AFF4F1B
:1002E000F0829FB7F8940B8FEA89FB898081806246
:1002F000CFCFCF93DF93EC01888D8823B9F0AA8903
:10030000BB89E889F9898C9185FD03C0808186FDD0
:100310000DC00FB607FCF7CF8C9185FFF2CF80811F
:1003200085FFEDCFCE010E940A01E9CFDF91CF9189
:10033000089588E891E00E94FE0021E0892B09F4ED
:1003400020E0822F089580E090E0892B29F00E9420
:10035000990181110C9400000895AF92BF92CF9241
:10036000DF92EF92FF920F931F93CF93DF936C0175
:100370007B018B01040F151FEB015E01AE18BF0856
:10038000C017D10759F06991D601ED91FC91019008
:10039000F081E02DC6010995892B79F7C501DF9120
:1003A000CF911F910F91FF90EF90DF90CF90BF9072
:1003B000AF900895833081F028F4813099F0823035
:1003C000A9F008958730A9F08830C9F08430B1F4DD
:1003D000809180008F7D03C0809180008F77809313
:1003E0008000089584B58F7784BD089584B58F7D8E
:1003F000FBCF8091B0008F778093B00008958091FB
:10040000B0008F7DF9CFCF93DF93282F30E0F90133
:10041000E250FF4F8491F901E45EFE4FD491F9015F
:10042000E05DFE4FC491CC23A1F081110E94DA015E
:10043000EC2FF0E0EE0FFF1FEC50FF4FA591B491B1
:10044000EC91ED2381E090E009F480E0DF91CF9121
:10045000089580E090E0FACF1F93CF93DF93282F89
:1004600030E0F901E250FF4F8491F901E45EFE4F64
:10047000D491F901E05DFE4FC491CC23A9F0162F71
:1004800081110E94DA01EC2FF0E0EE0FFF1FE65120
:10049000FF4FA591B4918FB7F894EC91111108C05A
:1004A000D095DE23DC938FBFDF91CF911F9108950C
:1004B000DE2BF8CFCF93DF9390E0FC01E45EFE4F9C
:1004C0002491805D9E4FFC0184918823D1F090E0BF
:1004D000880F991FFC01EE5EFE4FA591B491FC01BF
:1004E000E651FF4FC591D49161110EC09FB7F894AA
:1004F0008C91E22FE0958E238C932881E223E88370
:100500009FBFDF91CF9108958FB7F894EC91E22BC4
:10051000EC938FBFF6CF3FB7F89480917F01909115
:100520008001A0918101B091820126B5A89B05C0F0
:100530002F3F19F00196A11DB11D3FBFBA2FA92F62
:10054000982F8827BC01CD01620F711D811D911D5F
:1005500046E0660F771F881F991F4A95D1F70895C7
:100560008F929F92AF92BF92CF92DF92EF92FF92C3
:100570000E948B024B015C0184E6C82ED12CE12C39
:10058000F12C0E948B02681979098A099B09683E3F
:10059000734081059105A8F321E0C21AD108E10852
:1005A000F10888EE880E83E0981EA11CB11CC114CE
:1005B000D104E104F10429F7FF90EF90DF90CF9090
:1005C000BF90AF909F908F9008958EBD00000DB4A6
:1005D00007FEFDCF8EB50895EF92FF920F931F9304
:1005E000CF93DF93C82F162FE72E042F60E0809162
:1005F00027020E942C028C2F80680E94E502F12EB7
:10060000C12FDE2D89910E94E5028C2F8F19801752
:10061000C8F361E080912702DF91CF911F910F9184
:10062000FF90EF900C942C02CF93DF931F92CDB7E5
:10063000DEB7698341E0BE016F5F7F4F0E94EC022D
:100640000F90DF91CF91089562E088E090E00E94E2
:10065000140360E088E090E00C941403FF920F9381
:100660001F93CF93DF93C82FF62E172F042F60E030
:10067000809127020E942C028C2F0E94E502CF2D30
:10068000D12F0C0F1D2F111DC017D10729F08FEF8F
:100690000E94E5028993F8CF61E080912702DF9103
:1006A000CF911F910F91FF900C942C02CF93DF9369
:1006B0001F92CDB7DEB72FEF298341E0BE016F5FF8
:1006C0007F4F0E942E0389810F90DF91CF91089573
:1006D0000E94240363E085E090E00E94140360E040
:1006E00086E090E00E94140383E090E00E945603AD
:1006F00084E090E00E94560365E087E090E00C946F
:100700001403FC0101900020E9F73197AF01481B69
:10071000590BBC0188E891E00C94AD011F920F9237
:100720000FB60F9211242F933F934F935F936F93C4
:100730007F938F939F93AF93BF93EF93FF9388E83B
:1007400091E00E940A01FF91EF91BF91AF919F91BB
:100750008F917F916F915F914F913F912F910F906A
:100760000FBE0F901F9018951F920F920FB60F9209
:1007700011242F938F939F93EF93FF93E091980110
:10078000F09199018081E0919E01F0919F0182FD9D
:100790001BC090818091A1018F5F8F732091A20176
:1007A000821741F0E091A101F0E0E857FE4F958FEC
:1007B0008093A101FF91EF919F918F912F910F90C5
:1007C0000FBE0F901F9018958081F4CF1F920F924B
:1007D0000FB60F9211242F933F938F939F93AF9354
:1007E000BF938091840190918501A0918601B09181
:1007F000870130917E0120E3230F2D3758F5409675
:10080000A11DB11D20937E018093840190938501E9
:10081000A0938601B093870180917F019091800120
:10082000A0918101B09182010196A11DB11D80931B
:100830007F0190938001A0938101B0938201BF91C9
:10084000AF919F918F913F912F910F900FBE0F907D
:100850001F90189523EB230F4196A11DB11DD2CFF8
:10086000E8E8F1E01382128288EE93E0A0E0B0E0C5
:1008700084839583A683B78384E391E09183808307
:1008800085EC90E09587848784EC90E09787868755
:1008900080EC90E0918B808B81EC90E0938B828B4D
:1008A00082EC90E0958B848B86EC90E0978B868B26
:1008B000118E128E138E148EE5E2F2E087E08083B3
:1008C00086E081838AE0828381EB838381E0848375
:1008D000158216821782108611861286138684E688
:1008E00090E0958784878DEA9EED978786870895A7
:1008F000CF93DF93CDB7DEB7C754D1090FB6F894C5
:10090000DEBF0FBECDBF789484B5826084BD84B550
:10091000816084BD85B5826085BD85B5816085BDFA
:1009200080916E00816080936E00109281008091B2
:10093000810082608093810080918000816080933B
:1009400080008091B10084608093B1008091B000FC
:1009500081608093B00080917A008B7F80937A00D1
:1009600080917A00826080937A0080917A00816021
:1009700080937A0080917A00806880937A00109248
:10098000C10061E089E00E945A0260E089E00E94B3
:100990002C0280912602882319F060E00E945A02FE
:1009A00061E0809125020E945A0261E08091270255
:1009B0000E945A021FB7F89480918301811127C0C9
:1009C000EAE3F1E08491E6E2F1E09491E82FF0E0CF
:1009D000EE0FFF1FEE5EFE4FA591B491EC91E9235F
:1009E00021F461E08AE00E942C0261E08AE00E942A
:1009F0005A028CB580618CBD8CB580648CBD61E081
:100A00008DE00E945A0261E08BE00E945A028091C0
:100A100083018F5F809383011FBF8CB58F7D8CBD59
:100A20008CB58C7F81608CBD8DB58E7F8DBD8CB576
:100A3000837F8CBD86E490E09093320280933102F4
:100A400083E223968FAF23978CE022968FAF229775
:100A500080EF24968FAF249743E0BE016F5B7F4FFA
:100A600080E790E00E94EC0281E125968FAF259708
:100A70008CEE26968FAF269742E0BE016C5B7F4FCF
:100A80008EE690E00E94EC02E0E1F1E090E080E090
:100A90002081318124373E4008F49BC1880F991F83
:100AA000880F991FFC01E05FFE4F1281612F8CE1DE
:100AB00090E00E941403612F661F6627661F70E096
:100AC000660F771F6F5F7F4F072E000C880B990B07
:100AD0000E94A00820E030E04AEF53E40E9472092F
:100AE0006B017C01612F70E054E0759567955A9514
:100AF000E1F76770062F10E0B80163507109072E07
:100B0000000C880B990B0E94A0089B01AC0160E0CF
:100B100070E080E090E40E94DF0920E030E04CE8E3
:100B200052E40E9472099B01AC01C701B6010E9408
:100B3000F6074B015C0120E030E0A9010E946D093D
:100B400020E030E040E05FE387FD4BC1C501B40128
:100B50000E9473070E9468084B01B8016C5E7F4FCA
:100B6000072E000C880B990B0E94A0089B01AC017A
:100B700060E070E080E090E40E94DF0920E030E077
:100B80004CE852E40E947209A70196010E94F60700
:100B90000E94DF070E946F08662E572E782EB40140
:100BA00090E080E026E930E040E050E00E947A0BDF
:100BB00059016A017B018C012AEB3FEF45E450E0CB
:100BC00060E070E080E090E00E94A70BC90102960F
:100BD0008115E8E09E0710F08FEF97E08982B4015D
:100BE00033E0769567953A95E1F7607EF72DFF70D3
:100BF0006F2B6A835B826C829D838E8346E0BE018D
:100C00006F5F7F4F80E290E00E94EC0281EB809367
:100C1000280281E08093290210922A0210922B026E
:100C200010922C0210922D0210922E0210922F027E
:100C300083E589831A821B8243E0BE016F5F7F4F89
:100C400085E790E00E94EC020E94680380912602F2
:100C50008111CCC083E090E00E945603182F84E0FD
:100C600090E00E94560311FFDFC063E087E090E050
:100C70000E9414038DB79EB728969FAF8EAF28971A
:100C800061E088E090E00E94140360E088E090E07A
:100C90000E94140360E18EE390E00E94140340E19F
:100CA00060E071E08FE790E00E94EC0264E085E094
:100CB00090E00E94140360E086E090E00E9414033C
:100CC00083E090E00E94560384E090E00E94560387
:100CD00069E087E090E00E9414038FB7F894409198
:100CE00084015091850160918601709187018FBFC9
:100CF0001A012B01612C712C43018FB7F89440919C
:100D000084015091850160918601709187018FBFA8
:100D10009A01AB0160E070E080E090E05101620177
:100D2000730184010E947C0C273C3105410551056B
:100D3000610571058105910511F008F0B7C080913A
:100D400026028111ADC083E090E00E945603182F67
:100D500084E090E00E94560312FFCFCF63E087E06B
:100D600090E00E9414038BE490E00E945603182F39
:100D7000482FBE016F5F7F4F8FE790E00E942E03E8
:100D80000E942403412F50E08DB79EB7841B950B22
:100D90000FB6F8949EBF0FBE8DBF0196BE016F5F68
:100DA0007F4F0E94A30C61E089E00E942C020E9408
:100DB000B00260E089E00E942C020E94680328963D
:100DC000EEADFFAD28970FB6F894FEBF0FBEEDBF96
:100DD00012C0019634968830910509F059CE1FEF64
:100DE00065CEC501B4010E947207B4CE0E94030211
:100DF000892B09F42FCF61E089E00E942C020E9428
:100E0000B00260E089E00E942C020E94B00280E003
:100E100090E0892B09F41ACF0E949901882309F4E4
:100E200015CF0E94000012CF10FFE5CF61E087E0F0
:100E300090E00E94140382E491E00E948103412F1C
:100E400050E070E060E019A2CE0181968A019B011A
:100E50000F7011272227332724E076956795579541
:100E600047952A95D1F70A30CCF4005DFC01029336
:100E7000CF01411551056105710541F7EF2B11F0C7
:100E80000E94810383E691E00E9481030E94240373
:100E900065E087E090E00E941403ADCF095CE6CFE7
:100EA0000E940302892B09F44ECF27CF86E691E0FA
:100EB0000E94810383E691E00E94810361E087E064
:100EC00090E00E94140382E090E00E94560387FFA6
:100ED0004ACF63E088E090E00E94140360E088E07D
:100EE00090E03FCF5058BB27AA270E948A070C9456
:100EF0001B090E940D0938F00E94140920F039F4F2
:100F00009F3F19F426F40C940A090EF4E095E7FBD0
:100F10000C94DB08E92F0E942C0958F3BA176207DA
:100F200073078407950720F079F4A6F50C946609F9
:100F30000EF4E0950B2EBA2FA02D0B01B9019001F4
:100F40000C01CA01A0011124FF27591B99F0593F38
:100F500050F4503E68F11A16F040A22F232F342F80
:100F60004427585FF3CF469537952795A795F040CE
:100F70005395C9F77EF41F16BA0B620B730B840BE3
:100F8000BAF09150A1F0FF0FBB1F661F771F881F9B
:100F9000C2F70EC0BA0F621F731F841F48F48795F3
:100FA00077956795B795F7959E3F08F0B0CF9395E5
:100FB000880F08F09927EE0F9795879508950E945E
:100FC0004E0990F09F3748F4911116F40C9467097C
:100FD00060E070E080E89FE3089526F01B16611D35
:100FE000711D811D0C94E1080C94FC080E940A08F4
:100FF0000C941B090E94140958F00E940D0940F03E
:1010000029F45F3F29F00C94DB0851110C94670917
:101010000C940A090E942C0968F39923B1F3552313
:1010200091F3951B550BBB27AA27621773078407FB
:1010300038F09F5F5F4F220F331F441FAA1FA9F391
:1010400035D00E2E3AF0E0E832D091505040E6957F
:10105000001CCAF72BD0FE2F29D0660F771F881FE0
:10106000BB1F261737074807AB07B0E809F0BB0BD3
:10107000802DBF01FF2793585F4F3AF09E3F5105E7
:1010800078F00C94DB080C9467095F3FE4F3983E1A
:10109000D4F3869577956795B795F7959F5FC9F7D0
:1010A000880F911D9695879597F90895E1E0660F51
:1010B000771F881FBB1F621773078407BA0720F0CA
:1010C000621B730B840BBA0BEE1F88F7E095089533
:1010D0000E946F086894B1110C94670908950E94EA
:1010E000340988F09F5798F0B92F9927B751B0F07D
:1010F000E1F0660F771F881F991F1AF0BA95C9F79C
:1011000014C0B13091F00E946609B1E008950C94CA
:101110006609672F782F8827B85F39F0B93FCCF37D
:10112000869577956795B395D9F73EF49095809518
:10113000709561957F4F8F4F9F4F0895E89409C038
:1011400097FB3EF490958095709561957F4F8F4FFA
:101150009F4F9923A9F0F92F96E9BB279395F69510
:10116000879577956795B795F111F8CFFAF4BB0F8E
:1011700011F460FF1BC06F5F7F4F8F4F9F4F16C0F2
:10118000882311F096E911C0772321F09EE8872F7C
:10119000762F05C0662371F096E8862F70E060E038
:1011A0002AF09A95660F771F881FDAF7880F9695B1
:1011B000879597F9089597F99F6780E870E060E058
:1011C0000895882371F4772321F09850872B762F88
:1011D00007C0662311F499270DC09051862B70E04B
:1011E00060E02AF09A95660F771F881FDAF7880F5C
:1011F0009695879597F908959F3F31F0915020F487
:10120000879577956795B795880F911D96958795E2
:1012100097F908959FEF80EC089500240A9416161C
:10122000170618060906089500240A9412161306D4
:10123000140605060895092E0394000C11F4882362
:1012400052F0BB0F40F4BF2B11F460FF04C06F5F7E
:101250007F4F8F4F9F4F089557FD9058440F551F54
:1012600059F05F3F71F04795880F97FB991F61F028
:101270009F3F79F087950895121613061406551F9F
:10128000F2CF4695F1DF08C0161617061806991F0B
:10129000F1CF869571056105089408950E9434097F
:1012A000A0F0BEE7B91788F4BB279F3860F4161684
:1012B000B11D672F782F8827985FF7CF8695779590
:1012C0006795B11D93959639C8F30895E894BB27A7
:1012D00066277727CB0197F908950E94690A08F4D9
:1012E0008FEF08950E9485090C941B090E940D0937
:1012F00038F00E94140920F0952311F00C94DB08BB
:101300000C940A0911240C9467090E942C0970F3AB
:10131000959FC1F3950F50E0551F629FF001729F9A
:10132000BB27F00DB11D639FAA27F00DB11DAA1FA9
:10133000649F6627B00DA11D661F829F2227B00DF6
:10134000A11D621F739FB00DA11D621F839FA00D81
:10135000611D221F749F3327A00D611D231F849FD1
:10136000600D211D822F762F6A2F11249F57504028
:101370009AF0F1F088234AF0EE0FFF1FBB1F661FA3
:10138000771F881F91505040A9F79E3F510580F06C
:101390000C94DB080C9467095F3FE4F3983ED4F3A8
:1013A000869577956795B795F795E7959F5FC1F710
:1013B000FE2B880F911D9695879597F90895FA0150
:1013C000EE0FFF1F309621053105A1F16115710562
:1013D00061F48038BFE39B0749F168949038810538
:1013E00061F08038BFEF9B0741F099234AF5FF3F3A
:1013F000E1053105210519F1E8940894E795D90133
:10140000AA2329F4AB2FBE2FF85FD0F310C0FF5FE3
:1014100070F4A695E0F7F73950F019F0FF3A38F478
:101420009F779F930DD00F9007FC9058089546F03A
:101430000C940A0960E070E080E89FE308954FE7AC
:101440009F775F934F933F932F930E94FE0A2F91B4
:101450003F914F915F910E9472090C94370A29F4D1
:1014600016F00C94DB080C9466090C940A090E948F
:101470003409A8F39638A0F707F80F92E8942BE305
:101480003AEA48EB5FE70E9488090F920F920F92A9
:101490004DB75EB70F920E94460BE8E6F0E00E945F
:1014A0008D0A4F915F91EF91FF91E595EE1FFF1F20
:1014B00049F0FE57E0684427EE0F441FFA95E1F724
:1014C0004195550B0E94C00A0F9007FE0C94B40A78
:1014D0000895990F0008550FAA0BE0E8FEEF1616C5
:1014E0001706E807F907C0F012161306E407F50718
:1014F00098F0621B730B840B950B39F40A2661F08C
:10150000232B242B252B21F408950A2609F4A1402E
:10151000A6958FEF811D811D0895DF93CF931F93B3
:101520000F93FF92EF92DF927B018C01689406C0CB
:10153000DA2EEF010E948509FE01E894A59125911C
:10154000359145915591A6F3EF010E948A07FE015E
:101550009701A801DA9469F7DF90EF90FF900F915F
:101560001F91CF91DF9108959B01AC0160E070E085
:1015700080E89FE30C94F6070C94DB080C94FC08BD
:101580000E943409D8F39923C9F3940F511DA3F392
:101590009150504094F059F0882332F0660F771F35
:1015A000881F91505040C1F79E3F51052CF7880F7E
:1015B000911D9695879597F908955F3FACF0983EF9
:1015C0009CF0BB27869577956795B79508F4B16031
:1015D0009395C1F7BB0F58F711F460FFE8CF6F5F29
:1015E0007F4F8F4F9F4FE3CF0C94670916F00C94F9
:1015F000FC080C940A0968940C94DB080E943409D6
:10160000A8F39923C1F3AEF3DF93CF931F930F9306
:10161000FF92C92FDD2788232AF02197660F771FB5
:10162000881FDAF720E030E040E85FEB9FE388397D
:1016300020F0803E38F021968F770E947307E0E912
:10164000F0E004C00E947307EDEBF0E00E948D0A09
:101650008B01BE01EC01FB2E6F5771097595771F49
:10166000880B990B0E94A00828E132E741E35FE371
:101670000E948509AF2D9801AE01FF900F911F9137
:10168000CF91DF910E948A070C941B09FA01DC01BB
:10169000AA0FBB1F9B01AC01BF5728F42227332799
:1016A0004427507820C0B75190F4AB2F00244695C2
:1016B00037952795011CA395D2F3002071F0220FD6
:1016C000331F441FB395DAF30ED00C9472076130C8
:1016D0007105A0E88A07B94630F49B01AC01662782
:1016E000772788279078309621F0208331834283B2
:1016F00053830895E894DF93CF93FC01DB010E94AC
:101700008B0C7F936F93E9019A01AC01BF93AF9368
:101710003F932F93DF010E948B0C26F46C1B7D0BF3
:10172000820B930B9E01EB01FC010E949A0CAF917E
:10173000BF912F913F910E949A0CBE01CF01F901F8
:101740002F913F91CF91DF910895689401C0E89463
:10175000F92FF12B12F00C94D90BA0E0B0E0E3EBE1
:10176000FBE00C944B0C092E059422F40E94350CDE
:10177000112392F4F0E80F26FFEFE094F094009527
:101780001095B094C094D094A194BF0ACF0ADF0AF8
:10179000EF0AFF0A0F0B1F0B0E94E40B07FC0E94CD
:1017A000350CCDB7DEB7ECE00C94670C689401C043
:1017B000E8948F929F92CF93DF930E94E40BDF9186
:1017C000CF919F908F90089588249924F401E4018B
:1017D000B0E49F93AA279A158B049C04ED05FE059F
:1017E000CF05D007A10798F4AD2FDC2FCF2FFE2F08
:1017F000E92D982C892E982F872F762F652F542F1F
:10180000432F322F2227B85031F7BF9127C01B2E0C
:10181000BF91BB27220F331F441F551F661F771F21
:10182000881F991F881C991CEE1FFF1FCC1FDD1FEE
:10183000AA1FBB1F8A149B04EC05FD05CE05DF051E
:10184000A007B10748F08A189B08EC09FD09CE09EA
:10185000DF09A00BB10B21601A94E1F62EF494017C
:10186000AF01BE01CD01000C089560957095809583
:10187000909530954095509521953F4F4F4F5F4F34
:101880006F4F7F4F8F4F9F4F08952F923F924F92F0
:101890005F926F927F928F929F92AF92BF92CF9200
:1018A000DF92EF92FF920F931F93CF93DF93CDB709
:1018B000DEB7CA1BDB0B0FB6F894DEBF0FBECDBF81
:1018C00009942A88398848885F846E847D848C8452
:1018D0009B84AA84B984C884DF80EE80FD800C815B
:1018E0001B81AA81B981CE0FD11D0FB6F894DEBF3E
:1018F0000FBECDBFED0108952A193B094C095D09C2
:101900006E097F09800B910B0895EE0FFF1F059064
:10191000F491E02D0994A29FB001B39FC001A39F51
:10192000700D811D1124911DB29F700D811D112418
:10193000911D08950E948B0C460F571FC81FD91F79
:1019400008F431960895FB01DC014150504048F005
:1019500001900D920020C9F701C01D9241505040E6
:08196000E0F70895F894FFCFB1
:101968006162636465666768696A6B6C6D6E6F70E7
:10197800420126001B0D8800220E89006A108A0089
:101988004C128B0044148C008A168D003F188E0070
:10199800000000002C01AD01CD007901FE00DC0043
:1019A800F000435243204572726F7220696E2050D6
:1019B80061636B6574206465746563746564212D67
:1019C8002D20000D0A0054696D656F757420696ECD
:0E19D800205472616E736974202D2D20000062
:107800000C94343C0C94513C0C94513C0C94513CE1
:107810000C94513C0C94513C0C94513C0C94513CB4
:107820000C94513C0C94513C0C94513C0C94513CA4
:107830000C94513C0C94513C0C94513C0C94513C94
:107840000C94513C0C94513C0C94513C0C94513C84
:107850000C94513C0C94513C0C94513C0C94513C74
:107860000C94513C0C94513C11241FBECFEFD8E036
:10787000DEBFCDBF11E0A0E0B1E0EAE8FFE702C063
:1078800005900D92A230B107D9F712E0A2E0B1E065
:1078900001C01D92AD30B107E1F70E942D3D0C945F
:1078A000C33F0C94003C982F95959595959595958B
:1078B000905D8F708A307CF0282F295A8091C0000B
:1078C00085FFFCCF9093C6008091C00085FFFCCF60
:1078D0002093C6000895282F205DF0CF982F809127
:1078E000C00085FFFCCF9093C6000895EF92FF92F1
:1078F0000F931F93EE24FF2487018091C00087FD22
:1079000017C00894E11CF11C011D111D81E2E8164D
:1079100081EAF80687E0080780E0180770F3E09135
:107920000401F091050109958091C00087FFE9CF1E
:107930008091C6001F910F91FF90EF9008950E94D3
:10794000763C982F8091C00085FFFCCF9093C600B5
:1079500091362CF490330CF09053892F089597555D
:10796000892F08951F930E949F3C182F0E949F3CCF
:107970001295107F810F1F9108951F93182F882350
:1079800021F00E94763C1150E1F71F9108951F935A
:10799000182F0E94763C803249F0809103018F5F5E
:1079A000809303018530C1F01F9108958091C0003C
:1079B00085FFFCCF84E18093C6008091C00085FFE5
:1079C000FCCF1093C6008091C00085FFFCCF80E102
:1079D0008093C6001F910895E0910401F091050184
:1079E00009951F9108950E94763C803241F0809164
:1079F00003018F5F80930301853081F008958091AA
:107A0000C00085FFFCCF84E18093C6008091C00058
:107A100085FFFCCF80E18093C6000895E0910401CA
:107A2000F09105010995089548EC50E08823A1F0F4
:107A30002D9A28EE33E0FA013197F1F721503040CA
:107A4000D1F72D9828EE33E0FA013197F1F7215064
:107A50003040D1F7815061F708953F924F925F9285
:107A60006F927F928F929F92AF92BF92CF92DF924E
:107A7000EF92FF920F931F93CF93DF93000082E06A
:107A80008093C00080E18093C4001092C50088E11B
:107A90008093C10086E08093C2005098589A259A3E
:107AA00081E00E94143D24E1F22E9EE1E92E85E959
:107AB000D82E0FE0C02E10E1B12EAA24A394B1E479
:107AC0009B2EA6E58A2EF2E57F2EE0E26E2E79E46B
:107AD000572E63E5462E50E5352E0E94763C8033C6
:107AE000B1F18133B9F1803409F46FC0813409F404
:107AF00076C0823409F485C0853409F488C08035A5
:107B000031F1823521F1813511F1853509F485C0D6
:107B1000863509F48DC0843609F496C0843709F49B
:107B200003C1853709F472C1863709F466C08091B4
:107B300003018F5F80930301853079F6E0910401A2
:107B4000F091050109950E94763C803351F60E9420
:107B5000F33CC3CF0E94763C803249F78091C0004D
:107B600085FFFCCFF092C6008091C00085FFFCCF5E
:107B70009092C6008091C00085FFFCCF8092C60025
:107B80008091C00085FFFCCF7092C6008091C0003C
:107B900085FFFCCF6092C6008091C00085FFFCCFBE
:107BA0005092C6008091C00085FFFCCF4092C60075
:107BB0008091C00085FFFCCF3092C6008091C0004C
:107BC00085FFFCCFB092C60088CF0E94763C8638F5
:107BD00008F4BDCF0E94763C0E94F33C7ECF0E9409
:107BE000763C803809F49CC0813809F40BC1823896
:107BF00009F430C1883909F48FC080E00E94C73C85
:107C00006CCF84E10E94BD3C0E94F33C66CF85E0CE
:107C10000E94BD3C0E94F33C60CF0E94763C809362
:107C200006010E94763C809307010E94F33C55CFE9
:107C30000E94763C803309F411C183E00E94BD3C70
:107C400080E00E94C73C49CF0E94763C80930902A5
:107C50000E94763C8093080280910C028E7F809374
:107C60000C020E94763C853409F409C18091080217
:107C700090910902892B89F000E010E00E94763C87
:107C8000F801E85FFE4F80830F5F1F4F809108026D
:107C9000909109020817190788F30E94763C8032F8
:107CA00009F045CF80910C0280FFF5C0609106017C
:107CB00070910701660F771F7093070160930601AB
:107CC000A0910802B09109021097C9F0E8E0F1E034
:107CD0009B01AD014E0F5F1FF999FECF32BD21BD53
:107CE000819180BDFA9AF99A2F5F3F4FE417F5070B
:107CF00099F76A0F7B1F70930701609306018091CB
:107D0000C00085FFFCCFF092C6008091C00085FFC7
:107D1000FCCFB092C600E1CE83E00E94C73CDDCE2E
:107D200082E00E94C73CD9CE0E94763C8093090233
:107D30000E94763C80930802809106019091070191
:107D4000880F991F90930701809306010E94763C4B
:107D5000853409F49AC080910C028E7F80930C02C6
:107D60000E94763C803209F0B8CE8091C00085FF39
:107D7000FCCFF092C600A0910802B09109021097C2
:107D8000C1F180910C02082F0170182F1695117007
:107D9000E0910601F0910701AF014F5F5F4FBA011B
:107DA00020E030E00023B1F4112339F49491809164
:107DB000C00085FFFCCF9093C6002F5F3F4FCB01E3
:107DC0000196FA012A173B0780F4BC014F5F5F4F11
:107DD000002351F3F999FECFF2BDE1BDF89A90B5B9
:107DE0008091C00085FFFCCFE6CF709307016093C0
:107DF00006018091C00085FDE5CE8091C00085FF21
:107E0000F8CFE0CE81E00E94C73C67CE0E94763C6E
:107E1000803209F08CCE8091C00085FFFCCFF092BB
:107E2000C6008091C00085FFFCCFE092C600809123
:107E3000C00085FFFCCFD092C6008091C00085FFB6
:107E4000FCCFC092C6008091C00085FFFCCFB092ED
:107E5000C60043CE80E10E94C73C3FCE0E94763CE4
:107E60000E94763C182F0E94763C112309F483C0AF
:107E7000113009F484C08FE00E94C73C2ECE80915F
:107E80000C02816080930C02F1CE80910C02816023
:107E900080930C0265CF809107018823880F880B9F
:107EA0008A2180930B028091060190910701880F2F
:107EB000991F90930701809306018091080280FF2B
:107EC00009C08091080290910902019690930902DD
:107ED00080930802F894F999FECF1127E0910601EA
:107EE000F0910701C8E0D1E0809108029091090269
:107EF000103091F40091570001700130D9F303E084
:107F000000935700E8950091570001700130D9F3B4
:107F100001E100935700E8950990199000915700EE
:107F200001700130D9F301E000935700E8951395F3
:107F3000103498F011270091570001700130D9F3E7
:107F400005E000935700E89500915700017001305B
:107F5000D9F301E100935700E8953296029709F0B2
:107F6000C7CF103011F00296E5CF11248091C000E8
:107F700085FFC5CEC8CE8EE10E94C73CAECD85E957
:0A7F80000E94C73CAACDF894FFCF81
:027F8A00800075
:040000030000780081
:00000001FF
