:020000040800F2
:1040000000200020FD570008094100081941000860
:1040100000000000000000000000000000000000A0
:10402000000000000000000000000000F957000838
:104030000000000000000000F9570008F9570008D0
:10404000F7570008F757000865520008F7570008AF
:10405000F7570008F7570008F7570008614D0008A8
:10406000F7570008F7570008F7570008F7570008F8
:1040700061410008F7570008F7570008F757000894
:10408000F7570008F7570008F7570008F7570008D8
:10409000F7570008F7570008F7570008F7570008C8
:1040A000F7570008F7570008F7570008F7570008B8
:1040B00029410008F7570008F7570008F75700088C
:1040C00010B500F08BFE00F0AFFF00F0F3FF0B4BDC
:1040D000C046013B002BFBD1094800F0FDFEFA244D
:1040E0000521642000F074FF00F016FFA4000548CD
:1040F00000F0F2FE200000F0F3FFF8E7A0860100D8
:10410000306D00083B6D000810B5024800F0E4FE79
:10411000FEE7C046466D000810B5024800F0DCFE20
:10412000FEE7C0464B6D000810B5094C200001F0B9
:1041300053FB0100074801F04BFB200001F04CFB52
:10414000054A1378591C1170044AD05410BDC0465A
:104150000044004000380140F8010020F800002031
:10416000F7B53F4E3F4F338838881D03ED1A7388EB
:104170002900584396235B00584301F023FC3A4C36
:1041800082B222800192B38838882900584396234E
:104190005B00584301F016FC019A344D83B2520083
:1041A0005B00287892B29BB222806380042855D8A5
:1041B00001F0F4FB03142338420000F0A7FF2C4B5E
:1041C0002288188063889A4201D201232B70012330
:1041D00028485B42036001F069F8F7BD9A4201D9B3
:1041E0000023F3E700F092FF214B1B88C01AFA234B
:1041F0009B009842EBDD0223E8E71D4C9A4204D96C
:1042000000F084FF04232080E0E700F07FFF238894
:10421000C01A194B9842DADD032318482B7000F0BE
:104220005BFED4E79A42D2D900F070FF104B1880A1
:10423000002313482B70F2E79A42DCD300F066FFAC
:104240000B4B1B88C01AFA239B009842BFDD00234A
:1042500001222B700B4B0C481A70E0E70B48DEE78D
:10426000FA0100207800F81F020200200602002058
:10427000080200200024014010270000576D0008AC
:10428000646D000800020020706D0008806D000859
:104290000F4B70B5C218802304000D0000201B01D5
:1042A0009A4214D201F024F80A4A0B4913680B40D1
:1042B00013600122094B256019681142FCD10222CA
:1042C0001968114200D01A6001F01EF8012070BD7B
:1042D0000000F8F704200240FFFEFFFF1820024014
:1042E00070B505000024430607D101F031F828001D
:1042F00002F00EFD040001F033F8200070BD70B52F
:1043000005000E000024830608D101F021F83100D9
:10431000280002F005FD040001F022F8200070BD25
:1043200010B5002801D000F0EFFD10BDF0B585B04C
:1043300003930C9B16001700019002919B0715D167
:1043400001250A9C6D4205E02B0020200299019F67
:10435000B84701340A9BF21A0B9B12199C42F3D303
:104360000A9A0027934200D39F1ABF190A9D0A9BFD
:10437000DC19621B002D13D10C9B9B070DD5A31BD1
:104380001D0003930B9B7219AB4212D803990022B4
:104390008B4201D39A19121BA418200005B0F0BD5E
:1043A000039B013D585D01230299019C5B42A0479C
:1043B000DDE7012320200299019F5B42B8470135C8
:1043C000E0E7F0B593B0089218AA12781B9F1C9CE6
:1043D000069007910492002B01D110229443802271
:1043E0002100D20011400591144201D0002B1FD0B2
:1043F0006122A10600D541221D000026D2B20A3A50
:1044000009922800199901F063FB099ACBB29A1816
:104410008446D2B2092901D83033DAB2102006A975
:1044200009188A55199A731C954201D3202B11D172
:10443000A20721D401222240002F08D0002A06D052
:104440000499002902D10C310C4200D0013F3020E8
:104450000AA904E01E006546D3E7585401331A9DAB
:104460009D4201D9202BF8D130200AA9002A03D07F
:10447000BB4201D21F2B1BD9E2063CD5059A002A6C
:104480001AD1002B18D01A9A9A4201D0BB4213D1EC
:104490005A1E012B0FD01999023B10290FD013007F
:1044A000199A022A21D11F2B0FD862210AAA1AE0D9
:1044B00058540133DAE71300199A102AF0D10AAAE6
:1044C000A1060DD478211F2B0DD90093089A0799C6
:1044D0000698029401970AABFFF728FF13B0F0BDCE
:1044E00058211F2BF1D8D15401331F2BEDD8302187
:1044F0000AAAD15401331F2BE7D804990AAA00292C
:1045000003D02D21D1540133DFE7610701D52B21E1
:10451000F8E72107D9D52021F4E70000F0B59DB0D8
:104520000A900B91079208930027079B18780028A0
:104530000DD13A00BB1C01D90222524201230020B6
:104540000B990A9C5B42A04738001DB0F0BD079B49
:1045500001330793252808D001233A000B990A9DBF
:104560005B427C1CA8472700DFE7002604250221C8
:104570000120082405E02D2B16D0302B0CD106434A
:104580000792079B079A1B7801322B2B0ED0F2D88B
:10459000202B0DD0232B0DD01900303909292DD80F
:1045A00000230A2006930EE00E43E9E72E43E7E7D7
:1045B0002643E5E710231E43E2E7069B07914343AA
:1045C000303BD3180693079B1A78591C1300303BD5
:1045D000092BF2D90022079B09921B782E2B2BD195
:1045E0008022D2001643079A079B527801331100AC
:1045F0003039092942D80A20079316E00021069194
:104600002A2BE7D1089D08CD06938B4204DA0223BA
:104610001E43069B5B42069308950792DAE7099BC7
:1046200007914343303BD3180993079B1A78591CD1
:104630001300303B092BF2D9079B1A7801336C2AFF
:1046400032D02CD8682A39D06A2A40D0079B1C78EF
:1046500001330793782C08D8572C3BD8252C04D04D
:1046600020231E43462C00D1C1E0012320003A0044
:104670000B990A9C5B427D1CA047E9E22A2A0CD1D7
:10468000089D08CD0993DB43099ADB171A40079B65
:104690000992023307930895CEE70793CCE77A2A6D
:1046A000D4D1802252000EE0079A52786C2AF8D1B9
:1046B000C0239B001E43079B0233C8E7079A52782A
:1046C000682A02D080221643C1E7C023F2E7802285
:1046D0009200F8E7200058382028C6D801F068F981
:1046E0002100C5FFC5FFC5FFC5FFC5FFC5FFC5FF4D
:1046F000C5FFC5FF2100ED012100C5FF8700C5FFF3
:10470000C5FF2100C5FFC5FFC5FFC5FFC5FF2100CF
:10471000BA02C5FFC5FF4902C5FF2100C5FFC5FF9D
:104720002100782C00D1ACE2582C00D1A7E26F2CEC
:1047300000D1A8E2622C00D1A7E210230A219E43F7
:10474000692C03D0642C01D00C239E43730501D542
:1047500001239E4380239B003340692C01D0642CAD
:104760001CD1002B00D0E0E6089B1C1D089B1A689A
:10477000F3050BD5D0171318434006980496039001
:10478000099801910290D20F009217E0730601D5AB
:10479000D2B2EFE73306EDD512B2EBE7002B00D033
:1047A000C3E6089A141DF20510D5069A00930392E9
:1047B000099A089B0496029201911B683A000B9992
:1047C0000A98FFF7FEFD08940700AEE6089B1B68F9
:1047D000720608D5DBB2069A04960392099A0191F3
:1047E00002920022D0E73206F5D59BB2F3E7072309
:1047F000089D07359D432A0018CA08921A000C9399
:104800000D9410002300210001F062FA00280CD161
:10481000069B0296019303230093C14B3A000B9928
:104820000A98FFF783FD07007FE601220C980D9997
:10483000BC4B524201F052FA002806D0069B029669
:10484000019304230093B84BE8E701220C980D99DB
:10485000B64B524201F056FA00280AD00422B44B5B
:10486000164201D1B34B013A06990296019100928A
:10487000D4E700220C980D99AF4B01F043FA041EC7
:1048800000D051E60C980D990022AC4B01F026FAAD
:10489000002800D067E60C980D990022002301F053
:1048A0001DFA002800D180E00C9A0D9B0020002109
:1048B00001F0E4FD01230C900D910F93730576D563
:1048C0000999099A0E91302114AB203A09980E9C4F
:1048D000051B092C07D90E98197001380E90013369
:1048E0008242F3D120250C980D9902F059F90E9BC4
:1048F0000990DA00924B9B185C681B681093119426
:1049000002F084F902000B000C980D9901F0B6FD3D
:10491000109A119B01F046FB1290139101F006FAD8
:10492000040002F0A3F902000B001298139901F0A1
:10493000A5FD0022834B1290139101F0E3F90028AA
:1049400038D00134200002F091F902000B001098D9
:10495000119901F0CDF9002803D00024099B0133FF
:1049600009930E9B002B59D1099802F04FF90200D0
:104970000B000C980D9901F081FD0022714B0C90F9
:104980000D9101F0ABF9002807D00C980D99002289
:104990006C4B01F0B7F9002804D00123099A1340A9
:1049A000D31809930A240C9563E00F9086E7062339
:1049B000099385E7002212981399624B01F08EF952
:1049C0000028CED1002C01D0E307CAD50134C8E7B6
:1049D0000E9B0A21013B0E9320006B1C0C9301F0EF
:1049E00077F818220EAB30319B18595520000A2158
:1049F00000F0E8FF092C0FD80C9A302094461500DF
:104A00000E9B14A96344202D0AD06A1C9D421AD122
:104A10002E234B551500C5E704000C9D202DD7D142
:104A200003233340012B34D1069B002B31D00F9B45
:104A3000002B02D10C331E4202D0069B013B069391
:104A4000302214AB1AE048551500DCE70998210024
:104A500001F028F918200C9A0EAB1B183031099878
:104A60009954210001F038F8013509900028D7D079
:104A70000C95202DEAD1D3E7EA5401350699A942D5
:104A800007D9202DF8D1069B02960193009514AB0F
:104A9000C4E6202DF7D00F9B002B04D02D2214ABA1
:104AA0005A550135EFE7730702D52B2214ABF7E710
:104AB0003307E8D5202214ABF2E7022332001A4074
:104AC000012409921E4219D101253A006D4205E0E8
:104AD0002B0020200B990A9EB04722000699541CF7
:104AE000E31B8B42F4D30023994201D00B00013B1E
:104AF000FF18069B0224002B00D05C1C089B3A0088
:104B000001CB0B99089301237E1C5B420A9FC0B224
:104B1000B847099B002B2AD0270032001EE0C04670
:104B2000A46D0008FFFFEFFFA86D0008FFFFEF7FF7
:104B30009B6D0008A06D000865CDCD4165CDCDC150
:104B4000B06D00080000E03F531C099301232020B2
:104B50000B990A9D5B42A847099A0137069B9F4221
:104B6000F2D3069A0023A24200D3131BF618370093
:104B7000DBE4089B04CB0C93099B0892002B01D12A
:104B800001235B42089A1400D31800E00134227814
:104B9000002A01D0A342F9D1089B3200E41A8023F5
:104BA000DB001A400E921E4203D0099B9C4200D9A2
:104BB0001C00022332001A400F921E4215D13A0007
:104BC00007E00123561C20200B990A9D5B42A84751
:104BD0003200E31B0699D3189942F2D80023A14270
:104BE00000D30B1B0134FF18E41801263D00764268
:104BF00008E009936B1C2A0010930A9D33000B995F
:104C0000A847109D089BDB1B585D002807D00E9B12
:104C1000002BEFD0099B099A013B002AE9D10F9B99
:104C2000002B13D02A0007E00123571C20200B99EA
:104C30000A9E5B42B0473A00631B0699D3188B4229
:104C4000F2D30023A14200D30B1BED180C9B089359
:104C50002F006AE421233343049308230393099B21
:104C6000089D029310230193002300933A0008CD7E
:104C70000B990A98FFF7A5FB0895070055E4202338
:104C80001E43102160E508215EE502215CE5C04677
:104C900007B50B00020001A90148FFF73FFC0EBD5C
:104CA0002143000870B5A0250400ED05280040212F
:104CB00000F060FB012000F0DFF9A1B2084C2000F9
:104CC00000F004FD0021200000F000FD0400402160
:104CD000280000F04DFB012000F0CEF9E0B270BDDD
:104CE00000380040F8B50400A0200E00C0054021A7
:104CF00000F040FB012000F0BFF98021154821435E
:104D000000F0E4FCB1B2134800F0E0FCA020402128
:104D1000C00500F02DFB012000F0AEF92000FFF7E8
:104D2000C1FF0500122C0AD000F0F8F92704374320
:104D30003A000949094800F0FFF9002800D0F8BD01
:104D4000B542FCD0642000F097F92000FFF7AAFFDD
:104D50000500EDE700380040006E00081027000055
:104D6000F8B580241826E40000F09CF9200000F03B
:104D7000A3FA200000F0A0FA164D12202F78FFF7BA
:104D800091FF7743144CFF21E71938741220FFF785
:104D9000A9FFFF211220FFF7A5FF1A20FFF782FFCE
:104DA0002B7889387343E31898821920FFF77AFF2C
:104DB00001222B7880085E43A419217C0133490924
:104DC0008A4362740F22A07413402B7000F06AF9BA
:104DD000F8BDC0468C0300200C020020B02070B546
:104DE0008025A0248026C00000F03AFC324800F064
:104DF00037FC042000F072FB042000F0C5FB052006
:104E000000F0ECFB002000F0DFFB002000F0C4FB12
:104E1000002000F0CDFB002000F054FA274B284A78
:104E2000E4051360274AAD001360274A2748F600BF
:104E3000136000F015FC2B0020000022022100F07E
:104E40009CFA330020000022022100F096FA002292
:104E50002B001100200000F0B0FA2A0020000421ED
:104E600000F0C9FA320004212000194C00F0C3FA06
:104E7000184800F003FC200000F09BFCE12120001A
:104E8000490200F039FC2000082100F061FC2000FC
:104E9000002100F06BFC20000C2100F077FC2000CA
:104EA000002100F06BFC0021200000F075FC2000C8
:104EB00000F07AFC70BDC0468105000068FF1F004D
:104EC000880000208C000020900000208E0600004A
:104ED000003801408E0400000FB413B504A901C9C5
:104EE0000191FFF7D5FE04004021064800F07DFC4B
:104EF000002804D0200016BC08BC04B01847C046E7
:104F0000F2E7C0460038014010B50100014800F04A
:104F100055FC10BD0038014073B5402000F0B2FCD4
:104F200004001E4B1E4E1F4D436006601E48FFF7D7
:104F3000D3FF2A6829001D48FFF7CEFF31001C4827
:104F4000FFF7CAFF31002800FFF7A2F929002A68FD
:104F50001848194DFFF7C0FF184E1948FFF7BCFF5E
:104F60002800FFF7BDF92A68336829000093154827
:104F70003300FFF7B1FF626821681348FFF7ACFF09
:104F800021002800FFF7BBF92A6833682900009345
:104F90000E483300FFF7A0FF73BDC04634126824EB
:104FA00078563412FC0708080E6E0008246E0008BC
:104FB0003F6E0008526E000880FF000884FF000862
:104FC0006C6E0008796E00089F6E0008B66E0008CF
:104FD0008023F7B55B0004000022124801910121F3
:104FE00000F0CBF980210F48490000F0C3F90320FD
:104FF00080260025A70844437600A410019B9D420B
:1050000000D1F7BD3100074800F0B2F9380000F0D8
:1050100067F83100034800F0ADF9200000F060F8B7
:105020000135EBE70004005010B5104C00212000C2
:1050300000F0E0FA0E4800F013FB200000F024FA24
:105040002000002100F016FA80212000890000F0E5
:1050500009FA200000F0FCF92000064900F012FADD
:105060000421200000F0F9F910BDC046007C00408A
:105070001F070000FFFF000070B50400074800F0A4
:10508000E4F9074B05009C4200D91C00034800F0DE
:10509000DCF9401BA042F9D370BDC046007C004043
:1050A000E8FD000010B5024800F0CFF910BDC04681
:1050B000007C004010B5084C084800F0D1FA2000F0
:1050C00000F011FB83212000090100F011FB2000FA
:1050D00000F004FB10BDC0460010004004070000B3
:1050E00070B50400074800F005FB074B05009C4223
:1050F00000D91C00034800F0FDFA401BA042F9D380
:1051000070BDC04600100040E8FD000010B5024828
:1051100000F0F0FA80B210BD001000400022044BF5
:1051200010B51A60FFF7BEFF024B188010BDC046D5
:105130009003002094030020F7B515000C000190A7
:10514000FFF7B0FF0B4F0C4E3B88C01A336880B29C
:10515000C0183060FFF7A6FF3368019A388000203E
:10516000934205D92A0021000448FFF7B5FE01202B
:10517000FEBDC0469403002090030020DA6E0008B4
:10518000F8B58026364C760033000022200003213B
:1051900000F0F3F8A0253100200000F0E9F88027A6
:1051A0008023ED05FF002800012200219B0000F074
:1051B000E4F83B0028000022012100F0DEF839006D
:1051C000280000F0D5F8280001230022032100F078
:1051D000D4F88023200000220321DB0100F0CDF869
:1051E00080232000022200219B0100F0C6F88023CA
:1051F0002000022200211B0200F0BFF828004023FB
:105200000122002100F0B9F828001023012200211A
:1052100000F0B3F83B0020000022032100F0ADF8BD
:1052200080232000002203211B0100F0A6F8330098
:1052300028000022032100F0A0F820000223002211
:10524000032100F09AF8200004230022032100F03B
:1052500094F8012300220321200000F08EF8F8BD0D
:1052600000040050802010B5400300F025F8FFF73F
:10527000B5FD0C48FFF730FE0B4B1B685B050FD5E7
:1052800000F008F900F00AFA00F016FA00F01EF932
:1052900000F014F900F00AFA00F006F9FFF770FFC9
:1052A00010BDC046EB6E00080C2800400423826845
:1052B0001343836070470000014B18607047C0467D
:1052C000140401400121034A13688B430343136014
:1052D0007047C04600200240024B034A1A60034A4E
:1052E0001A60704714200240C8D9EAFB27262524FB
:1052F000024B034A1A60034A1A6070470C200240AE
:10530000EFCDAB89050403020123024A11680B4368
:105310001360704704200240024B034A1A60034A9C
:105320001A60704710200240BFAE9D8C16151413F2
:105330000223024A11680B431360704704200240A5
:105340000423024A11680B43136070470420024093
:1053500010B5FFF7CDFFFFF7DFFFFFF7BDFF10BD73
:1053600010B5FFF7EDFFFFF7E3FFFFF7CDFF10BD2F
:1053700081617047090481617047F0B585B0019182
:1053800003270021029203930268C368039C01254E
:105390000C412C420AD03D004C00A540019EAA437E
:1053A000AB43029DA640A54032432B430131102957
:1053B000ECD10260C36005B0F0BDF7B501920129E0
:1053C00016D14168194300240126032741608168F2
:1053D0001D002541354206D03A006500AA409143A0
:1053E000019AAA4011430134102CF1D18160F7BD1C
:1053F00041689943E7E7F7B5002301260F27046AC0
:105400000091416A0192019D1D41354206D03A004A
:105410009D00AA409443009AAA4014430133082BEC
:10542000F1D101260F27019A1A41324207D03A00E2
:105430009D00203DAA409143009AAA4011430133A8
:10544000102BF0D104624162F7BDC06980B2704791
:105450000123026913430361704703690B4303612E
:1054600070470000C368024A13400B43C360704793
:10547000FFF1FFFFC368024A13400B43C36070474C
:10548000FFFFF1FF816170470122C3689343C3604E
:10549000704700008023034A5B0011680B431360D0
:1054A0007047C04600700040024A034913680B4031
:1054B0001360704700700040FFFEFFFF0823024AA0
:1054C00011680B4313607047007000400423024AC8
:1054D00011680B43136070470070004000B5062848
:1054E0000BD800F05BFA041015190B1B1D0080236C
:1054F0000C4A5B0411680B43136000BD094A80230A
:1055000011685B00F7E78023064A5B021168F2E747
:10551000054A01231168EEE7024AFAE7034AEEE77B
:10552000024AF6E700100240081002405010024004
:10553000002300B506280AD8013300F02FFA040A28
:10554000120E161A1C000D4A1068400E0340180077
:1055500000BD0A4A1068400CF8E7084A1068800845
:10556000F4E7074A10684008F0E7044A1068400A68
:10557000ECE7044AFAE7034AF4E7C04600100240A9
:10558000081002405010024010B504002000FFF740
:10559000CFFF0028FAD010BD034A04491368000267
:1055A0000B401843106070470C100240FFF8FFFFDB
:1055B000034A04491368C0020B4018431060704747
:1055C0000C100240FFC7FFFFF021034A00011368DF
:1055D0008B431843106070470C100240034A044983
:1055E000136840030B4018431060704704100240DA
:1055F000FF1FFFFF134B0A0010B598421CD00BD8B9
:10560000114B98421AD011490C2388420BD01049F3
:105610000A3B884207D010BD0E4B984210D00E4B6B
:105620009842F8D10023032098409A400B4C2168FF
:10563000814311432160EEE71023F4E70A23F2E7E8
:105640001223F0E70078004000480040005400407A
:1056500000440040007C0040003801404C100240F3
:10566000054B4209D2181F2318401E3B8340116886
:105670000B4313607047C04600100240064A4309BE
:105680009B181F2210401E3A82401968114319606E
:10569000196891431960704700100240CA22024BFA
:1056A0001A60773A1A60704724280040FF22014BA5
:1056B0001A60704724280040024A034913680B40CF
:1056C000136070470C280040FFFBFFFF0123C160FF
:1056D00082681A42FCD0C06880B270470123026819
:1056E00013430360704701220368934303607047CC
:1056F00081627047406A7047104B70B505000C001E
:105700004E08984207D10E4B18682100301800F05F
:1057100059F9E86010E00B4B18680B4B9D42F4D12F
:1057200000F0D6F9050008028019210000F04AF9BE
:105730002D02064B4019186070BDC046003801406C
:10574000900000208C000020004800400C480040E1
:10575000082904D10368044A13400360704780237A
:1057600002685B011343F8E7FFEFFFFF4368024A5B
:1057700013400B4343607047FFCFFFFF0368024AAB
:1057800013400B4303607047FFF9FFFF0C220368CF
:1057900093430B43036070478368024A13400B43F3
:1057A00083607047FFFCFFFF01230268134303601F
:1057B00070470122036893430360704770B50D0082
:1057C000040000F00DF82900200000F001F870BD81
:1057D000C905C90D81627047406AC005C00D704798
:1057E0008023C2691A42FCD07047C0690840411E3C
:1057F0008841C0B27047FEE77047000010B5164BF5
:10580000164A17498B4218D30021164A934217D3E0
:105810008023154A9B001168144C0B431360144BF2
:105820009C420FD3134C144B9C420ED3FEF748FC02
:10583000124C134B9C420BD310BD01CA01C3E1E7CC
:1058400002C3E3E708CC9847E9E708CC9847EAE7C2
:1058500008CC9847EDE7C04600000020346F0008F0
:10586000F8000020B403002014ED00E0346F0008BD
:10587000346F0008346F0008346F0008346F00087C
:10588000346F000810B5034B0100186800F004F8ED
:1058900010BDC04694000020F8B50323CD1C9D43E5
:1058A000083506000C2D1FD20C25A9421ED8300049
:1058B00000F062F825490A681400002C1AD1244F20
:1058C0003B68002B04D12100300000F043F8386021
:1058D0002900300000F03EF8431C2BD10C2330008F
:1058E000336000F051F803E0002DDEDA0C23336062
:1058F0000020F8BD23685B1B19D40B2B03D9236050
:10590000E418256003E06368A2420ED10B6030000A
:1059100000F03AF8200007220B30231D9043C21AF2
:105920009842E6D01B1AA350E3E75360EFE722004A
:105930006468C2E70323C41C9C43A042E1D0211A3F
:10594000300000F007F8431CDBD1C7E798030020C4
:105950009C030020002370B5064D040008002B6056
:1059600001F0C8F9431C03D12B68002B00D0236041
:1059700070BDC046A403002010B5024800F00CF82A
:1059800010BDC046AC03002010B5024800F005F879
:1059900010BDC046AC0300207047704702B471468A
:1059A00049084900095C49008E4402BC7047C04662
:1059B00003B47146490840004900095E49008E441D
:1059C00003BC7047002243088B4274D303098B4207
:1059D0005FD3030A8B4244D3030B8B4228D3030CBF
:1059E0008B420DD3FF22090212BA030C8B4202D361
:1059F0001212090265D0030B8B4219D300E0090A89
:105A0000C30B8B4201D3CB03C01A5241830B8B4291
:105A100001D38B03C01A5241430B8B4201D34B037A
:105A2000C01A5241030B8B4201D30B03C01A5241DF
:105A3000C30A8B4201D3CB02C01A5241830A8B4264
:105A400001D38B02C01A5241430A8B4201D34B024D
:105A5000C01A5241030A8B4201D30B02C01A5241B1
:105A6000CDD2C3098B4201D3CB01C01A5241830965
:105A70008B4201D38B01C01A524143098B4201D39F
:105A80004B01C01A524103098B4201D30B01C01ACA
:105A90005241C3088B4201D3CB00C01A5241830844
:105AA0008B4201D38B00C01A524143088B4201D371
:105AB0004B00C01A5241411A00D2014652411046D1
:105AC0007047FFE701B5002000F0F0F802BDC046C6
:105AD0000029F7D076E7704703460B437FD40022B6
:105AE00043088B4274D303098B425FD3030A8B4272
:105AF00044D3030B8B4228D3030C8B420DD3FF22DC
:105B0000090212BA030C8B4202D31212090265D0A9
:105B1000030B8B4219D300E0090AC30B8B4201D35C
:105B2000CB03C01A5241830B8B4201D38B03C01AA3
:105B30005241430B8B4201D34B03C01A5241030B1A
:105B40008B4201D30B03C01A5241C30A8B4201D3CB
:105B5000CB02C01A5241830A8B4201D38B02C01A76
:105B60005241430A8B4201D34B02C01A5241030AED
:105B70008B4201D30B02C01A5241CDD2C3098B42D2
:105B800001D3CB01C01A524183098B4201D38B014F
:105B9000C01A524143098B4201D34B01C01A5241F2
:105BA00003098B4201D30B01C01A5241C3088B4237
:105BB00001D3CB00C01A524183088B4201D38B0022
:105BC000C01A524143088B4201D34B00C01A5241C4
:105BD000411A00D201465241104670475DE0CA0F9B
:105BE00000D04942031000D34042534000229C465B
:105BF00003098B422DD3030A8B4212D3FC22890165
:105C000012BA030A8B420CD3890192118B4208D33A
:105C1000890192118B4204D389013AD0921100E09C
:105C20008909C3098B4201D3CB01C01A52418309B0
:105C30008B4201D38B01C01A524143098B4201D3DD
:105C40004B01C01A524103098B4201D30B01C01A08
:105C50005241C3088B4201D3CB00C01A5241830882
:105C60008B4201D38B00C01A5241D9D243088B42D8
:105C700001D34B00C01A5241411A00D2014663467B
:105C800052415B10104601D34042002B00D54942DF
:105C9000704763465B1000D3404201B5002000F01E
:105CA00005F802BD0029F8D016E770477047C046D6
:105CB0008446101C62468C46191C634600E0C046B0
:105CC0001FB500F0FFF8002801D40021C8421FBD15
:105CD00010B500F049F84042013010BD10B500F099
:105CE000F1F8002801DB002010BD012010BDC046E6
:105CF00010B500F0E7F8002801DD002010BD0120FC
:105D000010BDC04610B500F06BF8002801DC002083
:105D100010BD012010BDC04610B500F061F800288C
:105D200001DA002010BD012010BDC04670B5002270
:105D30000C4B04000D00FFF7EFFF002804D12000FA
:105D4000290000F02DFF70BD064B00222000290025
:105D500000F094FB00F024FF80231B069C46604467
:105D6000F1E7C0460000E041F0B54F464646D64652
:105D7000944691461A03120B184DC0B54C000F0300
:105D800092465A00060080463F0B0120640DC90F61
:105D9000520DDB0FAC420AD0AA4203D0944201D18B
:105DA00057450DD0E0BCBA46B146A846F0BD3D000F
:105DB0003543F7D1A242F5D1524665462A43F1D187
:105DC0000120C845EED1994206D0002CEAD13E43CD
:105DD0003000461EB041E5E70020E3E7FF07000082
:105DE000F0B54E4645465746DE4604001800E0B57D
:105DF00016001B031B0B324D0F034A00994643004C
:105E0000A446B0463F0B520DC90F5B0DC00FAA420E
:105E100029D0AB4218D0002A2AD13C43A346654280
:105E20006541002B02D14C46264327D0002D15D1C9
:105E3000814228D00220013908400138F0BCBB461D
:105E4000B246A946A046F0BD4D462E432FD1002AAA
:105E5000EED13C4365426541002DE9D00028EDD1EB
:105E600001204042EAE73D00254320D19342EBD098
:105E7000002BDDD14C462643DAD1DBE75B46002020
:105E8000002BDBD0D6E79A420ADCE7DB4F45D1D8BE
:105E900010D000204F45D1D20029E1D00800CDE735
:105EA000434258410223404218400138C6E70220CD
:105EB0004042C3E7C445BDD80020C445BED2EBE78D
:105EC000FF070000F0B54E4645465746DE46040043
:105ED0001800E0B516001B031B0B314D0F034A00E1
:105EE00099464300A446B0463F0B520DC90F5B0DC7
:105EF000C00FAA4211D0AB4214D0002A2FD13C438C
:105F0000A34665426541002B14D14C46264311D16E
:105F10005B460020002B17D010E03D00254312D136
:105F200093421CD14D462E430DD1002A04D13C434F
:105F300065426541002D0DD1814216D00220013904
:105F40000840013800E00220F0BCBB46B246A9463A
:105F5000A046F0BD0028F7D101204042F4E7002B15
:105F6000EAD14C462643E7D1E8E79A4206DD4342B0
:105F700058410223404218400138E5E79A42E9DBE4
:105F80004F45DBD806D000204F45DDD20029E3D0B5
:105F90000800D9E7C445D1D80020C445D4D2F5E7DC
:105FA000FF070000F0B557464E464546DE46E0B5D1
:105FB00098460C034B000600924687B0240B5B0DFD
:105FC000CF0F002B6CD0DD4A934200D186E0420F08
:105FD000E4001443802212041443D94AC5009446B5
:105FE00063440093002399469B46434642461E0362
:105FF000D20F5B0050469046360B5B0D00D178E027
:10600000CE4A93421DD0CE49420F8C46009963443C
:10601000F6008C46164380229C44120463461643C5
:10602000C200002000930099434601318C46494646
:106030007B4001930F2900D97EE0C24B890059585B
:106040008F465246009B324300D056E1BB490026A2
:106050008C46634449460093022319438946022033
:10606000E1E7434601933400150083465B46022B6B
:106070005ED0032B00D1F3E1012B00D018E1002208
:1060800000240025019B12052243DB071A43280048
:10609000110007B0F0BCBB46B246A946A046F0BD11
:1060A0002500054300D141E1002C00D1ADE12000E5
:1060B00000F002FE010002000B391D2310005B1AE4
:1060C0003100350008388440D94085400C439E4853
:1060D000831A0093002399469B4686E705002543D3
:1060E00000D01CE1082200930223002491469B4625
:1060F0007BE75246324300D10AE1002E00D176E11F
:10610000300000F0D9FD02000B3A1D2301009B1A5C
:1061100052460839DA408E40164352468A40009B68
:106120008949181A03008C466344002000937AE7DB
:1061300000240025814AA5E72F0C2D042D0C2B00EF
:10614000110C1204120C53439846130028007B4391
:10615000994648434844834640460B00000C82461B
:1061600058467B4350440293814506D99A46802382
:106170005B029946CA4453460293030C9B4643462E
:106180001B0400041B0C9846030043440493330C87
:1061900099462B003604360C7343984633007B43F4
:1061A0009A464B465D435F4343465544180C40199D
:1061B000824503D980235B029A465744050CEB19AC
:1061C000059343461D042D0C00044019250C24049E
:1061D000240C270057436A4390462A003B0C9A46FA
:1061E0004A436143414451448344884503D9802351
:1061F0005B02984642443F040B0C3F0C0904C9194A
:10620000270098464B4677435C436E435D433B0C07
:106210009946A4194C4442440395A64204D98023CC
:106220005B02984645440395029B3F045B441E0075
:106230008342804123049846059B3F0C474498467F
:1062400076188E428941474440423D18A8469346FD
:1062500049428A46C3449F42BF4180458041039BD7
:10626000DA449846534640427F420743240C934504
:1062700092418A4589413F19DC0D049B75021D43FB
:10628000681E85415346524249420A43BF1847445B
:10629000F60D7F0235435A023C431543FB0100D4FF
:1062A000C1E001216A080D401543E2071543640867
:1062B00026496144002956DD6B0709D00F222A4088
:1062C000042A05D02A1DAA42AD416D426419150069
:1062D000E30104D580211E4AC900144061441D4ACF
:1062E000914200DD24E76207ED0864024905154389
:1062F000240B4A0DC6E60197B8E6104A03209446DF
:1063000063444A46009303231A43914652468AE661
:1063100049460123194389460026012083E60C22C1
:1063200000930323050091469B465EE604239946AD
:1063300000230093013300249B4656E6FF0700002C
:1063400001FCFFFFF46E00080DFCFFFFFF030000DF
:10635000FFFFFFFEFE070000002380240025444AC3
:10636000019324038EE60120401A382800DD86E6DA
:106370001F285BDD1F2223005242511ACB40190017
:10638000202803D03B4A6244944025436A1E95412D
:106390002A000A4307210D000024154011425BD05A
:1063A0000F2100241140042953D0111D9142924124
:1063B0005242A4180A0023024BD5012200240025D2
:1063C00060E680231B031C4209D01E4207D13343E1
:1063D0001C0343461500240B254A019352E68022F4
:1063E000120314432403224A240B01974AE600F0C7
:1063F00063FC03001A00153220301C2A00DC84E6FE
:106400005646083B00229E4089E600F055FC0100FC
:106410000200153120321C2900DC4EE63400083819
:106420000025844053E6009B9C4641E71249220028
:1064300061442E008D408A40C640691E8D41324322
:106440002A43C4405307B6D00F2111400429ACD1D0
:10645000B1E765076402240BD2081543002211E658
:106460008022120314432403014A240B0AE6C04687
:10647000FF0700003E0400001E040000F8B5574668
:106480004E464546DE460400E0B51F0010000B03F3
:10649000620F4E00CD0F5B0A39031343490AE20035
:1064A000440F2143C24C91469246C0007A00804678
:1064B000760D520DFF0FA24200D1B4E001246740D7
:1064C000BB46BD4200D188E0B41AA446002C00DCD3
:1064D000B2E0002A00D1C5E0B54A964200D18BE275
:1064E0008022120411436246382A00DDA1E11F2AEE
:1064F00000DD16E220270C00BF1ABC400200A046B7
:106500006446B840E240444614430200501E8241B3
:106510006046C14022435B1A49468C1AA14592410C
:1065200052429B1A984643461B0200D417E1434649
:106530005B025B0A98464346002B00D16CE1404663
:1065400000F0BAFB0200083A202120004346891AD5
:106550009340C84094400343964200DD57E1961BA8
:10656000711C1F2900DDCBE1202218002600521AE1
:1065700094409040CE40CB40621E944130439846B8
:1065800000260443630709D00F232340042B05D0C2
:10659000231DA342A4416442A0441C0043461B02A5
:1065A00000D4DFE0824B01369E4200D1FBE0424640
:1065B000804BE4081A401300710552075B02224326
:1065C0001B0B490D0905ED07194329431000F0BCC9
:1065D000BB46B246A946A046F8BDB41AA446002C54
:1065E00058DD002A00D19EE0714A964200D13BE17D
:1065F0008022120411436246382A00DDC1E01F2ABE
:1066000000DCBBE10C00203AD44022006446202C80
:1066100004D040273F1BB940084380464446611ED2
:106620008C411443B1E00C0004432AD0BB46BD4268
:106630002DD0614CA446B4446446002C5CD0941B1D
:10664000A446002E00D015E14D461D4300D1C3E104
:10665000651E012C00D10CE2554EB44200D1F8E188
:10666000AC460EE10A00024300D136E12200013AB5
:10667000012C00D1C6E14E4CA44500D1F4E0944673
:1066800031E701246740BB46BD4200D01CE74A4CBD
:10669000A446B4446446002C00D1CFE0941BA44629
:1066A000002E00D15CE1424EB24200D1ECE18026E6
:1066B000360433436446382C00DDB3E11F2C00DD83
:1066C00038E22026361B1C00B4404F46A0466446E4
:1066D000E74044463C434F46B7403E00771EBE412C
:1066E00034436646F340C918241884429B415B42F8
:1066F0009846160088444EE0304A741C144200D07C
:10670000D6E04A461A43002E00D05BE1002A00D1B1
:10671000A5E10A00024300D0BBE14A465907D2086E
:106720000A43DB0827E00A00024300D174E122009B
:10673000013A012C05D01E4CA44500D194E09446AA
:1067400059E74844484592415B1898460400524234
:106750009044434602261B0200D5C4E0013E630775
:1067600000D011E74346B4465907E2080A43DB0864
:106770000F498C4540D061461B0349051B0B490D51
:1067800020E701430C00611E8C414C444C45924172
:1067900052429046984443461B02E0D5044B0136D2
:1067A0009E4200D09FE03100002300220AE7C0464D
:1067B000FF070000FFFF7FFF01F8FFFFFE0700005B
:1067C000002A00D160E10A0002434DD04A465C072E
:1067D000D20822438024DB082403234207D0CE08BA
:1067E000264204D15D463300C20849070A43510FCF
:1067F000D200D20849070A431100194300D1C8E169
:10680000802109030B431B03D5491B0BDAE6D5494D
:10681000B61A0B409846B5E6200000F04DFA02008B
:1068200018321F2A00DC8FE623000838834000243A
:1068300092E608430200501E82416DE6CA4C721C6B
:10684000224200D0ADE04A461A43002EB8D1002AB9
:1068500000D158E10A00024300D059E14A465907E5
:10686000D2080A43DB0886E74A465907D2080A439A
:10687000DB08C1E7BA4DAA4200D11EE180252D04F4
:106880002B436446382C5DDC1F2C00DDD0E0202536
:1068900067462D1B4E461C00FE40AC4034434E461E
:1068A000AE403500FB406E1EB541C91A2C434EE088
:1068B0004A46141AA1459241524290465F1A3A0044
:1068C0004746D21B9046120200D58BE04246224337
:1068D00000D030E6002300254DE74A465907D2088C
:1068E0000A43DB0844E742469E4B61081A40130006
:1068F000012214400C43DA075B089846144341E632
:106900001A001F3EF2401600202903D04022511ADF
:106910008B401C43621E944100233443984600265A
:106920001DE70C00203AD44022006446202C04D0FD
:1069300040273F1BB940084380464446611E8C41B6
:106940002243E9E54C4623431C00631E9C41041B83
:10695000A0429B415B42CB1A98465D461600E2E599
:106960004E461E4300D1AEE0661E012C00D1FDE074
:106970007B4FBC4200D107E1B4469BE6644620222F
:10698000121B0C00944007009040A0466446421E33
:1069900090416246E7404446D1403C4304435B1883
:1069A000F3E66F4CA24200D1D5E048445B1848455D
:1069B000894149425B18DC0740085B08984616008D
:1069C0000443CCE6002A00D082E00A00024340D112
:1069D000802300251B0313E74B07C2081A435D46BB
:1069E000CB08C5E64A46841AA0429241CB1A5242CD
:1069F0009B1A98465D469EE54A465907D2080A43C7
:106A0000DB08F9E64A46141AA14592415B1A524244
:106A10009B1A9846012686E54A465907D2080A433A
:106A2000DB08A5E64C4623431C00631E9C415BE645
:106A300065461E00203DEE40202C05D040252D1B34
:106A4000AB404C461C43A2465446631E9C41344313
:106A50007DE74B07C2081A435D46CB08CCE60A0027
:106A6000024300D136E74B07C2081A435D46CB0804
:106A700081E64A46841AA0429241CB1A52429B1A9E
:106A800098465D4601264EE54B07C2081A43CB08DF
:106A9000B2E64A46141AA14592415F1A5242BA1A06
:106AA000904612026BD54A46841AA0429241CB1AF4
:106AB00052429B1A98465D4664E54B07C2081A434A
:106AC0005D46CB0898E64B07C2081A43CB084FE651
:106AD0000A00024390D04A465C07D2081443802241
:106AE000DB081203134208D0CE08164205D1C008B5
:106AF0004907084304005D463300610FE20049077F
:106B0000D2080A4378E64B07C2081A43CB0832E69C
:106B100048445B1848459241984652429044434647
:106B200004001B0200D41AE642460E4B01261A400E
:106B3000904614E666461F00203EF740202C05D004
:106B40004026361BB3404C461C43A2465446631EA7
:106B50009C413C43C8E511000023002232E5C046B9
:106B6000FF070000FFFF7FFFFE0700004A461418E2
:106B7000844292415B18984652429044E9E542466D
:106B8000224300D1A6E6EAE54B07C2081A43CB0828
:106B900032E600220149130014E5C046FF07000059
:106BA0000A0030B5134C530009030500090B0020FF
:106BB0005B0DD20FA34204DD0F48834202DD0F4B71
:106BC000D01830BD8020400301430D48C01A1F2853
:106BD00008DD0C48C31AD9400B005842002AF0D1F6
:106BE0001800EEE7084CC540A446634499400B00EA
:106BF0002B43F2E7FE0300001D040000FFFFFF7FB0
:106C00003304000013040000EDFBFFFF70B5002803
:106C100016D0C317C5185D40C40F280000F04CF80B
:106C2000114A121A0A2816DC03002E0015339E4062
:106C30000B23181AC54053052D032D0B5B0D03E0E4
:106C400000240023002500261B052B43E4072343D3
:106C50003000190070BD0B38854053052D03002608
:106C60002D0B5B0DF0E7C0461E04000010B5041E9E
:106C700010D000F021F80F4B1B1A0A2811DC0B2250
:106C80002100121AD14015300A035B058440120B13
:106C90005B0D01E0002300221B05134320001900B7
:106CA00010BD22000B3882405B0512030024120B3A
:106CB0005B0DF1E71E0400001C2101231B04984218
:106CC00001D3000C10391B0A984201D3000A08397D
:106CD0001B09984201D30009043902A2105C401834
:106CE0007047C046040302020101010100000000D8
:106CF00000000000044A03001068002802D0C318F6
:106D0000136070470148FAE7A0030020B403002095
:106D100001B40248844601BC604700BF0100002066
:106D200001B40248844601BC604700BF4100002016
:106D30004875622053746172740A00487562204C71
:106D40006F6F700A0A006E6D690A006861726420D4
:106D50006661756C740A00506C7567676564204FD6
:106D600075740A00506C756767656420496E0A0087
:106D700052657365742053657175656E63650A00AD
:106D80004572726F7220414443204953522044653A
:106D90006661757420436173650A00666E692B0035
:106DA000666E69006E616E00666E692D00000000FF
:106DB000000000000000F03F000000000000244040
:106DC00000000000000059400000000000408F401B
:106DD000000000000088C34000000000006AF84086
:106DE0000000000080842E4100000000D0126341AA
:106DF0000000000084D797410000000065CDCD4120
:106E000052464D20535049205772697465005465AD
:106E10007374204D656D20577269746520526561E9
:106E2000640A0A00454550524F4D205374617274F4
:106E30003A2025303878203A20253038780A00501A
:106E4000726F6772616D6D696E673A2025303878B0
:106E50000A00454550524F4D20456E643A2025307A
:106E60003878203A20253038780A0A00466C617359
:106E7000682045726173650A00466C61736820532F
:106E8000746172743A2025303878203A20253038E1
:106E9000780A25303878203A20253038780A005092
:106EA000726F6772616D6D696E672025303878206A
:106EB000253038780A00466C61736820456E643A64
:106EC0002025303878203A20253038780A25303887
:106ED00078203A20253038780A0054696D656F753E
:106EE0007420257320253038580A00525443204915
:106EF00053520A00386100086660000866600008A6
:106F0000626000086C6000086C600008586300084C
:106F1000626000086C600008586300086C6000083C
:106F200062600008F6620008F6620008F662000877
:046F3000C263000830
:106F340082230C4A9B0011680B4313600023012237
:106F44000360094B19681142FCD119680222080038
:106F54001040114202D001201A607047034A1A609F
:106F6400FBE7C04604200240182002400003020050
:106F740081230E4A10B51468DB00234313600B0011
:106F8400403304C902609942FBD10122084B1968BD
:106F94001142FCD11968022208001040114202D0AB
:106FA40001201A6010BD034A1A60FBE70420024066
:106FB400182002400003030068FF1F0068FF1F0041
:106FC40068FF1F009800002000000000000000007F
:106FD40000000000000000000000000000000000AD
:106FE400000000000000000000000000000000009D
:106FF400000000000000000000000000000000008D
:10700400000000000000000000000000000000007C
:10701400000000000000000000000000000000006C
:08702400000000000000000064
:04000005080057FD9B
:00000001FF
