:020000040800F2
:1040000000200020B9670008FD4400080D450008A5
:1040100000000000000000000000000000000000A0
:10402000000000000000000000000000B76700086A
:104030000000000000000000B7670008B767000834
:10404000B5670008B567000825510008B567000886
:10405000B5670008B5670008B56700083D4D000862
:10406000B5670008B5670008B5670008B5670008C0
:1040700055450008B5670008B5670008B567000832
:10408000B5670008B5670008B5670008B5670008A0
:10409000B5670008B5670008B5670008B567000890
:1040A000B5670008B5670008B5670008B567000880
:1040B0001D450008B5670008B5670008794300088A
:1040C0000878812810D1487806280FD18878C978D7
:1040D0000902014388208001814209D1054911600C
:1040E00019221A80012000E0002070470020FCE720
:1040F0000020FAE7DC6D000810B582B004000D4B1B
:10410000009340230322812101F054FB0A4B0093CA
:10411000402303220121200001F04CFB074B7F22AA
:104120000121200001F041FC054B01221A7002B070
:1041300010BDC0469941000845410008C140000833
:1041400042010020F0B587B005000E006A460F4B13
:10415000140083CB83C403CB03C41B782370402398
:104160003100280001F046FB094C402322003100B9
:10417000280001F046FB2378012B01D007B0F0BDE9
:10418000044B02221A7000F0A5FBF7E7106D00083F
:10419000000000204201002070B505000E00124B07
:1041A0001B78022B1DD070BD00F078FB0F4B18550B
:1041B0000134A4B23F2CF7D90D4C2388403323801F
:1041C00040230A4A3100280001F014FB00F08CFB68
:1041D00023889842E7D80023034A1370044A1380C7
:1041E000E1E70024E6E7C04642010020000000208D
:1041F0004001002010B5002000F0C4FF032001F0B2
:10420000CDF8032001F04EF9032001F05DF91F4ABB
:10421000116880231B020B431360002001F092F908
:10422000002001F077F9002001F080F9184B194ABD
:104230001360194A1360194A1360D020C00001F0BE
:10424000C1F9174A136801210B431360144B1B6813
:104250005B00FBD5124A116880239B010B4313605E
:104260000F4B1B685B01FBD5022001F097F8022081
:1042700001F018F90B4801F0A5F90B4801F0A2F97B
:1042800001F018F9042001F0B3F810BD0C10024041
:104290000024F400D0000020D4000020D80000202A
:1042A00020000140170700001B07000010B584B074
:1042B000FFF7A0FF0023134A1370134A0121116076
:1042C0001360124A136080330293114B019304234D
:1042D0000093104B104A1149114801F03FFA114C5C
:1042E0002060114901F064FA2068104901F0F2FEE3
:1042F0001F2002F0A5FA00211F2002F0ADFA04B041
:1043000010BDC04642010020405C0040445C0040BB
:1043100044010020086E0008746D0008846D0008D8
:1043200020710008C401002065430008F94000081E
:1043300000B583B06B46D871074B1B78012B01D0B9
:1043400003B000BD054B186801236A46073281217E
:1043500001F050FAF4E7C04642010020C4010020F9
:104360007047000010B5034B00221A70FFF7F8FFEA
:1043700010BDC0464201002070B5424B1B681A04B4
:10438000150C52012ED41A0436D42B0508D53D4BFA
:104390003D4A1A603D4B1B681B6A002B00D09847B2
:1043A000EB0408D5374B3A4A1A60384B1B685B6AF6
:1043B000002B00D09847AB0508D5324B354A1A6020
:1043C000324B1B689B6A002B00D098472F4B1B6811
:1043D0009B6A002B4FD0304A116880239B000B430F
:1043E000136070BD274B2D4A1A60284B1868402374
:1043F000038301F0E8F9F4E70F241C40EB0612D523
:10440000A300274A944663441B681B0501D401217D
:1044100016E01E4B1868020030320823210002F01B
:104420008FF802210CE0A1001D4B9C4661440B68F3
:104430001BB21C4A1A401C4B13439BB20B60002159
:10444000124A106863001B195B181A339B001B5833
:10445000002B02D02100984797E7A300104A94460A
:1044600063441A6812B20F490A4080210A4312B20B
:1044700092B21A6089E7084A13680C490B4013602E
:10448000AFE7C046445C0040FFF70000C4010020D5
:10449000FFEF0000FFFD0000405C0040FFFB00005C
:1044A000005C00400F0F00000080FFFFFFFDFFFFDA
:1044B00010B500F095F900F015FD00F059FD00234E
:1044C00001E0C04601330A4A9342FADD094800F090
:1044D000ADF90521642000F077FC00F0A5FC06484A
:1044E00000F0A4F9FA20800000F058FDF7E7C0467C
:1044F0009F860100186E0008246E000810B502485F
:1045000000F094F9FEE7C046306E000810B502488E
:1045100000F08CF9FEE7C046386E000810B5094C73
:10452000200001F00BF90100074801F003F9200019
:1045300001F004F9054A1378591C1170044AD0544B
:1045400010BDC0460044004000380140C8020020B1
:10455000C801002070B5002414E04F4B1B88651C77
:104560004E4A6900885A43439800C3181801C01A7C
:10457000800013881903C91A02F034FA6400484B0A
:104580001853ECB2012CE8D9002306E04449580046
:10459000425A520042520133DBB2012BF6D9414B51
:1045A0001B78042B6ED89B003F4AD3589F4600F0DF
:1045B0000BFD3E4B18803A4B1A885B889A4264D2B6
:1045C000384B01221A7060E0354B1A885B889A429A
:1045D00003D9344B00221A7057E000F0F5FC334B3E
:1045E0001B88C01AFA239B0098424EDD2D4B0222F5
:1045F0001A704AE02A4B1A885B889A4207D900F061
:10460000E3FC2A4B1880274B04221A703DE000F08F
:10461000DBFC264B1B88C01A254B984235DD214B0D
:1046200003221A70234800F001F92EE01C4B1A886F
:104630005B889A4229D900F0C7FC1C4B1880194BA3
:1046400000221A701C4800F0F1F81EE0144B1A8882
:104650005B889A4203D2134B02221A7015E000F0D5
:10466000B3FC124B1B88C01AFA239B0098420CDD46
:104670000C4B00221A70114B01321A70104800F0D6
:10468000D5F802E00F4800F0D1F80F4801235B4253
:10469000036000F06BFD70BD7800F81FCC020020B5
:1046A000D4020020D80200208C6E0008DA0200201C
:1046B00010270000446E0008546E0008D20200204B
:1046C000606E0008706E00080024014070B5B020D4
:1046D000C00000F077FF264800F074FF8025AD0091
:1046E000A024E4052B0000220221200000F0A5FDFB
:1046F0008026F600330000220221200000F09DFDFC
:104700002B0000220021200000F0B7FD2A00042128
:10471000200000F0D0FD32000421200000F0CBFD8D
:10472000144800F04FFF144800F05AFF134C2000CB
:1047300000F0F1FFE1214902200000F08FFF082185
:10474000200000F0B7FF0021200000F0C1FF0C2185
:10475000200000F0CDFF0021200000F0C1FF00216B
:10476000200000F0CBFF200000F0D0FF70BDC0465D
:10477000810500008E0600008E0400000038014014
:1047800010B50100074C2088074B9C46604400F0A0
:1047900005F920880130054B198802F093FA218031
:1047A00010BDC046DE020020040108080001080810
:1047B00010B50100014800F0B3FF10BD0038014002
:1047C00010B5FFF7B5FD10BD10B50400FFF7D8FF19
:1047D0002000FFF7EDFF2000FFF7F2FF10BD000003
:1047E00010B50D4CFF218900200000F0ADF800212C
:1047F0000A4800F0A9F86388094A1380094A13801F
:10480000FFF754FDFFF762FF0023074A934202DCE3
:10481000C0460133F9E710BD00010808020108088D
:10482000DE020020DC0200209F8601000FB400B5EC
:1048300083B004AA02CA0192084800F079F9084B33
:104840001978084800F0AAF84021074800F07FFFD7
:104850000028F9D003B008BC04B01847C9470008C5
:10486000DE02002002010808003801400FB400B544
:1048700083B004AA02CA0192064800F059F9402107
:10488000054800F064FF0028F9D003B008BC04B06C
:104890001847C046B14700080038014010B50A4C1F
:1048A00020880130094B198802F00CFA89B2218066
:1048B000074B1B88994204D0044B9C4661440879FD
:1048C00010BD0020FCE7C046DC0200200001080803
:1048D000DE020020024B1A88024B1A807047C04645
:1048E000DE020020DC020020014B18887047C04621
:1048F0000001080870B504000D000F4BC21880239A
:104900001B019A4201D3002070BD00F051FC0B4AFC
:1049100013680B490B40136025600A4B1B68DB07CB
:10492000FBD4084B1B689B0702D5064B02221A607A
:1049300000F04AFC0120E7E70000F8F704200240FD
:10494000FFFEFFFF1820024070B504000D000F4B62
:10495000C21880231B019A4201D3002070BD00F0D1
:1049600027FC0B4A13680B490B40136025800A4B48
:104970001B68DB07FBD4084B1B689B0702D5064B63
:1049800002221A6000F020FC0120E7E70000F8F79F
:1049900004200240FFFEFFFF1820024070B5040013
:1049A0000D00114BC21880231B019A4216D200F051
:1049B000FFFB0E4A13680E490B40136025700D4B28
:1049C0001B68DB07FBD40B4B1B689B0702D5094B0D
:1049D00002221A6000F0F8FB012070BD0648FFF7C4
:1049E00045FF0020F9E7C0460000F8F70420024028
:1049F000FFFEFFFF18200240A06E000810B5040063
:104A0000430602D00024200010BD00F001FC20006D
:104A100002F06EF9040000F003FCF4E770B5040046
:104A20000D00830602D00024200070BD00F0F0FBD2
:104A30002900200002F064F9040000F0F1FBF3E724
:104A4000010000200A681378303BDBB2092B08D83C
:104A500083001B185B00501C08601078C0183038A9
:104A6000F0E77047F0B5D6464F464646C0B588B029
:104A700080460C0015009A4610AB1B78994600261C
:104A80000EE03031C9B2771C6B46995529002000E1
:104A900001F0A8FFAC4211D31F2F0FD83E00040035
:104AA0002900200002F024F8C9B20929E9D93731D8
:104AB000C9B2E8E730236A46D3550137574501D2DA
:104AC0001F2FF7D9102D16D0022D1BD0102D20D05E
:104AD000022D1ED04B46002B05D01F2F03D82D23AF
:104AE0006A46D35501373C00002C19D0013C6B4677
:104AF000185DC047F8E71F2FE6D858236A46D355FC
:104B00000137E3E71F2FE1D862236A46D355013707
:104B1000DCE71F2FDED830236A46D3550137D9E7AB
:104B2000380008B0E0BCBA46B146A846F0BD000067
:104B300070B584B0050003910292002404E0A847F8
:104B40000134039B01330393039B1878002800D1A1
:104B50008CE02528F3D15A1C03925B78303BDBB202
:104B6000092B0BD90023039A10780200253AD1B201
:104B7000532975D88A003F498A58974603A8FFF7FA
:104B80005FFF0300EFE7782809D058281DD06F2871
:104B90001DD0622801D00A2202E0022200E0102289
:104BA000692801D0642814D10299081D0290086870
:104BB000C61781197140C00F00902800FFF752FFFF
:104BC0002418039B01330393BEE71022E8E7082271
:104BD000E6E70299081D029009680020009028006D
:104BE000FFF740FF2418ECE7029B1A1D0292187889
:104BF000A8470134039B01330393A5E7029B1A1DC9
:104C000002921E6833008022D20001E001330A00C4
:104C10001978002902D0511E002AF7D130780028D7
:104C200003D00136A8470134F8E7039B013303930F
:104C30008AE7029B1A1D0292196800230093083329
:104C400010222800FFF70EFF2418039B0133039363
:104C50007AE72520A8470134039B0133039373E7C8
:104C6000A8470134039B013303936DE7200004B090
:104C700070BDC046C86E000870B50400A025ED05E3
:104C80004021280000F0D6FA012000F053F9A1B22B
:104C9000084C200000F0CCFC0021200000F0C8FCF3
:104CA000C4B24021280000F0C3FA012000F042F90C
:104CB000200070BD00380040F8B505000E008024CB
:104CC00064420443E4B2A027FF054021380000F00D
:104CD000B1FA012000F02EF9A1B2154C200000F02D
:104CE000A7FCB1B2200000F0A3FC4021380000F086
:104CF0009FFA012000F01EF92800FFF7BDFF040015
:104D0000122D13D000F068F92A04324309490A48E9
:104D100000F070F9002809D1B44207D0642000F0F7
:104D200009F92800FFF7A8FF0400EDE7F8BDC04629
:104D300000380040187000081027000070B500F01F
:104D40000FF98024E400200000F016FA200000F0A3
:104D500013FA1B4D2E781220FFF78EFF194C7300AB
:104D60009B19DB00E3181874FF211220FFF7A4FF42
:104D7000FF211220FFF7A0FF1A20FFF77DFF2A78FE
:104D800000B253009B18DB00E31889389882192081
:104D9000FFF772FF2B785A00D218D200A4188008AF
:104DA000A074227C520901214A4001210A40627408
:104DB00001330F2213402B7000F0D2F870BDC046B3
:104DC00060040020E0020020F0B5C64600B50500F2
:104DD000884680267600134C3300002201212000F3
:104DE00000F02BFA3100200000F024FA00244445A2
:104DF00015D280277F000B4E3900300000F018FAE2
:104E0000A80800F0CBF83900300000F013FA680071
:104E10002818801000F0C2F80134E4B2E7E780BC43
:104E2000B846F0BD0004005070B582B0402001F0DB
:104E300031FD04001E4E06601E4B43601E48FFF706
:104E4000F5FC1E4D2A6829001D48FFF7EFFC3100D4
:104E50001C48FFF7EBFC31002800FFF74BFD2A68E8
:104E600029001948FFF7E2FC1848FFF7DFFC184D4E
:104E70002800FFF7C3FD2A68164E336800933300FD
:104E800029001548FFF7D2FC626821681348FFF734
:104E9000CDFC21002800FFF7C1FD2A68336800938C
:104EA000330029000E48FFF7C1FC02B070BDC046B8
:104EB000785634123412682428700008FC07080859
:104EC000407000085C700008707000088C7000086A
:104ED00080FF000884FF00089C700008C470000870
:104EE000DC70000810B5104C0021200000F034FBED
:104EF0000E4800F067FB200000F026FA0021200099
:104F000000F018FA80218900200000F00BFA200040
:104F100000F0FEF90649200000F014FA04212000F8
:104F200000F0FBF910BDC046007C00401F070000E8
:104F3000FFFF000070B50400074800F0E6F9050027
:104F4000064B9C4200D91C00034800F0DEF9401BD0
:104F5000A042F9D370BDC046007C0040E8FD0000CF
:104F600010B5024800F0D1F910BDC046007C0040E9
:104F700010B5084800F026FB074C200000F065FB48
:104F800083210901200000F065FB200000F058FBA0
:104F900010BDC046040700000010004070B50400BA
:104FA000074800F059FB0500064B9C4200D91C0045
:104FB000034800F051FB401BA042F9D370BDC0462E
:104FC00000100040E8FD000010B5024800F044FB6E
:104FD00080B210BD0010004010B5044B00221A60D2
:104FE000FFF7BEFF024B188010BDC04664040020CE
:104FF00068040020F0B583B0060001911500FFF7AA
:10500000AFFF0C4C2388C31A9BB20B4F3A689446EF
:1050100063443B60FFF7A4FF20803B68B34202D8A3
:10502000002003B0F0BD2A0001990448FFF7FEFB01
:105030000120F6E7680400206404002000710008E5
:10504000F8B580267600364C33000022032120007C
:1050500000F0F3F83100200000F0EAF88023A025EA
:10506000ED059B0001220021280000F0E6F88027D2
:10507000FF003B0000220121280000F0DEF839008B
:10508000280000F0D5F8012300220321280000F0B9
:10509000D4F88023DB0100220321200000F0CDF8AA
:1050A00080239B0102220021200000F0C6F880230B
:1050B0001B0202220021200000F0BFF84023012241
:1050C0000021280000F0B9F8102301220021280057
:1050D00000F0B3F83B0000220321200000F0ADF8FF
:1050E00080231B0100220321200000F0A6F83300DA
:1050F00000220321280000F0A0F80223002203214F
:10510000200000F09AF8042300220321200000F080
:1051100094F8012300220321200000F08EF8F8BD4E
:105120000004005010B58020400300F025F8FFF780
:1051300057FB0C48FFF77AFB0B4B1B685B0500D451
:1051400010BD00F007F900F05BFA00F067FA00F01C
:105150001DF900F013F900F05BFA00F005F9FFF714
:105160006FFFEDE7147100080C28004004238268EB
:105170001343836070470000014B18607047C046BE
:10518000140401400121034A13688B430343136055
:105190007047C04600200240024B034A1A60034A8F
:1051A0001A60704714200240C8D9EAFB272625243C
:1051B000024B034A1A60034A1A6070470C200240EF
:1051C000EFCDAB89050403020123024A11680B43AA
:1051D0001360704704200240024B034A1A60034ADE
:1051E0001A60704710200240BFAE9D8C1615141334
:1051F0000223024A11680B431360704704200240E7
:105200000423024A11680B431360704704200240D4
:1052100010B5FFF7CDFFFFF7DFFFFFF7BDFF10BDB4
:1052200010B5FFF7EDFFFFF7E3FFFFF7CDFF10BD70
:1052300081617047090481617047F0B585B00191C3
:1052400003270021029203930268C368039C01258F
:105250000C412C420AD03D004C00A540019EAA43BF
:10526000AB43029DA640A54032432B430131102998
:10527000ECD10260C36005B0F0BDF7B50192012921
:1052800016D1416819430024012603274160816833
:105290001D002541354206D03A006500AA409143E1
:1052A000019AAA4011430134102CF1D18160F7BD5D
:1052B00041689943E7E7F7B5002301260F27046A01
:1052C0000091416A0192019D1D41354206D03A008C
:1052D0009D00AA409443009AAA4014430133082B2E
:1052E000F1D101260F27019A1A41324207D03A0024
:1052F0009D00203DAA409143009AAA4011430133EA
:10530000102BF0D104624162F7BDC06980B27047D2
:105310000123026913430361704703690B4303616F
:1053200070470000C368024A13400B43C3607047D4
:10533000FFF1FFFFC368024A13400B43C36070478D
:10534000FFFFF1FF816170470122C3689343C3608F
:10535000704700008023034A5B0011680B43136011
:105360007047C04600700040024A034913680B4072
:105370001360704700700040FFFEFFFF0823024AE1
:1053800011680B4313607047007000400423024A09
:1053900011680B43136070470070004000B5062889
:1053A0000BD801F015FB041015190B1B1D008023F1
:1053B0000C4A5B0411680B43136000BD094A80234B
:1053C00011685B00F7E78023064A5B021168F2E789
:1053D000054A01231168EEE7024AFAE7034AEEE7BD
:1053E000024AF6E700100240081002405010024046
:1053F00000B506280AD801F0EBFA040E12170A19B4
:105400001B000C4A0C4913680B40136000BD094A8D
:1054100013680A49F8E7074A09491368F4E7094A93
:10542000012113688B43F0E7024AF9E7064AEFE7E8
:10543000054AF5E700100240FFFFFFFEFFFEFFFFF9
:10544000FFFFFEFF0810024050100240002300B58D
:1054500006280AD8013301F0BBFA040A120E161A04
:105460001C000D4A1068400E0340180000BD0A4A97
:105470001068400CF8E7084A10688008F4E7074A0B
:1054800010684008F0E7044A1068400AECE7044A54
:10549000FAE7034AF4E7C046001002400810024051
:1054A0005010024010B504002000FFF7CFFF002885
:1054B000FAD010BD8023034ADB0411680B4313604C
:1054C0007047C0464C10024000B5042812D801F0C5
:1054D0007FFA03091112190003230D4A11680B43C7
:1054E000136007E003220A490B6893431A00022362
:1054F00013430B6000BD032205490B6893431A0058
:105500000123F5E70321024A13688B43E8E7C0460D
:105510000C100240034A0449136800020B40184370
:10552000106070470C100240FFF8FFFF034A044967
:105530001368C0020B401843106070470C10024003
:10554000FFC7FFFFF021034A000113688B43184394
:10555000106070470C100240134B0A0010B59842BF
:105560001CD00BD8114B98421AD011490C238842F9
:105570000BD010490A3B884207D010BD0E4B984211
:1055800010D00E4B9842F8D10023032098409A4047
:105590000B4C2168814311432160EEE71023F4E7AF
:1055A0000A23F2E71223F0E70078004000480040A9
:1055B0000054004000440040007C0040003801409E
:1055C0004C100240054B4209D2181F2318401E3BC5
:1055D000834011680B4313607047C04600100240BF
:1055E000064A43099B181F2210401E3A8240196840
:1055F0001143196019689143196070470010024007
:10560000CA22024B1A60773A1A6070472428004079
:10561000FF22014B1A60704724280040024A0349C8
:1056200013680B40136070470C280040FFFBFFFF1E
:105630000123C16082681A42FCD0C06880B2704702
:1056400001230268134303607047012203689343F8
:105650000360704781627047406A7047104B70B5B5
:1056600005000C004E08984207D10E4B1868210027
:10567000301801F0B7F9E86010E00B4B18680B4BDD
:105680009D42F4D101F034FA05000802801921008E
:1056900001F0A8F92D02064B4019186070BDC046F4
:1056A00000380140D8000020D4000020004800400D
:1056B0000C480040082904D10368044A13400360E1
:1056C0007047802302685B011343F8E7FFEFFFFF99
:1056D0004368024A13400B4343607047FFCFFFFF0C
:1056E0000368024A13400B4303607047FFF9FFFF52
:1056F0000C22036893430B43036070478368024A9C
:1057000013400B4383607047FFFCFFFF01230268D7
:10571000134303607047012203689343036070479B
:1057200070B50D00040000F00DF82900200000F015
:1057300001F870BDC905C90D81627047406AC00596
:10574000C00D70478023C2691A42FCD07047C069FF
:105750000840411E8841C0B270470000F7B51D00E7
:105760000AAB1B881600019303680F0004009847DA
:105770000300DC331C60089B0200C360099BC83235
:105780000361019B07608382064B46600367064BFB
:105790008560C366054B8366002313605360936086
:1057A000D360FEBDDB590008455A0008C75A0008FF
:1057B000C161704737B50400069DDC34246800954C
:1057C000A468A04737BD37B5002504000368C5822B
:1057D000DB792A0029000095FFF7ECFF2300DC337A
:1057E0001B6829005B6820009847E369AB4200D042
:1057F000984737BD10B50400DC342468E469A0473D
:1058000010BD10B50400DC342468246AA04710BD24
:10581000030010B5DC331B681B69984710BD0300FB
:1058200010B5DC331B689B69984710BD030010B5A9
:10583000DC331B685B69984710BD70B505000368D1
:105840000400D979838F826B2C3599420ED20B00DC
:105850000021FFF7CFFF02232B702368D979A36BB8
:105860005A18A38FA2635B1AA38770BD0021FFF7AC
:10587000C1FF22004432137859424B4102332B704E
:1058800000231370A387A363EFE70300F0B50500BF
:1058900004000E0087B06833483505932B68270055
:1058A0009C4623003833049363463C370397002B10
:1058B00007D131002000039B049A00F085FC07B05B
:1058C000F0BD31786B792A790B409A4204D0059B60
:1058D00008359D42E2D1ECE72300403300933100CC
:1058E00020006746039B049AB8470128EFD8E6E7F3
:1058F00010B5012204000021FFF78AFF00232C3499
:10590000237010BD70B50368828FC58EDB790400EB
:10591000AD1A9D4200DD1D00A36BAEB29A180021A6
:1059200033002000FFF76DFF864205D02000FFF70F
:10593000DFFF0120404270BDA38FA8B2F618A687F2
:10594000F9E770B5036904008363CB798A791B0298
:10595000134383870D00FFF798FF002821D0EB79D0
:10596000AA791B02134313D02268A08FD179002299
:10597000834206D9904204D001F0A4F94A424A4138
:10598000D2B22300443320001A70FFF756FF70BDD7
:105990001A0019002000FFF72DFF04232C34237078
:1059A000F5E72000FFF7A4FFF1E7F0B507000400DA
:1059B00000254837EE00B859002805D00135042DE0
:1059C000F8D101204042F0BDA41925004C352970C2
:1059D00021004D310A70A364F5E770B5002504007D
:1059E0000122290005640600FFF720FF230036335B
:1059F0001A7801331B7830361B021343AB4204D1B3
:105A000031002000FFF79DFF70BD32787F2AF7D864
:105A1000A28A9A4203D22000FFF76AFFF4E7290026
:105A20002269A587A26322682000D2799A4269413F
:105A300022000B002C320533137029002A00FFF7D7
:105A4000F5FEE1E770B505002C352B780400062B38
:105A500011D0072B26D0052B21D1FFF753FF0028AB
:105A600008DBA28FE38E9B1A2268D279934201DC75
:105A700006232B7070BDFFF745FF0028FADB2100DD
:105A800020003031FFF701FF002807D0002320005D
:105A90001A001900FFF7AEFE0423EAE72000FFF723
:105AA00027FFE7E700231A001900FFF7AAFE0023EB
:105AB0002B70236C002B03D021002000303198473D
:105AC00000232364D6E770B505002C352B7804003D
:105AD000032B06D0042B0BD0022B21D1FFF7ADFEF8
:105AE00070BD072300222B701100FFF79FFEF7E720
:105AF0000600036C3036002B01D031009847337814
:105B0000002B0AD17378052B07D123003233197883
:105B1000AA331B6820005B68984700232B70DFE7DF
:105B2000FFF7E6FEDCE710B50C78002C14D1CB783B
:105B30008A781B0213437F2B0CD883750300DC3358
:105B40001B6801341A0030321278002A02D089789A
:105B50005B689847200010BD0024FBE7F8B5CA78C1
:105B60008B78120204000D001A4310D003680D2632
:105B7000587C0023984201D80020F8BD31005943D9
:105B8000676879184979914203D00133F2E701231C
:105B90005B420133DBB2E375002B0CD123002600FE
:105BA000DC331B682000DB68C83698473368002B5D
:105BB0001CD10120E1E70D22534362680D3BD3184D
:105BC0000022160019799142E8D9987A597A000290
:105BD0000843D97A09040843197B090601431001D7
:105BE0004158002900D00E700132EBE70023270056
:105BF000A3642365A3652366D8373368002B05D0DB
:105C0000E978AA7809022000114398470436B74280
:105C1000F3D1CEE7198810B5012901D901211980E6
:105C2000C17D1468002908D00D22514343685B18D8
:105C30000D3B5B792370012010BD2170FBE770B52F
:105C40000D24C57D40686C430D3C04194D790879DD
:105C500026792D0205430020AE4217D90130188065
:105C6000A37A607A1B020343E07A00040343207B9B
:105C70000C79000618434B791B0223431B011B5868
:105C8000191E00D0197801201368197070BD198889
:105C9000022901D9022119800023116801200B700B
:105CA00012685370704710B514001A88022A01D97F
:105CB00002221A800979FFF7B2FD431E98410022A3
:105CC00023681870236801205A7010BD10B5012296
:105CD0000979FFF79DFD012010BD10B5002209795B
:105CE000FFF796FD012010BD70B50D261D00C37D88
:105CF0004C795E4343680D3E9E190B7924021C4388
:105D000033790022A3422BD9B27A737A12021A4352
:105D1000F37A24011B041A43337B1B0613431B191C
:105D2000CC788A781E79240214430022A64217D91F
:105D30001A68002A12D014700300D8331B68002B95
:105D400008D0CA788C78120222430C79497909026A
:105D500021439847002301222B8001E0002CEBD047
:105D6000100070BDF0B58FB005931400CA788B7821
:105D7000120213430600120A022A13D0032A00D18A
:105D800052E10020012A0BD1336819782360059B6A
:105D90001A880B1C914200D9131C059A138001200C
:105DA0000FB0F0BD0269DBB222600692059A14883A
:105DB0000D2253434268D118D35C04911F1CA342A7
:105DC00000D9271CBBB21A0004990698039300F06F
:105DD0006BFD039A069B9446A41A63440293A3B2F4
:105DE0000193049B1A780CABDA8000230793049B81
:105DF0001A796B469B8B9A420AD806980CAB022202
:105E0000991D023000F050FD059B039A1A80C6E7E9
:105E1000079B049A1B010B93049B927A5B7A1202F4
:105E20001A43049BDB7A1B041A43049B1B7B1B064F
:105E300013430B9A9B189C68002C1DD02378019A61
:105E40001F1C934201D96B469F88BFB23A002100C4
:105E5000029800F029FD029BDB190293019BDB1BDA
:105E60009BB20193039BFF18BBB203930CAB9A1D2B
:105E7000118823785B1813800023049A0893049BED
:105E8000927A5B7A12021A43049BDB7A1B041A4350
:105E9000049B1B7B1B0613430B9A9B186A461979BC
:105EA000128C914202D8079B01339FE7DA681523D1
:105EB00008994B43D418D35C019A1F1C934201D913
:105EC0006B469F88BFB23A002100029800F0ECFCBC
:105ED000029B2678DB190293019BDB1B9BB201938B
:105EE000039BFF18BBB203930CABDA88B618B6B2AB
:105EF000DE80A37B617B1B020B43E17B09040B4328
:105F0000217C0906194324D0A37C657C1B022B430A
:105F1000E57C2D042B43257D2D061D43019B9D42D1
:105F200000DD1D00AFB23A00029800F0BDFC029BFC
:105F3000DB190293019BDB1B9BB20193039BDF19CF
:105F4000BBB20393A37C627C1B0213439E190CAB70
:105F5000DE80002309936B4622799B8C9A4202D8FB
:105F6000089B013389E7A27A637A12021A43E37A23
:105F700009991B041A43237B1B0613430F224A4330
:105F80009D189B5C019A1F1C934201D96B469F8808
:105F9000BFB23A002900029800F086FC029B0CAACE
:105FA000DB190293019BD188DB1B9BB20193039BFE
:105FB000FF18BBB203932B785B189BB20A93D38074
:105FC0002B7AE9791B020B43697A09040B43A97AFE
:105FD0000906194325D02B7BEE7A1B0233436E7BD7
:105FE00036043343AE7B36061E43019B9E4200DDE2
:105FF0001E00B7B23A00029800F056FC029BDB1973
:106000000293019BDB1B9BB20193039BDF19BBB285
:1060100003932B7BEA7A1B0213430A9A9B180CAA60
:10602000D380099B013395E7DBB20569002B10D1C2
:106030000933AB70053BEB70059A2B7011880A1C75
:10604000994200D91A1C059B1A8003236B702560A6
:10605000A5E68768013B381E00D1A1E6F268002062
:106060009A4200DC9CE64A790879134912020243FD
:1060700000208A4200D093E69B00DE59300000F0F9
:106080008DFC01304000059BC0B228701A88131C9B
:10609000824200D9031C059A13800023059A1288B6
:1060A0005208013A9A42D0DDF15C5A00AA18917068
:1060B00000210133D170F1E7090400001988022999
:1060C00001D9022119800023116801200B70126888
:1060D0005370704710B5040002000023C8349800C4
:1060E0002058002807D0884209D00133042BF6D16C
:1060F0000120404210BD32339B009950FAE7002046
:10610000F8E7000070B505004878092812D800F0BB
:106110005FFC0D111111110F0B110905064C280020
:10612000A04770BD054CFAE7054CF8E7054CF6E7CB
:10613000054CF4E70020F4E75D5B0008155C0008FF
:10614000655D00088F5C0008275B000870B54C781F
:1061500005000A2C08D00B2C08D00020844202D164
:10616000034C2800A04770BD024CFAE7024CF8E748
:10617000BD6000083F5C0008E95C000870B50500E0
:106180004878012805D003280CD0002813D000201F
:1061900070BDC8788C7800022043084CF7D12800E5
:1061A000A047F5E7CC788878240204430020844295
:1061B000EED1034CF3E7034CF1E7C046DB5C00088B
:1061C000CD5C0008A75C000870B50D7860262C0037
:1061D0003440354212D1413E3540012D08D0022DC8
:1061E00009D0002D02D1FFF78DFF0400200070BD03
:1061F000FFF7ACFFF9E7FFF7C1FFF6E70024F5E78B
:1062000080231943014B19607047C0464C5C004025
:106210003E2A10D92023013A9205D20E5001203097
:106220001A43074BC9001B6892029BB2C918054B61
:10623000C9180A80704701325208500080B2F0E756
:10624000505C004006600040F0B50500374885B05E
:106250000290C0207F26C00403900E403448B40052
:1062600024182068334F52003840304380B22060F9
:1062700027683148384002AFD25B304F104380B2BC
:106280004AB2206094462E48002A22DB002E20D0FD
:106290000068F20080B212182A48298B1218118067
:1062A00028001A003100FFF7B3FF0A9B002B36D1FC
:1062B0002368254A134023602368244A1A40C023D8
:1062C0009B0153403B439BB223602B8BC018288318
:1062D00023E00268298B92B20191F10089181C4ACF
:1062E0008918019A0A800A9A002A04D00C22724363
:1062F0000A99AA189166226816490A402260226803
:106300001549114020224A403A4392B222602A8B1A
:106310009A182A836246002ABADA05B0F0BD0C2327
:106320005E430A9BAE19F366C2E7C0460002000452
:10633000005C0040808FFFFF8F89FFFF8080FFFFA0
:10634000505C0040046000408FCF00008FBF000011
:1063500000600040CF8F0000BF8F000070B50B4A77
:106360000B4E0C490C4D0D4C136833400B439BB244
:10637000136013682B400B439BB208C2A242F3D1B7
:106380000368DB7920335B00038370BD045C00404D
:10639000BF8FFFFF8080FFFF8FBFFFFF205C0040AB
:1063A00030B52248002926D1214C224D23681D40BA
:1063B0001023002A00D1DB186B401BB203439BB2B1
:1063C00023601B4B8900C918002A03D10B681A4CA3
:1063D00023400B600C68194B1C4013005A1E93415C
:1063E0005A42C02352039B01D218624012B20243A8
:1063F00092B20A6019E04BB2002BE2DA7F23194017
:106400000B4B8900C9180B680A4C1C401023002A4A
:1064100000D1DB1863401BB2184380B20860002A29
:1064200003D10B68064A13400B6030BD8080FFFF2C
:10643000005C0040BF8F00008FCF00008FBF0000C6
:10644000CF8F00004BB2002B0CDA7F2319400A4B90
:106450008900C91830230868184010384342584151
:10646000C0B27047044B8900C918C02308689B015B
:106470001840024BC018F1E7005C004000F0FFFF3D
:106480004BB210B5002B11DB0C4B0D4C5A540D4B7D
:1064900089000D48C918002A09D080230A689B0189
:1064A000224092B2534003439BB20B6010BDC02206
:1064B0000B68920123409BB2F4E7C04668050020B8
:1064C0008FBFFFFF005C00408080FFFFF8B50C002D
:1064D0001D007F23110030221C40134BA600F6182C
:1064E0003368134093421CD01048114F02003B68A0
:1064F000E4009BB2E3181B18188880182A0000F0EB
:1065000021F939680B4B89B264180B4AE4183368D7
:106510002580134030225340084A1343336028003B
:10652000F8BD0025FBE7C046005C0040006000406D
:10653000505C004002600040BF8F0000808000007F
:106540001000C022F8B51C001E4B8D00ED182B6802
:1065500092010F001340934232D01B4ACE001368C1
:106560001A499BB2F3185B181B889B059B0D9C4234
:1065700006D913689BB2F3185B181C88A405A40DF8
:10658000136822009BB2F618114BF6183188114B94
:10659000C91800F0E5F82B680F4A1A40802313430E
:1065A0002B600E4BDB5D002B08D12B680C4A1A4088
:1065B000C0239B0153400B4A13432B602000F8BDBE
:1065C0000024FBE7005C0040505C00400660004097
:1065D00004600040006000400F0F000068050020CC
:1065E0008FBF000080800000F7B5354B04001D68A8
:1065F0001F00AAB201926A0506D5324A1A604023EA
:106600000383FFF7E0F8F7BD2B0420D50F231022FA
:106610001D402D4BAE00F6180199019B134011420D
:106620003AD033680F3A1B0506D5020008233032F2
:106630002900FFF785FF022203236B439B181A33BF
:106640009B001B59002B30D0290020009847019B4C
:106650001B0505D51D4B3B60236A002B00D09847D6
:10666000019BDB0405D51A4B3B60636A002B00D00D
:106670009847019B174D9B0505D5A36A164A3A60BA
:10668000002B19D09847A36A002B15D080232A68C5
:106690009B0013432B60B6E7326810490A40802103
:1066A00009020A4332601A00C6E733680B4A1A40EF
:1066B000802313433360CAE72B68094A1340E9E794
:1066C000445C0040FFFB0000005C0040FFF700005E
:1066D000FFEF0000405C0040FFFD00000F0F0000D6
:1066E000FFFDFFFF05480368002904D0044A134357
:1066F0009BB2036070475B045B0CFAE7585C004098
:106700000080FFFF10B50948FEF75CFF0023084A30
:10671000084913600B60084908480B609C231B0262
:1067200013608022064B12021A6010BD170700008A
:10673000405C0040505C0040445C00406C04002021
:10674000585C00400023F0B54F1CC6189A4200D890
:10675000F0BDFD5CCC5C2D022C4334800233F4E7A9
:106760000123F0B514000600DA401C4018421ED187
:106770000E0013000500002B11D03788013B2F803D
:10678000023602359BB2F6E73B88013D9BB233707F
:106790001B0A73700237ADB20236002DF4D15200DD
:1067A00080188A18002C01D013780370F0BD0F00F8
:1067B0001500F2E7FEE7704710B5164B164A174969
:1067C0008B4218D30021164A934217D38023154ACF
:1067D0009B001168144C0B431360144B9C420FD365
:1067E000134C144B9C420ED3FDF762FE124C134B1C
:1067F0009C420BD310BD01CA01C3E1E702C3E3E72A
:1068000008CC9847E9E708CC9847EAE708CC9847CE
:10681000EDE7C04600000020547100084001002050
:106820008C05002014ED00E054710008547100083C
:106830005471000854710008547100085471000824
:10684000044A43099B009B181F2210401E3A8240B5
:106850001A60704700E100E010B51F2812D90F231D
:1068600018400438C0B28308084A9B001824C000AE
:106870002040E734844081409B181A68A2431143AA
:10688000196010BD8308024A9B00EFE718ED00E095
:1068900000E400E010B5034B0100186800F00EF8AA
:1068A00010BDC046DC000020002310B59A4200D184
:1068B00010BDCC5CC4540133F8E70000F8B50323E5
:1068C000CD1C9D43083506000C2D1FD20C25A94276
:1068D0001ED8300000F06AF825490A681400002C20
:1068E0001AD1244F3B68002B04D12100300000F066
:1068F00043F838602900300000F03EF8431C2BD1EB
:106900000C233000336000F059F803E0002DDEDA8C
:106910000C2333600020F8BD23685B1B19D40B2BBC
:1069200003D92360E418256003E06368A2420ED116
:106930000B60300000F042F8200007220B30231DCE
:106940009043C21A9842E6D01B1AA350E3E7536063
:10695000EFE722006468C2E70323C41C9C43A04203
:10696000E1D0211A300000F007F8431CDBD1C7E763
:106970007005002074050020002370B5064D04004A
:1069800008002B6000F0A4F9431C03D12B68002BF6
:1069900000D0236070BDC0467C0500200023C25C8F
:1069A0000133002AFBD1581E7047000010B5024881
:1069B00000F00CF810BDC0468405002010B5024858
:1069C00000F005F810BDC0468405002070477047F0
:1069D00002B4714649084900095C49008E4402BC72
:1069E0007047C046002243088B4274D303098B4290
:1069F0005FD3030A8B4244D3030B8B4228D3030C8F
:106A00008B420DD3FF22090212BA030C8B4202D330
:106A10001212090265D0030B8B4219D300E0090A58
:106A2000C30B8B4201D3CB03C01A5241830B8B4261
:106A300001D38B03C01A5241430B8B4201D34B034A
:106A4000C01A5241030B8B4201D30B03C01A5241AF
:106A5000C30A8B4201D3CB02C01A5241830A8B4234
:106A600001D38B02C01A5241430A8B4201D34B021D
:106A7000C01A5241030A8B4201D30B02C01A524181
:106A8000CDD2C3098B4201D3CB01C01A5241830935
:106A90008B4201D38B01C01A524143098B4201D36F
:106AA0004B01C01A524103098B4201D30B01C01A9A
:106AB0005241C3088B4201D3CB00C01A5241830814
:106AC0008B4201D38B00C01A524143088B4201D341
:106AD0004B00C01A5241411A00D2014652411046A1
:106AE0007047FFE701B5002000F0F0F802BDC04696
:106AF0000029F7D076E7704703460B437FD4002286
:106B000043088B4274D303098B425FD3030A8B4241
:106B100044D3030B8B4228D3030C8B420DD3FF22AB
:106B2000090212BA030C8B4202D31212090265D079
:106B3000030B8B4219D300E0090AC30B8B4201D32C
:106B4000CB03C01A5241830B8B4201D38B03C01A73
:106B50005241430B8B4201D34B03C01A5241030BEA
:106B60008B4201D30B03C01A5241C30A8B4201D39B
:106B7000CB02C01A5241830A8B4201D38B02C01A46
:106B80005241430A8B4201D34B02C01A5241030ABD
:106B90008B4201D30B02C01A5241CDD2C3098B42A2
:106BA00001D3CB01C01A524183098B4201D38B011F
:106BB000C01A524143098B4201D34B01C01A5241C2
:106BC00003098B4201D30B01C01A5241C3088B4207
:106BD00001D3CB00C01A524183088B4201D38B00F2
:106BE000C01A524143088B4201D34B00C01A524194
:106BF000411A00D201465241104670475DE0CA0F6B
:106C000000D04942031000D34042534000229C462A
:106C100003098B422DD3030A8B4212D3FC22890134
:106C200012BA030A8B420CD3890192118B4208D30A
:106C3000890192118B4204D389013AD0921100E06C
:106C40008909C3098B4201D3CB01C01A5241830980
:106C50008B4201D38B01C01A524143098B4201D3AD
:106C60004B01C01A524103098B4201D30B01C01AD8
:106C70005241C3088B4201D3CB00C01A5241830852
:106C80008B4201D38B00C01A5241D9D243088B42A8
:106C900001D34B00C01A5241411A00D2014663464B
:106CA00052415B10104601D34042002B00D54942AF
:106CB000704763465B1000D3404201B5002000F0EE
:106CC00005F802BD0029F8D016E770477047C046A6
:106CD000044A03001068002802D0C31813607047EC
:106CE0000148FAE7780500208C050020000000002C
:106CF00001B40248844601BC604700BF4100002047
:106D000001B40248844601BC604700BF81000020F6
:106D10004F7574205265706F72742043616C6C62A1
:106D200061636B0A00000000436F6F6C456173651F
:106D300000000000436F6F6C456173652048756209
:106D400000000000313233343500000043757374A5
:106D50006F6D2048494420436F6E666967437573C1
:106D6000746F6D2048494420496E74657266616392
:106D7000650000000902000001010480C8F86D00F0
:106D80000800000012010002000000408304505778
:106D90000002010203010000092111010001221972
:106DA00000000000090400000203000005BC6D00A3
:106DB00008986D0008090000000000000705810325
:106DC0004000010000000000000000070501034032
:106DD0000001000000000000000000000600FF09A4
:106DE00001A1010901150026FF00750895408102E7
:106DF00009019102C0000000000000000100000035
:106E000000000000A46D0008286D0008346D000823
:106E1000446D00084C6D000848756220537461721F
:106E2000740A0000487562204C6F6F700A0A0000F7
:106E30006E6D690A00000000686172642066617509
:106E40006C740A00506C7567676564204F75740A2E
:106E500000000000506C756767656420496E0A0089
:106E600052657365742053657175656E63650A00BC
:106E70004572726F72204144432049535220446549
:106E80006661757420436173650A0000AE450008B1
:106E9000C8450008F44500082C4600084C46000888
:106EA0004D656D204C6F6720454550524F4D204138
:106EB000646472657373206F7574206F6620626FEF
:106EC000756E64730A000000524C0008604C0008A4
:106ED000604C0008604C0008604C0008604C0008E2
:106EE000604C0008604C0008604C0008604C0008D2
:106EF000604C0008604C0008604C0008604C0008C2
:106F0000604C0008604C0008604C0008604C0008B1
:106F1000604C0008604C0008604C0008604C0008A1
:106F2000604C0008604C0008604C0008604C000891
:106F3000604C0008604C0008604C0008604C000881
:106F4000604C0008604C0008604C0008604C000871
:106F5000604C0008604C0008604C0008604C000861
:106F6000604C0008604C0008604C0008604C000851
:106F7000604C0008604C0008604C0008604C000841
:106F8000604C0008604C0008604C0008604C000831
:106F9000604C0008864B0008604C0008604C0008FC
:106FA000604C0008604C0008604C0008604C000811
:106FB000604C0008604C0008604C0008864B0008DC
:106FC000E84B0008864B0008604C0008604C000845
:106FD000604C0008604C0008864B0008604C0008BC
:106FE000604C0008604C0008604C0008604C0008D1
:106FF000864B0008324C0008604C0008604C0008CA
:10700000FC4B0008604C0008864B0008604C0008F0
:10701000604C0008864B000852464D2053504920D2
:10702000577269746500000054657374204D656D76
:1070300020577269746520526561640A0A00000075
:10704000454550524F4D2053746172743A2025309B
:107050003878203A20253038780A000050726F675F
:1070600072616D6D696E673A20253038780A0000CC
:10707000454550524F4D20456E643A2025303878B2
:10708000203A20253038780A0A000000466C6173E7
:10709000682045726173650A00000000466C6173E8
:1070A000682053746172743A2025303878203A2071
:1070B000253038780A25303878203A20253038783D
:1070C0000A00000050726F6772616D6D696E672013
:1070D0002530387820253038780A0000466C6173F6
:1070E0006820456E643A2025303878203A202530D3
:1070F00038780A25303878203A20253038780A0048
:1071000054696D656F757420257320253038580AD1
:1071100000000000525443204953520A000000006E
:107120000567000801620008496200085D63000805
:10713000A16300088164000845640008CD6400086C
:1071400041650008E9650008E566000800000000E8
:04715000000000003B
:1071540044656661756C74205265706F7274204268
:107164007566666572000000000000000000000003
:10717400000000000000000000000000000000000B
:1071840000000000000000000000000000000000FB
:107194000C4A116882239B000B4313600023036095
:1071A400094B1B68DB07FBD4074B1B689B0704D503
:1071B400054B02221A6001207047034B034A1A60F0
:1071C4000020F9E7042002401820024000030200D6
:1071D40010B5104A14688123DB0023431360002395
:1071E4000F2B05D89A00525802600133DBB2F7E73F
:1071F400094B1B68DB07FBD4074B1B689B0704D5B3
:10720400054B02221A60012010BD034B034A1A6089
:107214000020F9E704200240182002400003030084
:1072240068FF1F0068FF1F0068FF1F00E0000020C8
:10723400000000000000000000000000000000004A
:10724400000000000000000000000000000000003A
:10725400000000000000000000000000000000002A
:10726400000000000000000000000000000000001A
:10727400000000000000000000000000000000000A
:1072840000000000000000000000000000000000FA
:04000005080067B9CF
:00000001FF
