:020000040800F2
:10400000002000205D5200081141000821410008F5
:1040100000000000000000000000000000000000A0
:1040200000000000000000000000000059520008DD
:10403000000000000000000059520008595200081A
:104040005752000857520008C14C00085752000848
:10405000575200085752000857520008C548000838
:10406000575200085752000857520008575200088C
:10407000694100085752000857520008575200087B
:10408000575200085752000857520008575200086C
:10409000575200085752000857520008575200085C
:1040A000575200085752000857520008575200084C
:1040B0003141000857520008575200085752000873
:1040C00010B500F0B9F900F0D9FC00F01DFD002397
:1040D00001E0C04601330B4A9342FADD0A49002051
:1040E00000F0B8F90521642000F098FC00F030FCE5
:1040F0000649002000F0AEF9FA20800000F01AFD19
:10410000F6E7C0469F860100685500087455000810
:1041100010B50249002000F09DF9FEE78055000827
:1041200010B50249002000F095F9FEE78855000817
:1041300010B5094C200001F07FF80100074801F09C
:1041400077F8200001F078F8054A1378591C1170AF
:10415000044AD05410BDC04600440040003801401D
:10416000040200200401002070B5002414E0514B2B
:104170001B88651C504A6900885A43439800C3183D
:104180001801C01A800013881903C91A01F040F9F8
:1041900064004A4B1853ECB2012CE8D9002306E026
:1041A00046495800425A520042520133DBB2012BB9
:1041B000F6D9434B1B78042B71D89B00414AD35846
:1041C0009F4600F0CDFC404B18803C4B1A885B8822
:1041D0009A4268D23A4B01221A7064E0374B1A882F
:1041E0005B889A4203D9364B00221A705BE000F0DC
:1041F000B7FC354B1B88C01AFA239B00984252DD4E
:104200002F4B02221A704EE02C4B1A885B889A4280
:1042100007D900F0A5FC2C4B1880294B04221A70FA
:1042200041E000F09DFC284B1B88C01A274B9842A8
:1042300039DD234B03221A702549002000F00AF9CA
:1042400031E01E4B1A885B889A422CD900F088FC1A
:104250001D4B18801A4B00221A701E49002000F0D6
:10426000F9F820E0154B1A885B889A4203D2144B68
:1042700002221A7017E000F073FC134B1B88C01A5F
:10428000FA239B0098420EDD0D4B00221A70124B50
:1042900001321A701149002000F0DCF803E01049E7
:1042A000002000F0D7F80F4801235B42036000F0C4
:1042B0002DFD70BD7800F81F0802002010020020BC
:1042C00014020020DC550008160200201027000010
:1042D00094550008A45500080E020020B0550008AF
:1042E000C05500080024014010B5042000F026FE4F
:1042F000042000F079FE052000F0A0FE002000F070
:1043000093FE002000F078FE002000F081FE0020E7
:1043100000F008FD034B044A1360044A1360044A8A
:10432000136010BD68FF1F0094000020980000205B
:104330009C00002070B5B020C00000F0C1FE2648EF
:1043400000F0BEFE8025AD00A024E4052B00002275
:104350000221200000F041FD8026F60033000022FB
:104360000221200000F039FD2B0000220021200056
:1043700000F053FD2A000421200000F06CFD320003
:104380000421200000F067FD144800F099FE144855
:1043900000F0A4FE134C200000F03BFFE121490295
:1043A000200000F0D9FE0821200000F001FF0021CC
:1043B000200000F00BFF0C21200000F017FF00216F
:1043C000200000F00BFF0021200000F015FF20006E
:1043D00000F01AFF70BDC046810500008E06000087
:1043E0008E0400000038014010B50100074C206821
:1043F000431C236000F092F82268054B9A4200D0DB
:1044000010BD024B034A1A60FAE7C04600000020C4
:10441000000808080004080810B50100014800F071
:10442000FDFE10BD0038014010B50400FFF7DCFFB1
:104430002000FFF7F1FF10BD10B500F03FF8044B6E
:1044400000221A60FFF750FFFFF774FF10BDC0464F
:10445000000000200EB400B582B003AB02CB019384
:1044600002281ED008D800280DD001280FD1019AAB
:104470000E4800F025F90AE0042808D1019A0C48FA
:1044800000F01EF903E0019A094800F019F94021F3
:10449000084800F0DAFE0028F9D002B008BC03B0EA
:1044A0001847019A044800F00BF9F0E71944000896
:1044B0002944000800380140E943000810B5C12034
:1044C000C00000F0FDFD10BD70B504000D000F4BE5
:1044D000C21880231B019A4201D3002070BD00F056
:1044E00037FC0B4A13680B490B40136025600A4BDD
:1044F0001B68DB07FBD4084B1B689B0702D5064BE8
:1045000002221A6000F030FC0120E7E70000F8F713
:1045100004200240FFFEFFFF1820024070B5040097
:104520000D000F4BC21880231B019A4201D30020BB
:1045300070BD00F00DFC0B4A13680B490B40136073
:1045400025700A4B1B68DB07FBD4084B1B689B07D5
:1045500002D5064B02221A6000F006FC0120E7E7B4
:104560000000F8F704200240FFFEFFFF1820024081
:1045700010B50400430602D00024200010BD00F056
:1045800017FC200000F0E0FF040000F019FCF4E745
:1045900070B504000D00830602D00024200070BD19
:1045A00000F006FC2900200000F0D6FF040000F017
:1045B00007FCF3E7010000200A681378303BDBB208
:1045C000092B08D883001B185B00501C086010786A
:1045D000C0183038F0E77047F0B5DE4657464E4613
:1045E0004546E0B589B08046080015009B4612ABF1
:1045F0001B789946002959D003DB00239A460024F2
:1046000011E0484201239A46F9E73031C9B2671CEC
:104610006B4619552900300000F0FAFE002810D032
:104620001F2F0ED83C000600290000F077FFC9B20A
:104630000929EAD93731C9B2E9E730236A46D355A7
:1046400001375F4501D21F2FF7D9102D19D0022D48
:104650001ED0102D23D0022D21D04B46002B08D088
:104660005346002B05D01F2F03D82D236A46D35560
:1046700001373C00002C1AD0013C6B46185DC04746
:10468000F8E71F2FE3D858236A46D3550137E0E7F0
:104690001F2FDED862236A46D3550137D9E71F2F73
:1046A000DBD830236A46D3550137D6E700273800D8
:1046B00009B0F0BCBB46B246A946A046F0BD00001A
:1046C00070B584B0050003910292002404E0A8476D
:1046D0000134039B01330393039B1878002800D116
:1046E00089E02528F3D15A1C03925B78303BDBB27A
:1046F000092B0BD90023039A10780200253AD1B276
:10470000532972D88A003D498A58974603A8FFF773
:1047100051FF0300EFE7782809D058281AD06F28F6
:104720001AD0622801D00A2202E0022200E0102200
:10473000692801D0642811D10299081D02900968E6
:10474000012000902800FFF747FF2418039B013346
:104750000393C1E71022EBE70822E9E70299081D5D
:1047600002900968002000902800FFF735FF241808
:10477000ECE7029B1A1D02921878A8470134039BAC
:1047800001330393A8E7029B1A1D02921E683300AF
:104790008022D20001E001330A001978002902D0FA
:1047A000511E002AF7D13078002803D00136A847DF
:1047B0000134F8E7039B013303938DE7029B1A1D35
:1047C0000292196800230093083310222800FFF793
:1047D00003FF2418039B013303937DE72520A8479B
:1047E0000134039B0133039376E7A8470134039B0D
:1047F0000133039370E7200004B070BDF05500084A
:1048000070B50400A025ED054021280000F0E2FA73
:10481000012000F05BF9A1B2084C200000F086FCFA
:104820000021200000F082FCC4B24021280000F0EA
:10483000CFFA012000F04AF9200070BD0038004096
:10484000F8B505000E00802464420443E4B2A027BA
:10485000FF054021380000F0BDFA012000F036F9D4
:10486000A1B2154C200000F061FCB1B2200000F0B4
:104870005DFC4021380000F0ABFA012000F026F981
:104880002800FFF7BDFF0400122D13D000F070F9CF
:104890002A04324309490A4800F078F9002809D16E
:1048A000B44207D0642000F011F92800FFF7A8FFF8
:1048B0000400EDE7F8BDC04600380040405700084E
:1048C0001027000070B500F017F98024E4002000E4
:1048D00000F022FA200000F01FFA1B4D2E78122063
:1048E000FFF78EFF194C73009B19DB00E318187457
:1048F000FF211220FFF7A4FFFF211220FFF7A0FFE6
:104900001A20FFF77DFF2A7800B253009B18DB00C6
:10491000E318893898821920FFF772FF2B785A0024
:10492000D218D200A4188008A074227C5209012158
:104930004A4001210A40627401330F2213402B7058
:1049400000F0DAF870BDC04698030020180200207D
:1049500070B582B0402000F0C5FC0400224E066015
:10496000224B436022490020FFF774FD214D2B6844
:104970002A0021490020FFF76DFD32001F49002069
:10498000FFF768FD31002800FFF79EFD2B682A0025
:104990001B490020FFF75EFD1A490020FFF75AFD72
:1049A000194D2800FFF7E4FD2B68184E326801927C
:1049B00000962A0016490020FFF74CFD6368226824
:1049C00014490020FFF746FD21002800FFF7E0FD15
:1049D0002B683268019200962A000F490020FFF7E9
:1049E00039FD02B070BDC0467856341234126824C6
:1049F00050570008FC07080868570008845700084B
:104A000098570008B457000880FF000884FF00088A
:104A1000C4570008EC57000804580008F0B5C64613
:104A200000B50500884680267600134C330000222E
:104A30000121200000F0D1F93100200000F0CAF976
:104A40000024444515D280277F000B4E39003000EA
:104A500000F0BEF9A80800F06DF83900300000F051
:104A6000B9F968002818801000F064F80134E4B245
:104A7000E7E780BCB846F0BD0004005010B5104C0C
:104A80000021200000F0E6FA0E4800F019FB20009B
:104A900000F02AFA0021200000F01CFA8021890091
:104AA000200000F00FFA200000F002FA0649200072
:104AB00000F018FA0421200000F0FFF910BDC046F4
:104AC000007C00401F070000FFFF000070B50400DD
:104AD000074800F0EAF90500064B9C4200D91C008B
:104AE000034800F0E2F9401BA042F9D370BDC04674
:104AF000007C0040E8FD000010B5024800F0D5F948
:104B000010BDC046007C004010B5084800F0D8FA3F
:104B1000074C200000F017FB83210901200000F062
:104B200017FB200000F00AFB10BDC0460407000080
:104B30000010004070B50400074800F00BFB0500B2
:104B4000064B9C4200D91C00034800F003FB401BAD
:104B5000A042F9D370BDC04600100040E8FD00003F
:104B600010B5024800F0F6FA80B210BD0010004007
:104B700010B5044B00221A60FFF7BEFF024B1880ED
:104B800010BDC0469C030020A0030020F0B583B0F8
:104B9000060001911500FFF7AFFF0D4C2388C31AE3
:104BA0009BB20C4F3A68944663443B60FFF7A4FF06
:104BB00020803B68B34202D8002003B0F0BD2B0038
:104BC000019A05490020FFF745FC0120F5E7C046A2
:104BD000A00300209C03002028580008F8B5802678
:104BE0007600364C330000220321200000F0F5F857
:104BF0003100200000F0ECF88023A025ED059B009B
:104C000001220021280000F0E8F88027FF003B0087
:104C100000220121280000F0E0F83900280000F00F
:104C2000D7F8012300220321280000F0D6F88023C2
:104C3000DB0100220321200000F0CFF880239B013C
:104C400002220021200000F0C8F880231B0202226B
:104C50000021200000F0C1F840230122002128009B
:104C600000F0BBF8102301220021280000F0B5F865
:104C70003B0000220321200000F0AFF880231B013D
:104C800000220321200000F0A8F8330000220321B5
:104C9000280000F0A2F8022300220321200000F0E7
:104CA0009CF8042300220321200000F096F8012341
:104CB00000220321200000F090F8F8BD000400500D
:104CC00010B58020400300F027F8FFF7B5FB0D4931
:104CD0000020FFF7BFFB0C4B1B685B0500D410BD29
:104CE00000F008F900F00AFA00F016FA00F01EF9D8
:104CF00000F014F900F00AFA00F006F9FFF76EFF71
:104D0000EDE7C0463C5800080C28004004238268A8
:104D10001343836070470000014B18607047C04622
:104D2000140401400121034A13688B4303431360B9
:104D30007047C04600200240024B034A1A60034AF3
:104D40001A60704714200240C8D9EAFB27262524A0
:104D5000024B034A1A60034A1A6070470C20024053
:104D6000EFCDAB89050403020123024A11680B430E
:104D70001360704704200240024B034A1A60034A42
:104D80001A60704710200240BFAE9D8C1615141398
:104D90000223024A11680B4313607047042002404B
:104DA0000423024A11680B43136070470420024039
:104DB00010B5FFF7CDFFFFF7DFFFFFF7BDFF10BD19
:104DC00010B5FFF7EDFFFFF7E3FFFFF7CDFF10BDD5
:104DD00081617047090481617047F0B585B0019128
:104DE00003270021029203930268C368039C0125F4
:104DF0000C412C420AD03D004C00A540019EAA4324
:104E0000AB43029DA640A54032432B4301311029FC
:104E1000ECD10260C36005B0F0BDF7B50192012985
:104E200016D1416819430024012603274160816897
:104E30001D002541354206D03A006500AA40914345
:104E4000019AAA4011430134102CF1D18160F7BDC1
:104E500041689943E7E7F7B5002301260F27046A65
:104E60000091416A0192019D1D41354206D03A00F0
:104E70009D00AA409443009AAA4014430133082B92
:104E8000F1D101260F27019A1A41324207D03A0088
:104E90009D00203DAA409143009AAA40114301334E
:104EA000102BF0D104624162F7BDC06980B2704737
:104EB0000123026913430361704703690B430361D4
:104EC00070470000C368024A13400B43C360704739
:104ED000FFF1FFFFC368024A13400B43C3607047F2
:104EE000FFFFF1FF816170470122C3689343C360F4
:104EF000704700008023034A5B0011680B43136076
:104F00007047C04600700040024A034913680B40D6
:104F10001360704700700040FFFEFFFF0823024A45
:104F200011680B4313607047007000400423024A6D
:104F300011680B43136070470070004000B50628ED
:104F40000BD800F05BFA041015190B1B1D00802311
:104F50000C4A5B0411680B43136000BD094A8023AF
:104F600011685B00F7E78023064A5B021168F2E7ED
:104F7000054A01231168EEE7024AFAE7034AEEE721
:104F8000024AF6E7001002400810024050100240AA
:104F9000002300B506280AD8013300F02FFA040ACE
:104FA000120E161A1C000D4A1068400E034018001D
:104FB00000BD0A4A1068400CF8E7084A10688008EB
:104FC000F4E7074A10684008F0E7044A1068400A0E
:104FD000ECE7044AFAE7034AF4E7C046001002404F
:104FE000081002405010024010B504002000FFF7E6
:104FF000CFFF0028FAD010BD034A0449136800020D
:105000000B401843106070470C100240FFF8FFFF80
:10501000034A04491368C0020B40184310607047EC
:105020000C100240FFC7FFFFF021034A0001136884
:105030008B431843106070470C100240034A044928
:10504000136840030B40184310607047041002407F
:10505000FF1FFFFF134B0A0010B598421CD00BD85E
:10506000114B98421AD011490C2388420BD0104999
:105070000A3B884207D010BD0E4B984210D00E4B11
:105080009842F8D10023032098409A400B4C2168A5
:10509000814311432160EEE71023F4E70A23F2E78E
:1050A0001223F0E700780040004800400054004020
:1050B00000440040007C0040003801404C10024099
:1050C000054B4209D2181F2318401E3B834011682C
:1050D0000B4313607047C04600100240064A430964
:1050E0009B181F2210401E3A824019681143196014
:1050F000196891431960704700100240CA22024BA0
:105100001A60773A1A60704724280040FF22014B4A
:105110001A60704724280040024A034913680B4074
:10512000136070470C280040FFFBFFFF0123C160A4
:1051300082681A42FCD0C06880B2704701230268BE
:105140001343036070470122036893430360704771
:1051500081627047406A7047104B70B505000C00C3
:105160004E08984207D10E4B18682100301800F005
:105170004FF9E86010E00B4B18680B4B9D42F4D1DF
:1051800000F0CCF9050008028019210000F040F978
:105190002D02064B4019186070BDC0460038014012
:1051A0009C00002098000020004800400C4800406F
:1051B000082904D10368044A134003607047802320
:1051C00002685B011343F8E7FFEFFFFF4368024A01
:1051D00013400B4343607047FFCFFFFF0368024A51
:1051E00013400B4303607047FFF9FFFF0C22036875
:1051F00093430B43036070478368024A13400B4399
:1052000083607047FFFCFFFF0123026813430360C4
:1052100070470122036893430360704770B50D0027
:10522000040000F00DF82900200000F001F870BD26
:10523000C905C90D81627047406AC005C00D70473D
:105240008023C2691A42FCD07047C0690840411EE1
:105250008841C0B27047FEE77047000010B5164B9A
:10526000164A17498B4218D30021164A934217D386
:105270008023154A9B001168144C0B431360144B98
:105280009C420FD3134C144B9C420ED3FEF718FFD5
:10529000124C134B9C420BD310BD01CA01C3E1E772
:1052A00002C3E3E708CC9847E9E708CC9847EAE768
:1052B00008CC9847EDE7C046000000204858000899
:1052C00004010020C003002014ED00E0485800084D
:1052D000485800084858000848580008485800082E
:1052E0004858000810B5034B0100186800F004F896
:1052F00010BDC046A0000020F8B50323CD1C9D437F
:10530000083506000C2D1FD20C25A9421ED83000EE
:1053100000F062F825490A681400002C1AD1244FC5
:105320003B68002B04D12100300000F043F83860C6
:105330002900300000F03EF8431C2BD10C23300034
:10534000336000F051F803E0002DDEDA0C23336007
:105350000020F8BD23685B1B19D40B2B03D92360F5
:10536000E418256003E06368A2420ED10B603000B0
:1053700000F03AF8200007220B30231D9043C21A98
:105380009842E6D01B1AA350E3E75360EFE72200F0
:105390006468C2E70323C41C9C43A042E1D0211AE5
:1053A000300000F007F8431CDBD1C7E7A40300205E
:1053B000A8030020002370B5064D040008002B60F0
:1053C00000F0B2F8431C03D12B68002B00D02360FF
:1053D00070BDC046B003002010B5024800F00CF8C4
:1053E00010BDC046B803002010B5024800F005F813
:1053F00010BDC046B80300207047704702B4714624
:1054000049084900095C49008E4402BC7047C04607
:10541000002243088B4274D303098B425FD3030AF3
:105420008B4244D3030B8B4228D3030C8B420DD306
:10543000FF22090212BA030C8B4202D31212090294
:1054400065D0030B8B4219D300E0090AC30B8B42D2
:1054500001D3CB03C01A5241830B8B4201D38B0380
:10546000C01A5241430B8B4201D34B03C01A524125
:10547000030B8B4201D30B03C01A5241C30A8B4268
:1054800001D3CB02C01A5241830A8B4201D38B0253
:10549000C01A5241430A8B4201D34B02C01A5241F7
:1054A000030A8B4201D30B02C01A5241CDD2C30969
:1054B0008B4201D3CB01C01A524183098B4201D3E5
:1054C0008B01C01A524143098B4201D34B01C01AD0
:1054D000524103098B4201D30B01C01A5241C30848
:1054E0008B4201D3CB00C01A524183088B4201D3B7
:1054F0008B00C01A524143088B4201D34B00C01AA3
:105500005241411A00D20146524110467047FFE70E
:1055100001B5002000F006F802BDC0460029F7D012
:1055200076E770477047C046044A030010680028B9
:1055300002D0C318136070470148FAE7AC0300209B
:10554000C00300200000000001B40248844601BCF2
:10555000604700BF0500002001B40248844601BC3A
:10556000604700BF45000020487562205374617297
:10557000740A0000487562204C6F6F700A0A0000C0
:105580006E6D690A000000006861726420666175D2
:105590006C740A00506C7567676564204F75740AF7
:1055A00000000000506C756767656420496E0A0052
:1055B00052657365742053657175656E63650A0085
:1055C0004572726F72204144432049535220446512
:1055D0006661757420436173650A0000C24100086A
:1055E000DC4100080842000842420008644200080A
:1055F000DC470008EA470008EA470008EA470008D5
:10560000EA470008EA470008EA470008EA470008B6
:10561000EA470008EA470008EA470008EA470008A6
:10562000EA470008EA470008EA470008EA47000896
:10563000EA470008EA470008EA470008EA47000886
:10564000EA470008EA470008EA470008EA47000876
:10565000EA470008EA470008EA470008EA47000866
:10566000EA470008EA470008EA470008EA47000856
:10567000EA470008EA470008EA470008EA47000846
:10568000EA470008EA470008EA470008EA47000836
:10569000EA470008EA470008EA470008EA47000826
:1056A000EA470008EA470008EA470008EA47000816
:1056B000EA470008EA470008EA47000816470008DA
:1056C000EA470008EA470008EA470008EA470008F6
:1056D000EA470008EA470008EA470008EA470008E6
:1056E000EA470008164700087247000816470008F6
:1056F000EA470008EA470008EA470008EA470008C6
:1057000016470008EA470008EA470008EA47000889
:10571000EA470008EA47000816470008BC470008A7
:10572000EA470008EA47000886470008EA470008F9
:1057300016470008EA470008EA470008164700082D
:1057400052464D205350492057726974650000003D
:1057500054657374204D656D2057726974652052CD
:105760006561640A0A000000454550524F4D2053C0
:10577000746172743A2025303878203A2025303808
:10578000780A000050726F6772616D6D696E673ADA
:1057900020253038780A0000454550524F4D2045AD
:1057A0006E643A2025303878203A20253038780A3F
:1057B0000A000000466C6173682045726173650AD7
:1057C00000000000466C6173682053746172743A83
:1057D0002025303878203A20253038780A2530388E
:1057E00078203A20253038780A00000050726F6720
:1057F00072616D6D696E67202530387820253038EC
:10580000780A0000466C61736820456E643A202572
:10581000303878203A20253038780A2530387820FA
:105820003A20253038780A0054696D656F75742008
:10583000257320253038580A0000000052544320B8
:085840004953520A0000000068
:10584800000408080C4A116882239B000B4313606C
:1058580000230360094B1B68DB07FBD4074B1B685D
:105868009B0704D5054B02221A6001207047034BA1
:10587800034A1A600020F9E7042002401820024079
:105888000003020010B5104A14688123DB0023438B
:10589800136000230F2B05D89A0052580260013379
:1058A800DBB2F7E7094B1B68DB07FBD4074B1B6828
:1058B8009B0704D5054B02221A60012010BD034B3B
:1058C800034A1A600020F9E7042002401820024029
:1058D8000003030068FF1F0068FF1F0068FF1F0028
:1058E800A4000020000000000000000000000000EC
:1058F80000000000000000000000000000000000A0
:10590800000000000000000000000000000000008F
:10591800000000000000000000000000000000007F
:10592800000000000000000000000000000000006F
:10593800000000000000000000000000000000005F
:04594800000000005B
:040000050800525D40
:00000001FF
