:020000040800F2
:100000000020002045100008411000083F100008A3
:1000100000000000000000000000000000000000E0
:100020000000000000000000000000004110000877
:10003000000000000000000041100008411000080E
:100040003F1000083F100008190B00083F1000087F
:100050003F1000083F1000083F1000084908000842
:100060003F1000083F1000083F1000083F10000834
:10007000350100083F1000083F1000083F1000083D
:100080003F1000083F1000083F1000083F10000814
:100090003F1000083F1000083F1000083F10000804
:1000A0003F1000083F1000083F1000083F100008F4
:1000B000FD0000083F1000083F1000083F10000836
:1000C00010B500F0C7F900F005FC00F049FC084944
:1000D000002000F0CDF9074800F004F9064900209F
:1000E00000F0C6F9FA20800000F050FCF6E7C046A8
:1000F000F8110008004000081012000810B5094C63
:10010000200000F08DFF0100074800F085FF20006F
:1001100000F086FF054A1378591C1170044AD05428
:1001200010BDC046004400400038014010010020CE
:100130001000002070B5002414E0514B1B88651C92
:10014000504A6900885A43439800C3181801C01ADE
:10015000800013881903C91A00F0C2FF64004A4BDB
:100160001853ECB2012CE8D9002306E046495800A8
:10017000425A520042520133DBB2012BF6D9434BB3
:100180001B78042B71D89B00414AD3589F4600F03E
:1001900013FC404B18803C4B1A885B889A4268D20B
:1001A0003A4B01221A7064E0374B1A885B889A42F6
:1001B00003D9364B00221A705BE000F0FDFB354B93
:1001C0001B88C01AFA239B00984252DD2F4B022253
:1001D0001A704EE02C4B1A885B889A4207D900F0BF
:1001E000EBFB2C4B1880294B04221A7041E000F0E5
:1001F000E3FB284B1B88C01A274B984239DD234B61
:1002000003221A702549002000F032F931E01E4B1C
:100210001A885B889A422CD900F0CEFB1D4B1880BF
:100220001A4B00221A701E49002000F021F920E02C
:10023000154B1A885B889A4203D2144B02221A701B
:1002400017E000F0B9FB134B1B88C01AFA239B0080
:1002500098420EDD0D4B00221A70124B01321A70BB
:100260001149002000F004F903E01049002000F0DB
:10027000FFF80F4801235B42036000F073FC70BD80
:100280007800F81F140100201C010020200100202C
:100290007012000822010020102700002812000818
:1002A000381200081A0100204412000854120008F5
:1002B000002401400749012252420A6000230B60DA
:1002C00005490A600B6005490A600B6004490A6031
:1002D0000B6070472010024024100240281002409A
:1002E0001C10024010B572B6054B1860036883F30A
:1002F00008884468FFF7DEFF62B6A047FEE7C04605
:1003000008ED00E010B5042000F00CFD042000F022
:100310005FFD052000F086FD002000F079FD002043
:1003200000F05EFD002000F067FD002000F026FCDC
:10033000034B044A1360044A1360044A136010BD5F
:1003400068FF1F0004000020080000200C000020AF
:1003500070B5B020C00000F0A7FD264800F0A4FD55
:100360008025AD00A024E4052B00002202212000FE
:1003700000F027FC8026F600330000220221200036
:1003800000F01FFC2B0000220021200000F039FCAF
:100390002A000421200000F052FC32000421200039
:1003A00000F04DFC144800F07FFD144800F08AFD79
:1003B000134C200000F021FEE1214902200000F052
:1003C000BFFD0821200000F0E7FD0021200000F023
:1003D000F1FD0C21200000F0FDFD0021200000F0C7
:1003E000F1FD0021200000F0FBFD200000F000FEE8
:1003F00070BDC046810500008E0600008E0400001E
:100400000038014010B50100074C2068431C2360F0
:1004100000F068F82268054B9A4200D010BD024BEC
:10042000034A1A60FAE7C0460000002000080808E6
:100430000004080810B50100014800F0E3FD10BDFC
:100440000038014010B50400FFF7DCFF2000FFF783
:10045000F1FF10BD10B500F03FF8044B00221A6008
:10046000FFF750FFFFF774FF10BDC04600000020EB
:100470000EB400B582B003AB02CB019302281ED0AC
:1004800008D800280DD001280FD1019A0E4800F09D
:10049000D9F80AE0042808D1019A0C4800F0D2F8F3
:1004A00003E0019A094800F0CDF84021084800F027
:1004B000C0FD0028F9D002B008BC03B01847019A6B
:1004C000044800F0BFF8F0E73504000845040008D0
:1004D000003801400504000810B5C120C00000F03C
:1004E000E3FC10BD70B504000D000F4BC218802353
:1004F0001B019A4201D3002070BD00F049FB0B4A5A
:1005000013680B490B40136025700A4B1B68DB070F
:10051000FBD4084B1B689B0702D5064B02221A60CE
:1005200000F042FB0120E7E70000F8F7042002405A
:10053000FFFEFFFF18200240010000200A68137828
:10054000303BDBB2092B08D883001B185B00501C22
:1005500008601078C0183038F0E77047F0B5DE4614
:1005600057464E464546E0B589B08046080015001E
:100570009B4612AB1B789946002959D003DB002318
:100580009A46002411E0484201239A46F9E73031A7
:10059000C9B2671C6B4619552900300000F0A0FD58
:1005A000002810D01F2F0ED83C000600290000F0B4
:1005B0001DFEC9B20929EAD93731C9B2E9E73023AA
:1005C0006A46D35501375F4501D21F2FF7D9102D49
:1005D00019D0022D1ED0102D23D0022D21D04B4634
:1005E000002B08D05346002B05D01F2F03D82D23F6
:1005F0006A46D35501373C00002C1AD0013C6B46AB
:10060000185DC047F8E71F2FE3D858236A46D35533
:100610000137E0E71F2FDED862236A46D355013742
:10062000D9E71F2FDBD830236A46D3550137D6E7E9
:100630000027380009B0F0BCBB46B246A946A04628
:10064000F0BD000070B584B0050003910292002453
:1006500004E0A8470134039B01330393039B1878FC
:10066000002800D189E02528F3D15A1C03925B7839
:10067000303BDBB2092B0BD90023039A1078020020
:10068000253AD1B2532972D88A003D498A589746F3
:1006900003A8FFF751FF0300EFE7782809D0582897
:1006A0001AD06F281AD0622801D00A2202E0022252
:1006B00000E01022692801D0642811D10299081D98
:1006C00002900968012000902800FFF747FF2418D6
:1006D000039B01330393C1E71022EBE70822E9E70C
:1006E0000299081D02900968002000902800FFF779
:1006F00035FF2418ECE7029B1A1D02921878A847D0
:100700000134039B01330393A8E7029B1A1D029255
:100710001E6833008022D20001E001330A001978FC
:10072000002902D0511E002AF7D13078002803D0CA
:100730000136A8470134F8E7039B013303938DE7A3
:10074000029B1A1D0292196800230093083310229D
:100750002800FFF703FF2418039B013303937DE771
:100760002520A8470134039B0133039376E7A8476C
:100770000134039B0133039370E7200004B070BD84
:100780008412000870B50400A025ED054021280062
:1007900000F014FA012000F0C5F8A1B2084C2000C6
:1007A00000F0B8FB0021200000F0B4FBC4B24021EF
:1007B000280000F001FA012000F0B4F8200070BD1C
:1007C00000380040F8B505000E0080246442044360
:1007D000E4B2A027FF054021380000F0EFF9012026
:1007E00000F0A0F8A1B2154C200000F093FBB1B2CC
:1007F000200000F08FFB4021380000F0DDF90120DF
:1008000000F090F82800FFF7BDFF0400122D13D070
:1008100000F0DAF82A04324309490A4800F0E2F805
:10082000002809D1B44207D0642000F07BF82800EA
:10083000FFF7A8FF0400EDE7F8BDC0460038004010
:10084000D41300081027000070B500F081F8802450
:10085000E400200000F08CF9200000F089F91B4D25
:100860002E781220FFF78EFF194C73009B19DB00C6
:10087000E3181874FF211220FFF7A4FFFF211220B4
:10088000FFF7A0FF1A20FFF77DFF2A7800B2530080
:100890009B18DB00E318893898821920FFF772FF54
:1008A0002B785A00D218D200A4188008A074227C99
:1008B000520901214A4001210A40627401330F228A
:1008C00013402B7000F044F870BDC046A402002015
:1008D0002401002010B5104C0021200000F0AEFAD9
:1008E0000E4800F0E1FA200000F0F2F900212000AB
:1008F00000F0E4F980218900200000F0D7F9200001
:1009000000F0CAF90649200000F0E0F904212000B7
:1009100000F0C7F910BDC046007C00401F07000072
:10092000FFFF000070B50400074800F0B2F90500B1
:10093000064B9C4200D91C00034800F0AAF9401B5A
:10094000A042F9D370BDC046007C0040E8FD000025
:1009500010B5024800F09DF910BDC046007C004073
:1009600010B5084800F0A0FA074C200000F0DFFAAC
:1009700083210901200000F0DFFA200000F0D2FA04
:1009800010BDC046040700000010004070B5040010
:10099000074800F0D3FA0500064B9C4200D91C0022
:1009A000034800F0CBFA401BA042F9D370BDC0460B
:1009B00000100040E8FD000010B5024800F0BEFA4B
:1009C00080B210BD0010004010B5044B00221A6028
:1009D000FFF7BEFF024B188010BDC046A8020020E2
:1009E000AC020020F0B583B0060001911500FFF7BE
:1009F000AFFF0D4C2388C31A9BB20C4F3A68944644
:100A000063443B60FFF7A4FF20803B68B34202D8F9
:100A1000002003B0F0BD2B00019A05490020FFF72C
:100A200027FD0120F5E7C046AC020020A802002007
:100A3000E4130008F8B580267600364C3300002217
:100A40000321200000F0BDF83100200000F0B4F8D0
:100A50008023A025ED059B0001220021280000F045
:100A6000B0F88027FF003B0000220121280000F0A1
:100A7000A8F83900280000F09FF801230022032184
:100A8000280000F09EF88023DB01002203212000D3
:100A900000F097F880239B0102220021200000F043
:100AA00090F880231B0202220021200000F089F828
:100AB000402301220021280000F083F810230122A6
:100AC0000021280000F07DF83B00002203212000D7
:100AD00000F077F880231B0100220321200000F0A2
:100AE00070F8330000220321280000F06AF8022386
:100AF00000220321200000F064F8042300220321D7
:100B0000200000F05EF8012300220321200000F005
:100B100058F8F8BD0004005010B58020400300F0E4
:100B200027F8FFF797FC0D490020FFF7A1FC0C4BBD
:100B30001B685B0500D410BD00F0D0F800F0D2F9BE
:100B400000F0DEF900F0E6F800F0DCF800F0D2F991
:100B500000F0CEF8FFF76EFFEDE7C046F81300088F
:100B60000C28004004238268134383607047000010
:100B7000014B18607047C046140401400121034A2C
:100B800013688B43034313607047C0460020024044
:100B9000024B034A1A60034A1A6070470C20024055
:100BA000EFCDAB89050403020123024A11680B4310
:100BB000136070470420024081617047090481611D
:100BC0007047F0B585B0019103270021029203938D
:100BD0000268C368039C01250C412C420AD03D00E9
:100BE0004C00A540019EAA43AB43029DA640A540F0
:100BF00032432B4301311029ECD10260C36005B0B0
:100C0000F0BDF7B50192012916D1416819430024BE
:100C100001260327416081681D002541354206D029
:100C20003A006500AA409143019AAA401143013459
:100C3000102CF1D18160F7BD41689943E7E7F7B522
:100C4000002301260F27046A0091416A0192019D49
:100C50001D41354206D03A009D00AA409443009AB7
:100C6000AA4014430133082BF1D101260F27019A22
:100C70001A41324207D03A009D00203DAA409143DC
:100C8000009AAA4011430133102BF0D10462416253
:100C9000F7BDC06980B27047012302691343036145
:100CA000704703690B43036170470000C368024A41
:100CB00013400B43C3607047FFF1FFFFC368024A54
:100CC00013400B43C3607047FFFFF1FF8161704722
:100CD0000122C3689343C360704700008023034A26
:100CE0005B0011680B4313607047C0460070004002
:100CF000024A034913680B401360704700700040BC
:100D0000FFFEFFFF0823024A11680B431360704780
:100D1000007000400423024A11680B4313607047BF
:100D20000070004000B506280BD800F0CFF9041081
:100D300015190B1B1D0080230C4A5B0411680B4323
:100D4000136000BD094A802311685B00F7E7802328
:100D5000064A5B021168F2E7054A01231168EEE7D3
:100D6000024AFAE7034AEEE7024AF6E700100240B9
:100D70000810024050100240002300B506280AD88F
:100D8000013300F0A3F9040A120E161A1C000D4AD2
:100D90001068400E0340180000BD0A4A1068400C5D
:100DA000F8E7084A10688008F4E7074A1068400826
:100DB000F0E7044A1068400AECE7044AFAE7034AFD
:100DC000F4E7C046001002400810024050100240F4
:100DD00010B504002000FFF7CFFF0028FAD010BDA7
:100DE000034A0449136800020B401843106070471F
:100DF0000C100240FFF8FFFF034A04491368C002C9
:100E00000B401843106070470C100240FFC7FFFFF3
:100E1000F021034A000113688B43184310607047A8
:100E20000C100240034A0449136840030B40184366
:100E30001060704704100240FF1FFFFF134B0A00B1
:100E400010B598421CD00BD8114B98421AD01149BA
:100E50000C2388420BD010490A3B884207D010BDB2
:100E60000E4B984210D00E4B9842F8D1002303202D
:100E700098409A400B4C2168814311432160EEE772
:100E80001023F4E70A23F2E71223F0E7007800408A
:100E9000004800400054004000440040007C0040F6
:100EA000003801404C100240054B4209D2181F2364
:100EB00018401E3B834011680B4313607047C046C7
:100EC00000100240064A43099B181F2210401E3A98
:100ED000824019681143196019689143196070477D
:100EE00000100240CA22024B1A60773A1A6070471B
:100EF00024280040FF22014B1A607047242800403C
:100F0000024A034913680B40136070470C280040E5
:100F1000FFFBFFFF0123C16082681A42FCD0C0685A
:100F200080B27047012302681343036070470122B7
:100F3000036893430360704781627047406A70475B
:100F4000104B70B505000C004E08984207D10E4BAF
:100F500018682100301800F0C3F8E86010E00B4B6F
:100F600018680B4B9D42F4D100F040F905000802CF
:100F70008019210000F0B4F82D02064B40191860CA
:100F800070BDC046003801400C0000200800002061
:100F9000004800400C480040082904D10368044A76
:100FA000134003607047802302685B011343F8E736
:100FB000FFEFFFFF4368024A13400B434360704753
:100FC000FFCFFFFF0368024A13400B4303607047E3
:100FD000FFF9FFFF0C22036893430B430360704744
:100FE0008368024A13400B4383607047FFFCFFFF96
:100FF000012302681343036070470122036893438F
:101000000360704770B50D00040000F00DF8290072
:10101000200000F001F870BDC905C90D816270475C
:10102000406AC005C00D70478023C2691A42FCD0D7
:101030007047C0690840411E8841C0B27047FEE752
:101040007047000010B5164B164A17498B4218D34B
:101050000021164A934217D38023154A9B0011683A
:10106000144C0B431360144B9C420FD3134C144B82
:101070009C420ED3FFF724F8124C134B9C420BD327
:1010800010BD01CA01C3E1E702C3E3E708CC9847FA
:10109000E9E708CC9847EAE708CC9847EDE7C0466F
:1010A000000000200414000810000020B0020020FE
:1010B00014ED00E0041400080414000804140008EF
:1010C00004140008041400080414000802B4714653
:1010D00049084900095C49008E4402BC7047C0467B
:1010E000002243088B4274D303098B425FD3030A67
:1010F0008B4244D3030B8B4228D3030C8B420DD37A
:10110000FF22090212BA030C8B4202D31212090207
:1011100065D0030B8B4219D300E0090AC30B8B4245
:1011200001D3CB03C01A5241830B8B4201D38B03F3
:10113000C01A5241430B8B4201D34B03C01A524198
:10114000030B8B4201D30B03C01A5241C30A8B42DB
:1011500001D3CB02C01A5241830A8B4201D38B02C6
:10116000C01A5241430A8B4201D34B02C01A52416A
:10117000030A8B4201D30B02C01A5241CDD2C309DC
:101180008B4201D3CB01C01A524183098B4201D358
:101190008B01C01A524143098B4201D34B01C01A43
:1011A000524103098B4201D30B01C01A5241C308BB
:1011B0008B4201D3CB00C01A524183088B4201D32A
:1011C0008B00C01A524143088B4201D34B00C01A16
:1011D0005241411A00D20146524110467047FFE782
:1011E00001B5002000F006F802BDC0460029F7D086
:1011F00076E770477047C04648756220426F6F744B
:101200006C6F616465722053746172740A0000002F
:1012100048756220426F6F746C6F61646572204C18
:101220006F6F700A0A000000506C75676765642074
:101230004F75740A00000000506C75676765642084
:10124000496E0A0052657365742053657175656E49
:1012500063650A004572726F72204144432049530E
:10126000522044656661757420436173650A00000D
:101270008E010008A8010008D40100080E02000831
:1012800030020008600700086E0700086E070008BB
:101290006E0700086E0700086E0700086E0700085A
:1012A0006E0700086E0700086E0700086E0700084A
:1012B0006E0700086E0700086E0700086E0700083A
:1012C0006E0700086E0700086E0700086E0700082A
:1012D0006E0700086E0700086E0700086E0700081A
:1012E0006E0700086E0700086E0700086E0700080A
:1012F0006E0700086E0700086E0700086E070008FA
:101300006E0700086E0700086E0700086E070008E9
:101310006E0700086E0700086E0700086E070008D9
:101320006E0700086E0700086E0700086E070008C9
:101330006E0700086E0700086E0700086E070008B9
:101340006E0700086E0700086E0700086E070008A9
:101350009A0600086E0700086E0700086E0700086E
:101360006E0700086E0700086E0700086E07000889
:101370006E0700086E0700089A060008F6060008C7
:101380009A0600086E0700086E0700086E0700083E
:101390006E0700089A0600086E0700086E0700082E
:1013A0006E0700086E0700086E0700089A0600081E
:1013B000400700086E0700086E0700080A070008CB
:1013C0006E0700089A0600086E0700086E070008FE
:1013D0009A06000852464D205350492057726974AE
:1013E0006500000054696D656F75742025732025B4
:1013F0003038580A00000000525443204953520A22
:0414000000000000E8
:101404000004080868FF1F0068FF1F0068FF1F0032
:04000005080010459A
:00000001FF
