:020000040800F2
:1000000000200020152500081325000811250008F0
:1000100000000000000000000000000000000000E0
:100020000000000000000000000000001325000890
:100030000000000000000000132500081325000840
:100040001125000811250008D90E00081125000807
:10005000112500081125000811250008390C000899
:100060001125000811250008112500081125000898
:100070007505000811250008112500081125000844
:100080001125000811250008112500081125000878
:100090001125000811250008112500081125000868
:1000A0001125000811250008112500081125000858
:1000B0003D0500081125000811250008B5030008BA
:1000C00010B5042001F00CF8042001F08DF8052093
:1000D00001F0E4F8002001F0D7F8002001F0BCF8AE
:1000E000002001F0C5F8002000F026FF034B044A71
:1000F0001360044A1360044A136010BD68FF1F00B8
:10010000400000204400002048000020087881289A
:1001100010D1487806280FD18878C97809020143A0
:1001200088208001814209D10549116019221A8075
:10013000012000E0002070470020FCE70020FAE7E3
:10014000E029000810B582B004000D4B0093402355
:100150000322812101F0DCF90A4B009340230322A2
:100160000121200001F0D4F9074B7F22012120005A
:1001700001F0C9FA054B01221A7002B010BDC04649
:10018000E5010008910100080D0100084E00002063
:10019000F0B587B005000E006A460F4B140083CB04
:1001A00083C403CB03C41B78237040233100280091
:1001B00001F0CEF9094C402322003100280001F063
:1001C000CEF92378012B01D007B0F0BD044B0222F9
:1001D0001A7000F05FFBF7E710290008000000200C
:1001E0004E00002070B505000E00124B1B78022B4C
:1001F0001DD070BD00F054FB0F4B18550134A4B254
:100200003F2CF7D90D4C23884033238040230A4AE2
:100210003100280001F09CF900F05AFB2388984235
:10022000E7D80023034A1370044A1380E1E700244F
:10023000E6E7C0464E000020000000204C000020F1
:1002400010B5002000F078FE032000F049FF0320E5
:1002500000F0CAFF032000F0D9FF1F4A1168802375
:100260001B020B431360002001F00EF8002000F089
:10027000F3FF002000F0FCFF184B194A1360194AE5
:100280001360194A1360D020C00001F049F8174AE2
:10029000136801210B431360144B1B685B00FBD5F3
:1002A000124A116880239B010B4313600F4B1B689C
:1002B0005B01FBD5022000F013FF022000F094FF49
:1002C0000B4801F02DF80B4801F02AF800F094FFDC
:1002D000042000F02FFF10BD0C1002400024F40099
:1002E0004000002044000020480000202000014081
:1002F000170700001B07000010B584B0FFF7A0FF30
:100300000023134A1370134A012111601360124A2B
:10031000136080330293114B019304230093104B1D
:10032000104A1149114801F0C7F8114C20601149D9
:1003300001F0ECF82068104901F07AFD1F2002F06E
:100340002DF900211F2002F035F904B010BDC04680
:100350004E000020405C0040445C00405000002003
:100360000C2A00087829000888290008742C000845
:10037000D0000020A10300084501000800B583B0AB
:100380006B46DA1D1070044B18680123812101F0BF
:10039000DFF803B000BDC046D00000207047000069
:1003A00010B5034B00221A70FFF7F8FF10BDC046CE
:1003B0004E00002070B5434800F054FA424B1B68D1
:1003C0001A04150C52012ED41A0436D42B0508D564
:1003D0003D4B3E4A1A603E4B1B681B6A002B00D007
:1003E0009847EB0408D5384B3A4A1A60384B1B68DB
:1003F0005B6A002B00D09847AB0508D5324B364AD4
:100400001A60334B1B689B6A002B00D09847304B17
:100410001B689B6A002B4FD0304A116880239B00D9
:100420000B43136070BD284B2D4A1A60284B186887
:100430004023038301F075F8F4E70F241C40EB061A
:1004400012D5A300274A944663441B681B0501D4B8
:10045000012116E01E4B18680200303208232100EB
:1004600001F01CFF02210CE0A1001E4B9C466144E0
:100470000B681BB21C4A1A401C4B13439BB20B6007
:100480000021134A106863001B195B181A339B0084
:100490001B58002B02D02100984797E7A300114A70
:1004A000944663441A6812B20F490A4080210A43F5
:1004B00012B292B21A6089E7084A13680C490B40DD
:1004C0001360AFE728290008445C0040FFF70000F4
:1004D000D0000020FFEF0000FFFD0000405C004066
:1004E000FFFB0000005C00400F0F00000080FFFFDA
:1004F000FFFDFFFF10B5FFF7E3FD00F095F900F0F9
:10050000E1FB00F025FC0A4800F076F9002405E044
:100510002100084800F070F90134A4B2092CF7D981
:10052000054800F09FF9FFF7E7FEC046FDE7C0462B
:100530001C2A00082C2A0008382A000810B5094C8B
:10054000200000F0A9FF0100074800F0A1FF2000F3
:1005500000F0A2FF054A1378591C1170044AD054C8
:1005600010BDC0460044004000380140D4010020C6
:10057000D400002070B5002414E04F4B1B88651C8C
:100580004E4A6900885A43439800C3181801C01A9C
:10059000800013881903C91A02F044F86400484B1C
:1005A0001853ECB2012CE8D9002306E04449580066
:1005B000425A520042520133DBB2012BF6D9414B71
:1005C0001B78042B6ED89B003F4AD3589F4600F0FF
:1005D000D5FB3E4B18803A4B1A885B889A4264D20E
:1005E000384B01221A7060E0354B1A885B889A42BA
:1005F00003D9344B00221A7057E000F0BFFB334B95
:100600001B88C01AFA239B0098424EDD2D4B022214
:100610001A704AE02A4B1A885B889A4207D900F080
:10062000ADFB2A4B1880274B04221A703DE000F0E6
:10063000A5FB264B1B88C01A254B984235DD214B64
:1006400003221A70234800F0D7F82EE01C4B1A88BA
:100650005B889A4229D900F091FB1C4B1880194BFA
:1006600000221A701C4800F0C7F81EE0144B1A88CC
:100670005B889A4203D2134B02221A7015E000F0F5
:100680007DFB124B1B88C01AFA239B0098420CDD9D
:100690000C4B00221A70114B01321A70104800F0F6
:1006A000ABF802E00F4800F0A7F80F4801235B42C7
:1006B000036000F035FC70BD7800F81FD801002001
:1006C000E0010020E4010020982A0008E601002053
:1006D00010270000502A0008602A0008DE010020D0
:1006E0006C2A00087C2A00080024014070B5B02064
:1006F000C00000F015FE264800F012FE8025AD0077
:10070000A024E4052B0000220221200000F037FC89
:100710008026F600330000220221200000F02FFC8A
:100720002B0000220021200000F049FC2A000421B7
:10073000200000F062FC32000421200000F05DFC8B
:10074000144800F0EDFD144800F0F8FD134C2000B3
:1007500000F08FFEE1214902200000F02DFE08216B
:10076000200000F055FE0021200000F05FFE0C216B
:10077000200000F06BFE0021200000F05FFE002151
:10078000200000F069FE200000F06EFE70BDC04643
:10079000810500008E0600008E0400000038014034
:1007A00010B50100064C6088064B9C46604400F082
:1007B00095F8638801339B059B0D638010BDC0468F
:1007C000E80100200001080810B50100014800F010
:1007D00055FE10BD0038014010B5FFF7CFFD10BD2C
:1007E00010B50400FFF7DCFF2000FFF7EDFF20004D
:1007F000FFF7F2FF10BD00000FB400B583B004AAEC
:1008000002CA0192064800F011F94021054800F0A3
:100810004CFE0028F9D003B008BC04B01847C0460D
:10082000E10700080038014010B50B4B8022D200D0
:100830001A8000225A809A800848FFF7DDFFFFF7F0
:100840005BFDFFF753FF0023054A934202DCC046DD
:100850000133F9E710BDC046E8010020AC2A0008CA
:100860009F8601000FB400B583B004AA02CA0192AA
:10087000064800F0DBF84021054800F016FE00288D
:10088000F9D003B008BC04B01847C046C907000837
:1008900000380140014B5A889A807047E8010020D7
:1008A00010B5094CA0880130218802F02BF889B2DC
:1008B000A1806388994205D0044B9C466144087826
:1008C000C0B210BD0020FCE7E801002000010808CC
:1008D000014B18887047C046E801002070B504003D
:1008E0000D00114BC21880231B019A4216D200F052
:1008F0002DFB0E4A13680E490B40136025700D4BFB
:100900001B68DB07FBD40B4B1B689B0702D5094B0D
:1009100002221A6000F026FB012070BD0648FFF796
:10092000A1FF0020F9E7C0460000F8F704200240CC
:10093000FFFEFFFF18200240CC2A00080100002023
:100940000A681378303BDBB2092B08D883001B18E8
:100950005B00501C08601078C0183038F0E7704712
:10096000F0B5D6464F464646C0B588B080460C0026
:1009700015009A4610AB1B78994600260EE03031E0
:10098000C9B2771C6B4699552900200001F04AFE38
:10099000AC4211D31F2F0FD83E00040029002000C5
:1009A00001F0C6FEC9B20929E9D93731C9B2E8E771
:1009B00030236A46D3550137574501D21F2FF7D947
:1009C000102D16D0022D1BD0102D20D0022D1ED0A0
:1009D0004B46002B05D01F2F03D82D236A46D35535
:1009E00001373C00002C19D0013C6B46185DC04714
:1009F000F8E71F2FE6D858236A46D3550137E3E7B7
:100A00001F2FE1D862236A46D3550137DCE71F2F39
:100A1000DED830236A46D3550137D9E7380008B00D
:100A2000E0BCBA46B146A846F0BD000070B584B03F
:100A3000050003910292002404E0A8470134039BBF
:100A400001330393039B1878002800D18CE02528FC
:100A5000F3D15A1C03925B78303BDBB2092B0BD9E4
:100A60000023039A10780200253AD1B2532975D891
:100A70008A003F498A58974603A8FFF75FFF0300A3
:100A8000EFE7782809D058281DD06F281DD062289C
:100A900001D00A2202E0022200E01022692801D0DF
:100AA000642814D10299081D02900868C61781199C
:100AB0007140C00F00902800FFF752FF2418039BDD
:100AC00001330393BEE71022E8E70822E6E7029924
:100AD000081D02900968002000902800FFF740FFE1
:100AE0002418ECE7029B1A1D02921878A8470134DB
:100AF000039B01330393A5E7029B1A1D02921E6814
:100B000033008022D20001E001330A001978002965
:100B100002D0511E002AF7D13078002803D00136C8
:100B2000A8470134F8E7039B013303938AE7029B4C
:100B30001A1D02921968002300930833102228001E
:100B4000FFF70EFF2418039B013303937AE7252058
:100B5000A8470134039B0133039373E7A84701348B
:100B6000039B013303936DE7200004B070BDC046C2
:100B7000F42A000870B50400A025ED0540212800E6
:100B800000F0FAF9012000F0C5F8A1B2084C2000ED
:100B900000F0FCFB0021200000F0F8FBC4B2402173
:100BA000280000F0E7F9012000F0B4F8200070BD43
:100BB00000380040F8B505000E008024644204436C
:100BC000E4B2A027FF054021380000F0D5F901204C
:100BD00000F0A0F8A1B2154C200000F0D7FBB1B294
:100BE000200000F0D3FB4021380000F0C3F90120C1
:100BF00000F090F82800FFF7BDFF0400122D13D07D
:100C000000F0C4F82A04324309490A4800F0CCF83D
:100C1000002809D1B44207D0642000F07BF82800F6
:100C2000FFF7A8FF0400EDE7F8BDC046003800401C
:100C3000442C00081027000070B500F081F88024D3
:100C4000E400200000F072F9200000F06FF91B4D65
:100C50002E781220FFF78EFF194C73009B19DB00D2
:100C6000E3181874FF211220FFF7A4FFFF211220C0
:100C7000FFF7A0FF1A20FFF77DFF2A7800B253008C
:100C80009B18DB00E318893898821920FFF772FF60
:100C90002B785A00D218D200A4188008A074227CA5
:100CA000520901214A4001210A40627401330F2296
:100CB00013402B7000F044F870BDC0467403002050
:100CC000F401002010B5104C0021200000F0F2FAD1
:100CD0000E4800F025FB200000F0D8F9002120008C
:100CE00000F0CAF980218900200000F0BDF9200041
:100CF00000F0B0F90649200000F0C6F904212000F8
:100D000000F0ADF910BDC046007C00401F07000098
:100D1000FFFF000070B50400074800F098F90500D7
:100D2000064B9C4200D91C00034800F090F9401B80
:100D3000A042F9D370BDC046007C0040E8FD000031
:100D400010B5024800F083F910BDC046007C004099
:100D500010B5084800F0E4FA074C200000F023FB2F
:100D600083210901200000F023FB200000F016FB86
:100D700010BDC046040700000010004010B5024836
:100D800000F018FB80B210BD0010004010B5044BFD
:100D900000221A60FFF7D4FF024B188010BDC04636
:100DA000780300207C030020F0B583B00600019199
:100DB0001500FFF7C5FF0C4C2388C31A9BB20B4FDD
:100DC0003A68944663443B60FFF7BAFF20803B6873
:100DD000B34202D8002003B0F0BD2A0001990448B4
:100DE000FFF70AFD0120F6E77C03002078030020CE
:100DF000542C0008F8B580267600364C33000022CB
:100E00000321200000F0BBF83100200000F0B2F810
:100E10008023A025ED059B0001220021280000F081
:100E2000AEF88027FF003B0000220121280000F0DF
:100E3000A6F83900280000F09DF8012300220321C4
:100E4000280000F09CF88023DB0100220321200011
:100E500000F095F880239B0102220021200000F081
:100E60008EF880231B0202220021200000F087F868
:100E7000402301220021280000F081F810230122E4
:100E80000021280000F07BF83B0000220321200015
:100E900000F075F880231B0100220321200000F0E0
:100EA0006EF8330000220321280000F068F80223C6
:100EB00000220321200000F062F804230022032115
:100EC000200000F05CF8012300220321200000F044
:100ED00056F8F8BD0004005010B58020400300F023
:100EE00025F8FFF7A1FC0C48FFF786FC0B4B1B68AD
:100EF0005B0500D410BD00F0CFF800F02FFA00F031
:100F00003BFA00F0E5F800F0DBF800F02FFA00F013
:100F1000CDF8FFF76FFFEDE7682C00080C280040C4
:100F2000042382681343836070470000014B1860FC
:100F30007047C046140401400121034A13688B43E3
:100F4000034313607047C04600200240024B034A2F
:100F50001A60034A1A6070470C200240EFCDAB893B
:100F6000050403020123024A11680B431360704712
:100F70000420024081617047090481617047F0B527
:100F800085B0019103270021029203930268C36890
:100F9000039C01250C412C420AD03D004C00A54089
:100FA000019EAA43AB43029DA640A54032432B437A
:100FB00001311029ECD10260C36005B0F0BDF7B576
:100FC0000192012916D14168194300240126032703
:100FD000416081681D002541354206D03A00650018
:100FE000AA409143019AAA4011430134102CF1D137
:100FF0008160F7BD41689943E7E7F7B50023012613
:101000000F27046A0091416A0192019D1D413542FA
:1010100006D03A009D00AA409443009AAA40144387
:101020000133082BF1D101260F27019A1A413242D0
:1010300007D03A009D00203DAA409143009AAA4063
:1010400011430133102BF0D104624162F7BDC06936
:1010500080B270470123026913430361704703693B
:101060000B43036170470000C368024A13400B43FF
:10107000C3607047FFF1FFFFC368024A13400B4390
:10108000C3607047FFFFF1FF816170470122C368B1
:101090009343C360704700008023034A5B001168DC
:1010A0000B4313607047C04600700040024A03497A
:1010B00013680B401360704700700040FFFEFFFF95
:1010C0000823024A11680B43136070470070004008
:1010D0000423024A11680B431360704700700040FC
:1010E00000B506280BD801F093FA041015190B1B54
:1010F0001D0080230C4A5B0411680B43136000BD84
:10110000094A802311685B00F7E78023064A5B02E7
:101110001168F2E7054A01231168EEE7024AFAE78F
:10112000034AEEE7024AF6E70010024008100240C8
:101130005010024000B506280AD801F069FA040EE2
:1011400012170A191B000C4A0C4913680B40136054
:1011500000BD094A13680A49F8E7074A09491368B4
:10116000F4E7094A012113688B43F0E7024AF9E7E3
:10117000064AEFE7054AF5E700100240FFFFFFFED1
:10118000FFFEFFFFFFFFFEFF08100240501002406D
:10119000002300B506280AD8013301F039FA040A01
:1011A000120E161A1C000D4A1068400E034018005B
:1011B00000BD0A4A1068400CF8E7084A1068800829
:1011C000F4E7074A10684008F0E7044A1068400A4C
:1011D000ECE7044AFAE7034AF4E7C046001002408D
:1011E000081002405010024010B504002000FFF724
:1011F000CFFF0028FAD010BD8023034ADB0411681A
:101200000B4313607047C0464C10024000B50428E1
:1012100012D801F0FDF903091112190003230D4A38
:1012200011680B43136007E003220A490B689343DC
:101230001A00022313430B6000BD032205490B680B
:1012400093431A000123F5E70321024A13688B43F5
:10125000E8E7C0460C100240034A04491368000244
:101260000B401843106070470C100240FFF8FFFF5E
:10127000034A04491368C0020B40184310607047CA
:101280000C100240FFC7FFFFF021034A0001136862
:101290008B431843106070470C100240034A044906
:1012A000136840030B40184310607047041002405D
:1012B000FF1FFFFF134B0A0010B598421CD00BD83C
:1012C000114B98421AD011490C2388420BD0104977
:1012D0000A3B884207D010BD0E4B984210D00E4BEF
:1012E0009842F8D10023032098409A400B4C216883
:1012F000814311432160EEE71023F4E70A23F2E76C
:101300001223F0E7007800400048004000540040FD
:1013100000440040007C0040003801404C10024076
:10132000054B4209D2181F2318401E3B8340116809
:101330000B4313607047C04600100240064A430941
:101340009B181F2210401E3A8240196811431960F1
:10135000196891431960704700100240CA22024B7D
:101360001A60773A1A60704724280040FF22014B28
:101370001A60704724280040024A034913680B4052
:10138000136070470C280040FFFBFFFF0123C16082
:1013900082681A42FCD0C06880B27047012302689C
:1013A000134303607047012203689343036070474F
:1013B00081627047406A7047104B70B505000C00A1
:1013C0004E08984207D10E4B18682100301801F0E2
:1013D00029F9E86010E00B4B18680B4B9D42F4D1E3
:1013E00001F0A6F9050008028019210001F01AF9A0
:1013F0002D02064B4019186070BDC04600380140F0
:101400004800002044000020004800400C480040F4
:10141000082904D10368044A1340036070478023FD
:1014200002685B011343F8E7FFEFFFFF4368024ADE
:1014300013400B4343607047FFCFFFFF0368024A2E
:1014400013400B4303607047FFF9FFFF0C22036852
:1014500093430B43036070478368024A13400B4376
:1014600083607047FFFCFFFF0123026813430360A2
:1014700070470122036893430360704770B50D0005
:10148000040000F00DF82900200000F001F870BD04
:10149000C905C90D81627047406AC005C00D70471B
:1014A0008023C2691A42FCD07047C0690840411EBF
:1014B0008841C0B270470000F7B51D000AAB1B8819
:1014C0001600019303680F00040098470300DC3303
:1014D0001C60089B0200C360099BC8320361019B2A
:1014E00007608382064B46600367064B8560C366D0
:1014F000054B83660023136053609360D360FEBD89
:1015000037170008A117000823180008C1617047A9
:1015100037B50400069DDC3424680095A468A04714
:1015200037BD37B5002504000368C582DB792A0082
:1015300029000095FFF7ECFF2300DC331B6829002E
:101540005B6820009847E369AB4200D0984737BDFD
:1015500010B50400DC342468E469A04710BD10B560
:101560000400DC342468246AA04710BD030010B5D1
:10157000DC331B681B69984710BD030010B5DC33D2
:101580001B689B69984710BD030010B5DC331B68CE
:101590005B69984710BD70B5050003680400D979F0
:1015A000838F826B2C3599420ED20B000021FFF7FE
:1015B000CFFF02232B702368D979A36B5A18A38F0E
:1015C000A2635B1AA38770BD0021FFF7C1FF220051
:1015D0004432137859424B4102332B70002313706D
:1015E000A387A363EFE70300F0B5050004000E0036
:1015F00087B06833483505932B6827009C46230045
:101600003833049363463C370397002B07D13100EE
:101610002000039B049A00F085FC07B0F0BD3178F0
:101620006B792A790B409A4204D0059B08359D427C
:10163000E2D1ECE7230040330093310020006746FD
:10164000039B049AB8470128EFD8E6E710B50122BA
:1016500004000021FFF78AFF00232C34237010BD03
:1016600070B50368828FC58EDB790400AD1A9D4288
:1016700000DD1D00A36BAEB29A18002133002000DC
:10168000FFF76DFF864205D02000FFF7DFFF012046
:10169000404270BDA38FA8B2F618A687F9E770B5CF
:1016A000036904008363CB798A791B021343838720
:1016B0000D00FFF798FF002821D0EB79AA791B02D3
:1016C000134313D02268A08FD1790022834206D918
:1016D000904204D001F016F94A424A41D2B22300A6
:1016E000443320001A70FFF756FF70BD1A0019002E
:1016F0002000FFF72DFF04232C342370F5E7200092
:10170000FFF7A4FFF1E7F0B5070004000025483714
:10171000EE00B859002805D00135042DF8D101207C
:101720004042F0BDA41925004C35297021004D31EF
:101730000A70A364F5E770B50025040001222900B2
:1017400005640600FFF720FF230036331A780133C3
:101750001B7830361B021343AB4204D1310020000A
:10176000FFF79DFF70BD32787F2AF7D8A28A9A4290
:1017700003D22000FFF76AFFF4E729002269A5875A
:10178000A26322682000D2799A42694122000B00AC
:101790002C320533137029002A00FFF7F5FEE1E72C
:1017A00070B505002C352B780400062B11D0072BC3
:1017B00026D0052B21D1FFF753FF002808DBA28F8D
:1017C000E38E9B1A2268D279934201DC06232B70A8
:1017D00070BDFFF745FF0028FADB21002000303103
:1017E000FFF701FF002807D0002320001A0019008E
:1017F000FFF7AEFE0423EAE72000FFF727FFE7E745
:1018000000231A001900FFF7AAFE00232B70236C97
:10181000002B03D02100200030319847002323649F
:10182000D6E770B505002C352B780400032B06D0C5
:10183000042B0BD0022B21D1FFF7ADFE70BD072387
:1018400000222B701100FFF79FFEF7E70600036CE4
:101850003036002B01D0310098473378002B0AD165
:101860007378052B07D1230032331978AA331B680C
:1018700020005B68984700232B70DFE7FFF7E6FE48
:10188000DCE710B50C78002C14D1CB788A781B02D9
:1018900013437F2B0CD883750300DC331B680134A2
:1018A0001A0030321278002A02D089785B68984793
:1018B000200010BD0024FBE7F8B5CA788B7812022F
:1018C00004000D001A4310D003680D26587C002335
:1018D000984201D80020F8BD310059436768791853
:1018E0004979914203D00133F2E701235B4201338E
:1018F000DBB2E375002B0CD123002600DC331B6820
:101900002000DB68C83698473368002B1CD10120C3
:10191000E1E70D22534362680D3BD3180022160005
:1019200019799142E8D9987A597A00020843D97A0C
:1019300009040843197B0906014310014158002995
:1019400000D00E700132EBE700232700A36423656B
:10195000A3652366D8373368002B05D0E978AA78C9
:1019600009022000114398470436B742F3D1CEE76D
:10197000198810B5012901D901211980C17D146888
:10198000002908D00D22514343685B180D3B5B7959
:101990002370012010BD2170FBE770B50D24C57DBB
:1019A00040686C430D3C04194D79087926792D0265
:1019B00005430020AE4217D901301880A37A607A1F
:1019C0001B020343E07A00040343207B0C790006EA
:1019D00018434B791B0223431B011B58191E00D0CF
:1019E000197801201368197070BD1988022901D96E
:1019F000022119800023116801200B7012685370B6
:101A0000704710B514001A88022A01D902221A80E0
:101A10000979FFF7B2FD431E984100222368187030
:101A2000236801205A7010BD10B501220979FFF713
:101A30009DFD012010BD10B500220979FFF796FD2C
:101A4000012010BD70B50D261D00C37D4C795E438D
:101A500043680D3E9E190B7924021C433379002202
:101A6000A3422BD9B27A737A12021A43F37A240171
:101A70001B041A43337B1B0613431B19CC788A784B
:101A80001E79240214430022A64217D91A68002A9C
:101A900012D014700300D8331B68002B08D0CA780A
:101AA0008C78120222430C79497909022143984724
:101AB000002301222B8001E0002CEBD0100070BD30
:101AC000F0B58FB005931400CA788B7812021343D7
:101AD0000600120A022A13D0032A00D152E1002084
:101AE000012A0BD1336819782360059B1A880B1CD7
:101AF000914200D9131C059A138001200FB0F0BD4C
:101B00000269DBB222600692059A14880D225343C3
:101B10004268D118D35C04911F1CA34200D9271C32
:101B2000BBB21A0004990698039300F061FD039A72
:101B3000069B9446A41A63440293A3B20193049BA8
:101B40001A780CABDA8000230793049B1A796B4652
:101B50009B8B9A420AD806980CAB0222991D023040
:101B600000F046FD059B039A1A80C6E7079B049A7E
:101B70001B010B93049B927A5B7A12021A43049B1B
:101B8000DB7A1B041A43049B1B7B1B0613430B9A33
:101B90009B189C68002C1DD02378019A1F1C93422F
:101BA00001D96B469F88BFB23A002100029800F02D
:101BB0001FFD029BDB190293019BDB1B9BB2019370
:101BC000039BFF18BBB203930CAB9A1D11882378BB
:101BD0005B1813800023049A0893049B927A5B7A23
:101BE00012021A43049BDB7A1B041A43049B1B7BDF
:101BF0001B0613430B9A9B186A461979128C914263
:101C000002D8079B01339FE7DA68152308994B43F5
:101C1000D418D35C019A1F1C934201D96B469F884C
:101C2000BFB23A002100029800F0E2FC029B267845
:101C3000DB190293019BDB1B9BB20193039BFF18F3
:101C4000BBB203930CABDA88B618B6B2DE80A37BC6
:101C5000617B1B020B43E17B09040B43217C0906DA
:101C6000194324D0A37C657C1B022B43E57C2D0407
:101C70002B43257D2D061D43019B9D4200DD1D004C
:101C8000AFB23A00029800F0B3FC029BDB1902935A
:101C9000019BDB1B9BB20193039BDF19BBB2039338
:101CA000A37C627C1B0213439E190CABDE800023D5
:101CB00009936B4622799B8C9A4202D8089B013388
:101CC00089E7A27A637A12021A43E37A09991B041C
:101CD0001A43237B1B0613430F224A439D189B5C28
:101CE000019A1F1C934201D96B469F88BFB23A00EC
:101CF0002900029800F07CFC029B0CAADB190293DD
:101D0000019BD188DB1B9BB20193039BFF18BBB2E5
:101D100003932B785B189BB20A93D3802B7AE979D3
:101D20001B020B43697A09040B43A97A090619437C
:101D300025D02B7BEE7A1B0233436E7B3604334374
:101D4000AE7B36061E43019B9E4200DD1E00B7B2ED
:101D50003A00029800F04CFC029BDB190293019BB5
:101D6000DB1B9BB20193039BDF19BBB203932B7B5D
:101D7000EA7A1B0213430A9A9B180CAAD380099B88
:101D8000013395E7DBB20569002B10D10933AB7045
:101D9000053BEB70059A2B7011880A1C994200D9FB
:101DA0001A1C059B1A8003236B702560A5E68768C3
:101DB000013B381E00D1A1E6F26800209A4200DC07
:101DC0009CE64A79087913491202024300208A42AC
:101DD00000D093E69B00DE59300000F012FC013089
:101DE0004000059BC0B228701A88131C824200D99B
:101DF000031C059A13800023059A12885208013AA1
:101E00009A42D0DDF15C5A00AA189170002101338A
:101E1000D170F1E7090400001988022901D90221D3
:101E200019800023116801200B70126853707047ED
:101E300010B5040002000023C83498002058002880
:101E400007D0884209D00133042BF6D1012040424B
:101E500010BD32339B009950FAE70020F8E70000EC
:101E600070B505004878092812D800F0D1FB0D1193
:101E70001111110F0B110905064C2800A04770BD68
:101E8000054CFAE7054CF8E7054CF6E7054CF4E796
:101E90000020F4E7B918000871190008C11A0008F9
:101EA000EB1900088318000870B54C7805000A2C5F
:101EB00008D00B2C08D00020844202D1034C28000B
:101EC000A04770BD024CFAE7024CF8E7191E000863
:101ED0009B190008451A000870B5050048780128CC
:101EE00005D003280CD0002813D0002070BDC8787E
:101EF0008C7800022043084CF7D12800A047F5E772
:101F0000CC7888782402044300208442EED1034C2C
:101F1000F3E7034CF1E7C046371A0008291A000816
:101F2000031A000870B50D7860262C003440354245
:101F300012D1413E3540012D08D0022D09D0002D8F
:101F400002D1FFF78DFF0400200070BDFFF7ACFF4A
:101F5000F9E7FFF7C1FFF6E70024F5E7802319430F
:101F6000014B19607047C0464C5C00403E2A10D9B6
:101F70002023013A9205D20E500120301A43074B1C
:101F8000C9001B6892029BB2C918054BC9180A8088
:101F9000704701325208500080B2F0E7505C0040B8
:101FA00006600040F0B50500374885B00290C020BB
:101FB0007F26C00403900E403448B40024182068E3
:101FC000334F52003840304380B220602768314898
:101FD000384002AFD25B304F104380B24AB220602B
:101FE00094462E48002A22DB002E20D00068F20002
:101FF00080B212182A48298B1218118028001A0062
:102000003100FFF7B3FF0A9B002B36D12368254A26
:10201000134023602368244A1A40C0239B01534085
:102020003B439BB223602B8BC018288323E00268BC
:10203000298B92B20191F10089181C4A8918019AE2
:102040000A800A9A002A04D00C2272430A99AA181C
:102050009166226816490A4022602268154911409B
:1020600020224A403A4392B222602A8B9A182A834D
:102070006246002ABADA05B0F0BD0C235E430A9B23
:10208000AE19F366C2E7C04600020004005C0040DF
:10209000808FFFFF8F89FFFF8080FFFF505C004033
:1020A000046000408FCF00008FBF00000060004040
:1020B000CF8F0000BF8F000070B50B4A0B4E0C494C
:1020C0000C4D0D4C136833400B439BB213601368E7
:1020D0002B400B439BB208C2A242F3D10368DB79C9
:1020E00020335B00038370BD045C0040BF8FFFFFA3
:1020F0008080FFFF8FBFFFFF205C004030B522488B
:10210000002926D1214C224D23681D401023002A8E
:1021100000D1DB186B401BB203439BB223601B4B07
:102120008900C918002A03D10B681A4C23400B60A0
:102130000C68194B1C4013005A1E93415A42C0238D
:1021400052039B01D218624012B2024392B20A605B
:1021500019E04BB2002BE2DA7F2319400B4B8900C8
:10216000C9180B680A4C1C401023002A00D1DB1848
:1021700063401BB2184380B20860002A03D10B6889
:10218000064A13400B6030BD8080FFFF005C0040BA
:10219000BF8F00008FCF00008FBF0000CF8F0000E7
:1021A0004BB2002B0CDA7F2319400A4B8900C91867
:1021B000302308681840103843425841C0B2704775
:1021C000044B8900C918C02308689B011840024BC2
:1021D000C018F1E7005C004000F0FFFF4BB210B503
:1021E000002B11DB0C4B0D4C5A540D4B89000D4844
:1021F000C918002A09D080230A689B01224092B2A4
:10220000534003439BB20B6010BDC0220B68920188
:1022100023409BB2F4E7C0467C0400208FBFFFFF41
:10222000005C00408080FFFFF8B50C001D007F239C
:10223000110030221C40134BA600F61833681340DF
:1022400093421CD01048114F02003B68E4009BB23F
:10225000E3181B18188880182A0000F021F9396843
:102260000B4B89B264180B4AE4183368258013407D
:1022700030225340084A134333602800F8BD00253C
:10228000FBE7C046005C004000600040505C00403E
:1022900002600040BF8F0000808000001000C0225C
:1022A000F8B51C001E4B8D00ED182B6892010F0035
:1022B0001340934232D01B4ACE0013681A499BB296
:1022C000F3185B181B889B059B0D9C4206D913686D
:1022D0009BB2F3185B181C88A405A40D1368220098
:1022E0009BB2F618114BF6183188114BC91800F043
:1022F000E5F82B680F4A1A40802313432B600E4BDE
:10230000DB5D002B08D12B680C4A1A40C0239B01CF
:1023100053400B4A13432B602000F8BD0024FBE719
:10232000005C0040505C00400660004004600040DB
:10233000006000400F0F00007C0400208FBF0000F1
:1023400080800000F7B5354B04001D681F00AAB25D
:1023500001926A0506D5324A1A6040230383FFF7CB
:10236000E0F8F7BD2B0420D50F2310221D402D4B84
:10237000AE00F6180199019B134011423AD0336820
:102380000F3A1B0506D50200082330322900FFF75B
:1023900085FF022203236B439B181A339B001B59B2
:1023A000002B30D0290020009847019B1B0505D544
:1023B0001D4B3B60236A002B00D09847019BDB0438
:1023C00005D51A4B3B60636A002B00D09847019BF0
:1023D000174D9B0505D5A36A164A3A60002B19D004
:1023E0009847A36A002B15D080232A689B001343CB
:1023F0002B60B6E7326810490A40802109020A437F
:1024000032601A00C6E733680B4A1A408023134330
:102410003360CAE72B68094A1340E9E7445C00408F
:10242000FFFB0000005C0040FFF70000FFEF000032
:10243000405C0040FFFD00000F0F0000FFFDFFFFAC
:1024400005480368002904D0044A13439BB2036083
:1024500070475B045B0CFAE7585C00400080FFFFAC
:1024600010B50948FEF75CFF0023084A08491360CD
:102470000B60084908480B609C231B0213608022F4
:10248000064B12021A6010BD17070000405C0040A6
:10249000505C0040445C004080030020585C0040D9
:1024A0000023F0B54F1CC6189A4200D8F0BDFD5C61
:1024B000CC5C2D022C4334800233F4E70123F0B5C9
:1024C00014000600DA401C4018421ED10E00130012
:1024D0000500002B11D03788013B2F8002360235D2
:1024E0009BB2F6E73B88013D9BB233701B0A7370C9
:1024F0000237ADB20236002DF4D1520080188A188E
:10250000002C01D013780370F0BD0F001500F2E726
:10251000FEE7704710B5164B164A17498B4218D381
:102520000021164A934217D38023154A9B00116855
:10253000144C0B431360144B9C420FD3134C144B9D
:102540009C420ED3FDF7D6FF124C134B9C420BD38B
:1025500010BD01CA01C3E1E702C3E3E708CC984715
:10256000E9E708CC9847EAE708CC9847EDE7C0468A
:1025700000000020A82C00084C000020840400204B
:1025800014ED00E0A82C0008A82C0008A82C0008D6
:10259000A82C0008A82C0008A82C0008044A43090D
:1025A0009B009B181F2210401E3A82401A60704701
:1025B00000E100E010B51F2812D90F23184004389D
:1025C000C0B28308084A9B001824C0002040E734AA
:1025D000844081409B181A68A2431143196010BDC2
:1025E0008308024A9B00EFE718ED00E000E400E0FA
:1025F000002310B59A4200D110BDCC5CC454013305
:10260000F8E70023C25C0133002AFBD1581E704753
:1026100002B4714649084900095C49008E4402BC75
:102620007047C046002243088B4274D303098B4293
:102630005FD3030A8B4244D3030B8B4228D3030C92
:102640008B420DD3FF22090212BA030C8B4202D334
:102650001212090265D0030B8B4219D300E0090A5C
:10266000C30B8B4201D3CB03C01A5241830B8B4265
:1026700001D38B03C01A5241430B8B4201D34B034E
:10268000C01A5241030B8B4201D30B03C01A5241B3
:10269000C30A8B4201D3CB02C01A5241830A8B4238
:1026A00001D38B02C01A5241430A8B4201D34B0221
:1026B000C01A5241030A8B4201D30B02C01A524185
:1026C000CDD2C3098B4201D3CB01C01A5241830939
:1026D0008B4201D38B01C01A524143098B4201D373
:1026E0004B01C01A524103098B4201D30B01C01A9E
:1026F0005241C3088B4201D3CB00C01A5241830818
:102700008B4201D38B00C01A524143088B4201D344
:102710004B00C01A5241411A00D2014652411046A4
:102720007047FFE701B5002000F0F0F802BDC04699
:102730000029F7D076E7704703460B437FD4002289
:1027400043088B4274D303098B425FD3030A8B4245
:1027500044D3030B8B4228D3030C8B420DD3FF22AF
:10276000090212BA030C8B4202D31212090265D07D
:10277000030B8B4219D300E0090AC30B8B4201D330
:10278000CB03C01A5241830B8B4201D38B03C01A77
:102790005241430B8B4201D34B03C01A5241030BEE
:1027A0008B4201D30B03C01A5241C30A8B4201D39F
:1027B000CB02C01A5241830A8B4201D38B02C01A4A
:1027C0005241430A8B4201D34B02C01A5241030AC1
:1027D0008B4201D30B02C01A5241CDD2C3098B42A6
:1027E00001D3CB01C01A524183098B4201D38B0123
:1027F000C01A524143098B4201D34B01C01A5241C6
:1028000003098B4201D30B01C01A5241C3088B420A
:1028100001D3CB00C01A524183088B4201D38B00F5
:10282000C01A524143088B4201D34B00C01A524197
:10283000411A00D201465241104670475DE0CA0F6E
:1028400000D04942031000D34042534000229C462E
:1028500003098B422DD3030A8B4212D3FC22890138
:1028600012BA030A8B420CD3890192118B4208D30E
:10287000890192118B4204D389013AD0921100E070
:102880008909C3098B4201D3CB01C01A5241830984
:102890008B4201D38B01C01A524143098B4201D3B1
:1028A0004B01C01A524103098B4201D30B01C01ADC
:1028B0005241C3088B4201D3CB00C01A5241830856
:1028C0008B4201D38B00C01A5241D9D243088B42AC
:1028D00001D34B00C01A5241411A00D2014663464F
:1028E00052415B10104601D34042002B00D54942B3
:1028F000704763465B1000D3404201B5002000F0F2
:1029000005F802BD0029F8D016E770477047C046A9
:102910004F7574205265706F72742043616C6C62E5
:1029200061636B0A0000000049000000436F6F6C98
:102930004561736500000000436F6F6C456173650E
:102940002048756200000000313233343500000049
:10295000437573746F6D2048494420436F6E6669F8
:1029600067437573746F6D2048494420496E7465E0
:1029700072666163650000000902000001010480C5
:10298000C8FC2900080000001201000200000040FD
:1029900083045057000201020301000009211101C4
:1029A00000012219000000000904000002030000D9
:1029B00005C02900089C290008090000000000004B
:1029C000070581034000010000000000000000072F
:1029D00005010340000100000000000000000000AD
:1029E0000600FF0901A1010901150026FF00750875
:1029F0009540810209019102C00000000000000022
:102A00000100000000000000A82900082C2900088F
:102A10003829000848290008502900084875622014
:102A2000426C2053746172740A0000005465737420
:102A30002025690A0000000048756220426F6F740B
:102A40006C6F6164657220526561647900000000FA
:102A5000506C7567676564204F75740A000000004C
:102A6000506C756767656420496E0A00526573652E
:102A7000742053657175656E63650A004572726FE7
:102A80007220414443204953522044656661757465
:102A900020436173650A0000CE050008E8050008C0
:102AA000140600084C0600086C0600080A0A4C6F61
:102AB0006720496E69740A2D2D2D2D2D2D2D2D2D5C
:102AC0002D2D2D2D2D2D2D0A000000004D656D2082
:102AD0004C6F6720454550524F4D204164647265EC
:102AE0007373206F7574206F6620626F756E6473E8
:102AF0000A0000004E0B00085C0B00085C0B00088D
:102B00005C0B00085C0B00085C0B00085C0B000809
:102B10005C0B00085C0B00085C0B00085C0B0008F9
:102B20005C0B00085C0B00085C0B00085C0B0008E9
:102B30005C0B00085C0B00085C0B00085C0B0008D9
:102B40005C0B00085C0B00085C0B00085C0B0008C9
:102B50005C0B00085C0B00085C0B00085C0B0008B9
:102B60005C0B00085C0B00085C0B00085C0B0008A9
:102B70005C0B00085C0B00085C0B00085C0B000899
:102B80005C0B00085C0B00085C0B00085C0B000889
:102B90005C0B00085C0B00085C0B00085C0B000879
:102BA0005C0B00085C0B00085C0B00085C0B000869
:102BB0005C0B00085C0B00085C0B00085C0B000859
:102BC000820A00085C0B00085C0B00085C0B000824
:102BD0005C0B00085C0B00085C0B00085C0B000839
:102BE0005C0B00085C0B0008820A0008E40A00087D
:102BF000820A00085C0B00085C0B00085C0B0008F4
:102C00005C0B0008820A00085C0B00085C0B0008E3
:102C10005C0B00085C0B00085C0B0008820A0008D3
:102C20002E0B00085C0B00085C0B0008F80A00087B
:102C30005C0B0008820A00085C0B00085C0B0008B3
:102C4000820A000852464D20535049205772697439
:102C50006500000054696D656F757420257320252B
:102C60003038580A00000000525443204953520A99
:102C700000000000612400085D1F0008A51F000877
:102C8000B9200008FD200008DD210008A12100086E
:102C9000292200089D22000845230008412400083D
:082CA00000000000000000002C
:102CA80044656661756C74205265706F7274204259
:102CB80075666665720000000000000000000000F4
:102CC80000000000000000000000000000000000FC
:102CD80000000000000000000000000000000000EC
:0C2CE80068FF1F0068FF1F0068FF1F004E
:0400000508002515B5
:00000001FF
