:020000040800F2
:1040000000200020594C0008554C0008534C000873
:1040100000000000000000000000000000000000A0
:10402000000000000000000000000000554C0008E7
:104030000000000000000000554C0008554C00082E
:10404000534C0008534C000811480008534C00081A
:10405000534C0008534C0008534C0008E945000835
:10406000534C0008534C0008534C0008534C0008B4
:10407000534C0008534C0008534C0008534C0008A4
:10408000534C0008534C0008534C0008534C000894
:10409000534C0008534C0008534C0008534C000884
:1040A000534C0008534C0008534C0008534C000874
:1040B000534C0008534C0008534C0008534C000864
:1040C00010B500F0ABF8024800F0BEF8FEE7C046BD
:1040D0000C4E000810B5042000F076FC042000F01F
:1040E000C9FC052000F0F0FC002000F0E3FC0020FB
:1040F00000F0C8FC002000F0D1FC002000F0B2FB72
:10410000034B044A1360044A1360044A136010BD51
:1041100068FF1F0004000020080000200C000020A1
:1041200010B5B020C00000F0DBFC244800F0D8FC43
:10413000A024E405042300220221200000F0B5FBA6
:10414000082300220221200000F0AFFB04230022FC
:104150000021200000F0C9FB04220421200000F00F
:10416000E2FB08220421200000F0DDFB144800F0EF
:10417000B7FC144800F0C2FC134C200000F04BFDCB
:10418000E1214902200000F0E9FC0821200000F0B4
:1041900011FD0021200000F01BFD0C21200000F08B
:1041A00027FD0021200000F01BFD0021200000F071
:1041B00025FD200000F02AFD10BDC046810500004D
:1041C00011070000110500000044004010B5010077
:1041D000074C2068431C236000F054F82268054B0C
:1041E0009A4200D010BD024B034A1A60FAE7C0465B
:1041F00000000020000808080004080810B50100AD
:10420000014800F00DFD10BD0044004010B5040051
:10421000FFF7DCFF2000FFF7F1FF10BD10B500F045
:104220002BF8074B00221A60FFF754FFFFF778FFC7
:104230000023044A934202DCC0460133F9E710BD73
:10424000000000209F8601000FB400B583B004AACF
:1042500002CA0192064800F0C5F84021054800F066
:10426000F2FC0028F9D003B008BC04B01847C046DF
:104270000D4200080044004010B5C120C00000F00D
:104280002FFC10BD70B504000D000F4BC218802329
:104290001B019A4201D3002070BD00F0EDFA0B4AD9
:1042A00013680B490B40136025700A4B1B68DB0732
:1042B000FBD4084B1B689B0702D5064B02221A60F1
:1042C00000F0E6FA0120E7E70000F8F704200240DA
:1042D000FFFEFFFF18200240010000200A6813784B
:1042E000303BDBB2092B08D883001B185B00501C45
:1042F00008601078C0183038F0E77047F0B5DE4637
:1043000057464E464546E0B589B080460800150040
:104310009B4612AB1B789946002959D003DB00233A
:104320009A46002411E0484201239A46F9E73031C9
:10433000C9B2671C6B4619552900300000F0DAFC41
:10434000002810D01F2F0ED83C000600290000F0D6
:1043500057FDC9B20929EAD93731C9B2E9E7302393
:104360006A46D35501375F4501D21F2FF7D9102D6B
:1043700019D0022D1ED0102D23D0022D21D04B4656
:10438000002B08D05346002B05D01F2F03D82D2318
:104390006A46D35501373C00002C1AD0013C6B46CD
:1043A000185DC047F8E71F2FE3D858236A46D35556
:1043B0000137E0E71F2FDED862236A46D355013765
:1043C000D9E71F2FDBD830236A46D3550137D6E70C
:1043D0000027380009B0F0BCBB46B246A946A0464B
:1043E000F0BD000070B584B0050003910292002476
:1043F00004E0A8470134039B01330393039B18781F
:10440000002800D189E02528F3D15A1C03925B785B
:10441000303BDBB2092B0BD90023039A1078020042
:10442000253AD1B2532972D88A003D498A58974615
:1044300003A8FFF751FF0300EFE7782809D05828B9
:104440001AD06F281AD0622801D00A2202E0022274
:1044500000E01022692801D0642811D10299081DBA
:1044600002900968012000902800FFF747FF2418F8
:10447000039B01330393C1E71022EBE70822E9E72E
:104480000299081D02900968002000902800FFF79B
:1044900035FF2418ECE7029B1A1D02921878A847F2
:1044A0000134039B01330393A8E7029B1A1D029278
:1044B0001E6833008022D20001E001330A0019781F
:1044C000002902D0511E002AF7D13078002803D0ED
:1044D0000136A8470134F8E7039B013303938DE7C6
:1044E000029B1A1D029219680023009308331022C0
:1044F0002800FFF703FF2418039B013303937DE794
:104500002520A8470134039B0133039376E7A8478E
:104510000134039B0133039370E7200004B070BDA6
:104520001C4E000870B50400A025ED0510212800E0
:1045300000F0B8F9012000F09DF8A1B2084C20006D
:1045400000F004FB0021200000F000FBC4B21021A9
:10455000280000F0A5F9012000F08CF8200070BDC3
:1045600000300140F8B505000E0080246442044389
:10457000E4B2A027FF051021380000F093F90120D4
:1045800000F078F8A1B2154C200000F0DFFAB1B2CB
:10459000200000F0DBFA1021380000F081F9012042
:1045A00000F068F82800FFF7BDFF0400122D13D0BB
:1045B00000F07EF82A04324309490A4800F086F8E0
:1045C000002809D1B44207D0642000F053F8280035
:1045D000FFF7A8FF0400EDE7F8BDC046003001403A
:1045E0006C4F00081027000070B500F059F88024C7
:1045F0002402200000F030F9200000F02DF91B4DBE
:104600002E781220FFF78EFF194C73009B19DB00E8
:10461000E3181874FF211220FFF7A4FFFF211220D6
:10462000FFF7A0FF1A20FFF77DFF2A7800B25300A2
:104630009B18DB00E318893898821920FFF772FF76
:104640002B785A00D218D200A4188008A074227CBB
:10465000520901214A4001210A40627401330F22AC
:1046600013402B7000F01CF870BDC0469001002074
:104670001000002070B50400074800F07EF9050026
:10468000064B9C4200D91C00034800F076F9401B01
:10469000A042F9D370BDC046007C0040E8FD000098
:1046A00010B5024800F069F910BDC046007C00401A
:1046B00010B5044B00221A60FFF7F2FF024B18807E
:1046C00010BDC0469401002098010020F0B583B0D1
:1046D000060001911500FFF7E3FF0C4C2388C31A75
:1046E0009BB20B4F3A68944663443B60FFF7D8FF98
:1046F00020803B68B34202D8002003B0F0BD2A00FE
:1047000001990448FFF7A0FD0120F6E79801002079
:10471000940100207C4F000870B58025ED01A02495
:10472000E4052B0000220321200000F0BEF8290040
:10473000200000F0B5F8042301220021200000F041
:10474000B4F8082300220121200000F0AEF808216F
:10475000200000F0A5F8012300220321200000F032
:10476000A4F8402300220321200000F09EF820231B
:1047700002220021200000F098F88023022200216C
:10478000200000F092F8102301220021200000F008
:104790008CF81E4C012301220021200000F085F836
:1047A00080231B0200220321200000F07EF88023DA
:1047B0005B0100220321200000F077F880231B0119
:1047C00000220321200000F070F8042300220321BE
:1047D000200000F06AF88023DB0000220321200083
:1047E00000F063F8022300220321200000F05DF8AE
:1047F00080239B0101220021200000F056F82B00AD
:1048000001220021200000F050F870BD000400508B
:1048100010B58020400300F01FF8FFF7FFFC0C48A4
:10482000FFF712FD0B4B1B685B0500D410BD00F0B9
:10483000A7F800F073F900F07FF900F0BDF800F080
:10484000B3F800F073F900F0A5F8FFF765FFEDE7A6
:10485000904F00080C280040014B18607047C0467C
:10486000140401400121034A13688B43034313607E
:104870007047C04600200240024B034A1A60034AB8
:104880001A6070470C200240EFCDAB89050403028B
:104890000123024A11680B43136070470420024051
:1048A00081617047090481617047F0B585B001915D
:1048B00003270021029203930268C368039C012529
:1048C0000C412C420AD03D004C00A540019EAA4359
:1048D000AB43029DA640A54032432B430131102932
:1048E000ECD10260C36005B0F0BDF7B501920129BB
:1048F00016D14168194300240126032741608168CD
:104900001D002541354206D03A006500AA4091437A
:10491000019AAA4011430134102CF1D18160F7BDF6
:1049200041689943E7E7F7B5002301260F27046A9A
:104930000091416A0192019D1D41354206D03A0025
:104940009D00AA409443009AAA4014430133082BC7
:10495000F1D101260F27019A1A41324207D03A00BD
:104960009D00203DAA409143009AAA401143013383
:10497000102BF0D104624162F7BDC06980B270476C
:104980008023034A5B0011680B4313607047C046E5
:1049900000700040024A034913680B4013607047DF
:1049A00000700040FFFEFFFF0823024A11680B431E
:1049B00013607047007000400423024A11680B43E3
:1049C000136070470070004000B506280BD800F057
:1049D00087F9041015190B1B1D0080230C4A5B047A
:1049E00011680B43136000BD094A802311685B0006
:1049F000F7E78023064A5B021168F2E7054A0123C4
:104A00001168EEE7024AFAE7034AEEE7024AF6E7E0
:104A1000001002400810024050100240002300B570
:104A200006280AD8013300F05BF9040A120E161AA0
:104A30001C000D4A1068400E0340180000BD0A4AD1
:104A40001068400CF8E7084A10688008F4E7074A45
:104A500010684008F0E7044A1068400AECE7044A8E
:104A6000FAE7034AF4E7C04600100240081002408B
:104A70005010024010B504002000FFF7CFFF0028BF
:104A8000FAD010BD034A0449136800020B401843D2
:104A9000106070470C100240FFF8FFFF034A044902
:104AA0001368C0020B401843106070470C1002409E
:104AB000FFC7FFFFF021034A000113688B4318432F
:104AC000106070470C100240034A04491368400309
:104AD0000B4018431060704704100240FF1FFFFF97
:104AE000054B4209D2181F2318401E3B8340116812
:104AF0000B4313607047C04600100240064A43094A
:104B00009B181F2210401E3A8240196811431960F9
:104B1000196891431960704700100240CA22024B85
:104B20001A60773A1A60704724280040FF22014B30
:104B30001A60704724280040024A034913680B405A
:104B4000136070470C280040FFFBFFFF0123C1608A
:104B500082681A42FCD0C06880B27047104B70B5B2
:104B600005000C004E08984207D10E4B1868210032
:104B7000301800F0BFF8E86010E00B4B18680B4BE2
:104B80009D42F4D100F03CF9050008028019210093
:104B900000F0B0F82D02064B4019186070BDC046F9
:104BA000003801400C0000200800002000480040B0
:104BB0000C480040082904D10368044A13400360EC
:104BC0007047802302685B011343F8E7FFEFFFFFA4
:104BD0004368024A13400B4343607047FFCFFFFF17
:104BE0000368024A13400B4303607047FFF9FFFF5D
:104BF0000C22036893430B43036070478368024AA7
:104C000013400B4383607047FFFCFFFF01230268E2
:104C100013430360704701220368934303607047A6
:104C200070B50D00040000F009F82900200000F024
:104C300001F870BDC905C90D816270478023C26942
:104C40001A42FCD07047C0690840411E8841C0B27A
:104C50007047FEE77047000010B5164B164A17491B
:104C60008B4218D30021164A934217D38023154A4A
:104C70009B001168144C0B431360144B9C420FD3E0
:104C8000134C144B9C420ED3FFF71AFA124C134BE1
:104C90009C420BD310BD01CA01C3E1E702C3E3E7A5
:104CA00008CC9847E9E708CC9847EAE708CC98474A
:104CB000EDE7C046000000209C4F000810000020D7
:104CC0009C01002014ED00E09C4F00089C4F000860
:104CD0009C4F00089C4F00089C4F00089C4F000808
:104CE00002B4714649084900095C49008E4402BC7F
:104CF0007047C046002243088B4274D303098B429D
:104D00005FD3030A8B4244D3030B8B4228D3030C9B
:104D10008B420DD3FF22090212BA030C8B4202D33D
:104D20001212090265D0030B8B4219D300E0090A65
:104D3000C30B8B4201D3CB03C01A5241830B8B426E
:104D400001D38B03C01A5241430B8B4201D34B0357
:104D5000C01A5241030B8B4201D30B03C01A5241BC
:104D6000C30A8B4201D3CB02C01A5241830A8B4241
:104D700001D38B02C01A5241430A8B4201D34B022A
:104D8000C01A5241030A8B4201D30B02C01A52418E
:104D9000CDD2C3098B4201D3CB01C01A5241830942
:104DA0008B4201D38B01C01A524143098B4201D37C
:104DB0004B01C01A524103098B4201D30B01C01AA7
:104DC0005241C3088B4201D3CB00C01A5241830821
:104DD0008B4201D38B00C01A524143088B4201D34E
:104DE0004B00C01A5241411A00D2014652411046AE
:104DF0007047FFE701B5002000F006F802BDC0468D
:104E00000029F7D076E770477047C04653656E7348
:104E10006F722053746172740A000000004500082C
:104E20000E4500080E4500080E4500080E45000816
:104E30000E4500080E4500080E4500080E45000806
:104E40000E4500080E4500080E4500080E450008F6
:104E50000E4500080E4500080E4500080E450008E6
:104E60000E4500080E4500080E4500080E450008D6
:104E70000E4500080E4500080E4500080E450008C6
:104E80000E4500080E4500080E4500080E450008B6
:104E90000E4500080E4500080E4500080E450008A6
:104EA0000E4500080E4500080E4500080E45000896
:104EB0000E4500080E4500080E4500080E45000886
:104EC0000E4500080E4500080E4500080E45000876
:104ED0000E4500080E4500080E4500080E45000866
:104EE0000E4500080E4500083A4400080E4500082B
:104EF0000E4500080E4500080E4500080E45000846
:104F00000E4500080E4500080E4500080E45000835
:104F10003A440008964400083A4400080E45000848
:104F20000E4500080E4500080E4500083A440008EA
:104F30000E4500080E4500080E4500080E45000805
:104F40000E4500083A440008E04400080E450008F9
:104F50000E450008AA4400080E4500083A4400081F
:104F60000E4500080E4500083A44000852464D2000
:104F700053504920577269746500000054696D658B
:104F80006F757420257320253038580A0000000002
:0C4F9000525443204953520A0000000014
:104F9C000004080868FF1F0068FF1F0068FF1F005F
:0400000508004C594A
:00000001FF
