:020000040800F2
:1000000000200020C1140008BD140008BB14000823
:1000100000000000000000000000000000000000E0
:10002000000000000000000000000000BD140008F7
:100030000000000000000000BD140008BD1400080E
:10004000BB140008BB14000875100008BB1400089E
:10005000BB140008BB140008BB140008490E0008BC
:10006000BB140008BB140008BB140008BB14000834
:10007000BB140008BB140008BB140008BB14000824
:10008000BB140008BB140008BB140008BB14000814
:10009000BB140008BB140008BB140008BB14000804
:1000A000BB140008BB140008BB140008BB140008F4
:1000B000BB140008BB140008BB140008BB140008E4
:1000C00010B500F097F80349002000F09FF80020D9
:1000D00010BDC0468C28000810B5042001F0A8F817
:1000E000042001F0FBF8052001F022F9002001F0C6
:1000F00015F9002001F0FAF8002001F003F90020C2
:1001000000F0E4FF034B044A1360044A1360044AFE
:10011000136010BD68FF1F000400002008000020CD
:100120000C00002010B5B020C00001F00DF92448EB
:1001300001F00AF9A024E405042300220221200092
:1001400000F0E7FF082300220221200000F0E1FF79
:10015000042300220021200000F0FBFF04220421E0
:10016000200001F014F808220421200001F00FF80B
:10017000144801F0E9F8144801F0F4F8134C200099
:1001800001F07DF9E1214902200001F01BF908216D
:10019000200001F043F90021200001F04DF90C216D
:1001A000200001F059F90021200001F04DF9002153
:1001B000200001F057F9200001F05CF910BDC046A5
:1001C00081050000110700001105000000440040F7
:1001D00010B50400054B1868421C1A60210000F09D
:1001E00037F8A1B2024801F04FF910BD000000201D
:1001F0000044004010B5044B00221A60FFF76CFF6A
:10020000FFF790FF10BDC046000000200EB400B5FF
:1002100084B005AA08CA0292002807D040210A48E3
:1002200001F045F900280AD1C046F7E701220299FA
:100230000091524203A9054800F020FBEEE704B00C
:1002400008BC03B01847C04600440040D101000874
:1002500070B504000D000F4BC21880231B019A4299
:1002600001D3002070BD00F03BFF0B4A13680B491F
:100270000B40136025700A4B1B68DB07FBD4084B4F
:100280001B689B0702D5064B02221A6000F034FF60
:100290000120E7E70000F8F704200240FFFEFFFF1F
:1002A000182002407047010000200A681378303B94
:1002B000DBB2092B08D883001B185B00501C0860B8
:1002C0001078C0183038F0E77047F0B5DE46574672
:1002D0004E464546E0B583B093461F000C9B9A46B8
:1002E0000D9C0E9B99460F9B9B0703D0B8460F00B1
:1002F000060022E00192A34688464E46B946070012
:10030000B44207D2551C4B4641462020B847013421
:100310002A00F5E73D004F465C46019B9B46B146EF
:100320004646B84637002E0007E0013C551C5346B0
:10033000185D43463900B0472A00002CF5D135003E
:100340003E0047460F9B9B0707D4100003B0F0BC4C
:10035000BB46B246A946A046F0BDB0464E46B94699
:100360002F005D46531BB342EFD2541C4B4641460F
:100370002020B8472200F5E7F0B5CE46474680B5C5
:1003800085B0944698460C9D0D9C0EAB1B78994603
:10039000109A119B129EB7071BD4002B08D0F707A9
:1003A00006D54F46002F02D10C37374200D0013B13
:1003B000944208D21F2C06D830272F550134F7E776
:1003C00030272F550134F70703D59C4201D21F2C4B
:1003D000F6D9F70615D5770505D4002C03D094423D
:1003E00024D09C4222D00F9A102A2BD00F9A102A88
:1003F00030D00F9A022A35D01F2C02D830222A552D
:1004000001341F2C05D84A46002A31D02D222A5506
:100410000134039602930194009543466246FFF728
:1004200054FF05B0C0BCB946B046F0BD621E012CF9
:1004300006D00F9F102F01D01400D4E7023CD2E762
:100440001400D0E7B206D1D41F2CCFD878222A5579
:100450000134D1E7B206CCD51F2CCAD858222A5570
:100460000134C9E71F2CC7D860322A550134C3E7CD
:10047000720703D52B222A550134CAE73207C8D5A3
:1004800020222A550134C4E7F0B5DE4657464E46D1
:100490004546E0B593B081468A46089209931CAB65
:1004A00010CB1B789B461E9D219B9846002C03D1A8
:1004B000102342469A4390468023DB0046461E4066
:1004C00042461A4212D0002C22D000260EE03033D1
:1004D000D9B2771C0AAB99552900200001F03EF8EB
:1004E000AC4216D31F2F14D83E0004002900200070
:1004F00001F0BAF8CBB2092BE9D94246920605D5EC
:100500004121C918C9B20A39C9B2E2E76121F8E745
:10051000270043460693209B05931F9B0493039556
:100520005B46029301970AAB0093099B089A5146D8
:100530004846FFF721FF13B0F0BCBB46B246A946C0
:10054000A046F0BDF0B5DE4657464E464546E0B5FE
:1005500093B00490059192469B461E9D1C9A1D9B4C
:100560001000190001F080F9002833D00122524216
:10057000B84B1C981D9901F07DF9002839D1012252
:100580005242B54B1C981D9901F088F900283FD1C3
:100590000022B24B1C981D9901F080F9002800D070
:1005A00053E10022AE4B1C981D9901F063F900281D
:1005B00000D04CE1002200231C981D9901F05AF94B
:1005C000002846D100239946209B5B0500D4ACE06F
:1005D00000244EE0209B03931F9B0293032301936F
:1005E000A04B00935B46524605990498FFF76DFEB9
:1005F00024E0209B03931F9B0293042301939A4BB7
:1006000000935B46524605990498FFF75EFE15E09D
:100610000423209A1A4020990B4216D0934B002AAB
:1006200015D00422209903911F9902910192009301
:100630005B46524605990498FFF747FE13B0F0BC9D
:10064000BB46B246A946A046F0BD894BE7E7032268
:10065000E8E71C9A1D9B0020002101F0DBFC1C90A8
:100660001D9101239946AFE70AAB30221A55013D8F
:1006700001341F2C01D8092DF6D81C981D9902F0C1
:100680005BF8070002F08EF802000B001C981D9921
:1006900001F0C0FCEA00774B9B181A685B6808926F
:1006A000099301F04BFA0690079101F00BF906004F
:1006B00002F0A8F802000B000698079901F0AAFCC6
:1006C0000690079100226C4B01F0E8F800282ED02C
:1006D0000136300002F096F802000B0008980999E4
:1006E00001F0D2F8002801D001370026002D2CD1CE
:1006F000380002F057F802000B001C981D9901F019
:1007000089FC05000E0000225B4B01F0B3F80028C5
:1007100007D00022584B2800310001F0BFF8002814
:100720003ED0FB073CD501373AE0062550E70022D2
:10073000514B0698079901F09DF80028D6D1002E5C
:1007400001D0F307D2D50136D0E7B8461F2C11D817
:10075000013D0A21300000F087FF671C30310AABF1
:1007600019550A21300000F0F9FE092E0ED90600B5
:100770003C00EBE747461F2C0CD86B1E002D09D020
:100780000AAA302111551D000134F4E73B00474609
:100790001C00F0E71F2C03D80AAB2E221A55013497
:1007A0001F2C10D80A21380001F048F8651C3031A0
:1007B0000AAB19550A21380000F05AFF071E01D074
:1007C0002C00EDE72C000323209A1340012B16D0B8
:1007D0001F2C06D84B46002B27D00AAB2D221A55CA
:1007E0000134209B03931F9B029301940AAB009357
:1007F0005B46524605990498FFF767FD1EE71F9B6D
:10080000002B08D04B46002B02D10C33134202D0F0
:100810001F9B013B1F931F9B9C42D9D21F2CD7D8F3
:100820000AAB30221A550134F5E7209B5B0704D54B
:100830000AAB2B221A550134D3E7209B1B07D0D5D6
:100840000AAB20221A550134CBE70020F6E600203F
:10085000F4E6C046FFFFEFFFFFFFEF7F65CDCD4120
:1008600065CDCDC1B4280008B8280008AC28000820
:10087000A8280008582A00080000E03FF0B5DE462E
:1008800057464E464546E0B58BB006008A4691462F
:100890000993002900D169E20024099B18780028F7
:1008A00000D165E2252809D0651C4B46220051463F
:1008B000B047099B013309932C00EEE701330993FC
:1008C00000252DE00B00303BDBB2092B47D92A294C
:1008D0004AD000230693099B1A782E2A54D000236D
:1008E0009B46099A13786C2B78D06FD8682B00D16F
:1008F00084E06A2B04D180239B001D4301320992BE
:10090000099B18780300253BDAB2532A00D923E269
:100910009300CB4AD3589F4601231D4301320992CD
:10092000099A11780B00203BD8B21028CAD883004E
:10093000C448C3589F4602231D4301320992EFE782
:1009400004231D4301320992EAE708231D430132C3
:100950000992E5E710231D4301320992E0E709A857
:10096000FFF7A1FC0690B6E7149B1A1D14921868B5
:10097000002804DB0690099B01330993ABE70223AF
:100980001D4343420693F6E78022D20015435A1CCA
:1009900009925A781300303BDBB2092B04D92A2A7A
:1009A00007D000239B469CE709A8FFF77CFC834601
:1009B00097E7149B1A1D14921868002804DB8346DD
:1009C000099B013309938CE70020F8E77A2B97D134
:1009D00080235B001D430132099291E780235B0075
:1009E0002B43511C099152786C2A01D01D0087E7D6
:1009F000C0239B001D430131099181E780232B43D4
:100A0000511C09915278682A01D01D0078E7C02353
:100A10001D430131099173E7782809D0582835D052
:100A20006F2835D0622835D010239D43063B00E067
:100A30001023582830D0692803D0642801D00C2214
:100A400095436A0501D501229543692827D064287A
:100A500025D0AA0542D4EA0569D46A067CD5149A41
:100A6000111D14911168FF220A4005950699049101
:100A70005946039102930023019300924B462200B2
:100A800051463000FFF700FD040027E01023D0E7B7
:100A90000823CEE70223CCE720221543CBE7AA05A3
:100AA0001CD4EA051ED46A0634D5149A111D14917B
:100AB0001168FF220A40D017111841400595069889
:100AC0000490584603900293D20F019200914B4636
:100AD000220051463000FFF7D7FC0400099B013388
:100AE0000993DAE6149A111D14911268D01711189F
:100AF0004140059506980490584603900293D20F02
:100B0000019200914B46220051463000FFF7BCFC99
:100B10000400E3E72A0605D5149A111D149100215B
:100B2000525EC8E7149A111D14911268C3E7149A13
:100B3000111D14910595069904915946039102934C
:100B400000230193136800934B4622005146300066
:100B5000FFF79AFC0400C1E72A0606D5149A111D76
:100B6000149112681204120C7FE7149A111D14914B
:100B700012687AE746281AD0149B0733072293435A
:100B80001A00083214920495069A03925A46029269
:100B90001A685B68009201934B4622005146300070
:100BA000FFF7D0FC0400099B0133099375E620236D
:100BB0001D43E1E702231A002A4093462B421ED030
:100BC0000125149B1A1D1492621C904618784B46FE
:100BD00022005146B0475B46002B14D1099B0133DC
:100BE0000993444659E6571C4B4651462020B047CE
:100BF0002B003A005D1C9C42F5D81400E1E701236C
:100C00002200069CF6E74246B046069E06E0571CC8
:100C10004B4651462020C04725003A006C1CAE428E
:100C2000F5D846469046D9E7149B1A1D14921B68C6
:100C300098465B46002B00D1013B474606E0C04684
:100C4000C0280008102A0008013713003A78002A4B
:100C500002D05A1E002BF7D14346FA1A079280237E
:100C6000DB002F001F401D4203D05A4501D95B46CF
:100C7000079302231A002A4008922B4205D0220033
:100C80005C464546B0463E0020E02200079B5146A8
:100C9000BA460F0006E0541C4B4639002020B047EE
:100CA0002B0022005D1C06999942F4D83B00574660
:100CB0009A4607955C464546B0463E0006E01C0055
:100CC0000135571C4B465146C0473A00287800284A
:100CD00004D0002EF4D0631E002CF0D11400464640
:100CE000089B002B03D1099B01330993D5E5069F8F
:100CF000079B06E0551C4B4651462020B047230079
:100D00002A005C1C9F42F5D81400ECE721231D4308
:100D1000149B1A1D14921B680093059508230493D5
:100D20005B46039310230293002301934B4622005A
:100D300051463000FFF7A8FB0400099B01330993DB
:100D4000ABE5651C4B46220051462520B047099B68
:100D5000013309932C00A0E5651C4B462200514647
:100D6000B047099B013309932C0096E5044E93E5A7
:100D700020000BB0F0BCBB46B246A946A046F0BD71
:100D8000A502000870B50400A025ED05102128007B
:100D900000F0BCF9012000F09DF8A1B2084C200041
:100DA00000F008FB0021200000F004FBC4B2102179
:100DB000280000F0A9F9012000F08CF8200070BD97
:100DC00000300140F8B505000E0080246442044361
:100DD000E4B2A027FF051021380000F097F90120A8
:100DE00000F078F8A1B2154C200000F0E3FAB1B29F
:100DF000200000F0DFFA1021380000F085F9012012
:100E000000F068F82800FFF7BDFF0400122D13D092
:100E100000F07EF82A04324309490A4800F086F8B7
:100E2000002809D1B44207D0642000F053F828000C
:100E3000FFF7A8FF0400EDE7F8BDC0460030014011
:100E4000A82A00081027000070B500F059F8802487
:100E50002402200000F034F9200000F031F91B4D8D
:100E60002E781220FFF78EFF194C73009B19DB00C0
:100E7000E3181874FF211220FFF7A4FFFF211220AE
:100E8000FFF7A0FF1A20FFF77DFF2A7800B253007A
:100E90009B18DB00E318893898821920FFF772FF4E
:100EA0002B785A00D218D200A4188008A074227C93
:100EB000520901214A4001210A40627401330F2284
:100EC00013402B7000F01CF870BDC046900100204C
:100ED0001000002070B50400074800F082F90500FA
:100EE000064B9C4200D91C00034800F07AF9401BD5
:100EF000A042F9D370BDC046007C0040E8FD000070
:100F000010B5024800F06DF910BDC046007C0040ED
:100F100010B5044B00221A60FFF7F2FF024B188055
:100F200010BDC0469401002098010020F0B583B0A8
:100F3000060001911500FFF7E3FF0D4C2388C31A4B
:100F40009BB20C4F3A68944663443B60FFF7D8FF6E
:100F500020803B68B34202D8002003B0F0BD2B00D4
:100F6000019A05490020FFF751F90120F5E7C04635
:100F70009801002094010020B82A000870B580254F
:100F8000ED01A024E4052B0000220321200000F045
:100F9000C0F82900200000F0B7F804230122002146
:100FA000200000F0B6F8082300220121200000F004
:100FB000B0F80821200000F0A7F801230022032147
:100FC000200000F0A6F8402300220321200000F0BA
:100FD000A0F8202302220021200000F09AF88023AC
:100FE00002220021200000F094F8102301220021A9
:100FF000200000F08EF81E4C012301220021200069
:1010000000F087F880231B0200220321200000F05B
:1010100080F880235B0100220321200000F079F892
:1010200080231B0100220321200000F072F804231A
:1010300000220321200000F06CF88023DB00002256
:101040000321200000F065F8022300220321200084
:1010500000F05FF880239B0101220021200000F0B6
:1010600058F82B0001220021200000F052F870BD3A
:101070000004005010B58020400300F021F8FFF775
:10108000B9F80D490020FFF7C1F80C4B1B685B0550
:1010900000D410BD00F0A8F800F074F900F080F959
:1010A00000F0BEF800F0B4F800F074F900F0A6F813
:1010B000FFF764FFEDE7C046CC2A00080C2800408B
:1010C000014B18607047C046140401400121034AD7
:1010D00013688B43034313607047C04600200240EF
:1010E000024B034A1A60034A1A6070470C20024000
:1010F000EFCDAB89050403020123024A11680B43BB
:1011000013607047042002408161704709048161C7
:101110007047F0B585B00191032700210292039337
:101120000268C368039C01250C412C420AD03D0093
:101130004C00A540019EAA43AB43029DA640A5409A
:1011400032432B4301311029ECD10260C36005B05A
:10115000F0BDF7B50192012916D141681943002469
:1011600001260327416081681D002541354206D0D4
:101170003A006500AA409143019AAA401143013404
:10118000102CF1D18160F7BD41689943E7E7F7B5CD
:10119000002301260F27046A0091416A0192019DF4
:1011A0001D41354206D03A009D00AA409443009A62
:1011B000AA4014430133082BF1D101260F27019ACD
:1011C0001A41324207D03A009D00203DAA40914387
:1011D000009AAA4011430133102BF0D104624162FE
:1011E000F7BDC06980B270478023034A5B00116875
:1011F0000B4313607047C04600700040024A034929
:1012000013680B401360704700700040FFFEFFFF43
:101210000823024A11680B431360704700700040B6
:101220000423024A11680B431360704700700040AA
:1012300000B506280BD800F087F9041015190B1B10
:101240001D0080230C4A5B0411680B43136000BD32
:10125000094A802311685B00F7E78023064A5B0296
:101260001168F2E7054A01231168EEE7024AFAE73E
:10127000034AEEE7024AF6E7001002400810024077
:1012800050100240002300B506280AD8013300F0B0
:101290005BF9040A120E161A1C000D4A1068400E63
:1012A0000340180000BD0A4A1068400CF8E7084ADD
:1012B00010688008F4E7074A10684008F0E7044A1D
:1012C0001068400AECE7044AFAE7034AF4E7C0462C
:1012D00000100240081002405010024010B50400F7
:1012E0002000FFF7CFFF0028FAD010BD034A0449C1
:1012F000136800020B401843106070470C10024046
:10130000FFF8FFFF034A04491368C0020B4018436B
:10131000106070470C100240FFC7FFFFF021034A26
:10132000000113688B431843106070470C10024093
:10133000034A0449136840030B4018431060704788
:1013400004100240FF1FFFFF054B4209D2181F2364
:1013500018401E3B834011680B4313607047C04622
:1013600000100240064A43099B181F2210401E3AF3
:1013700082401968114319601968914319607047D8
:1013800000100240CA22024B1A60773A1A60704776
:1013900024280040FF22014B1A6070472428004097
:1013A000024A034913680B40136070470C28004041
:1013B000FFFBFFFF0123C16082681A42FCD0C068B6
:1013C00080B27047104B70B505000C004E08984273
:1013D00007D10E4B18682100301800F0BFF8E86004
:1013E00010E00B4B18680B4B9D42F4D100F03CF918
:1013F000050008028019210000F0B0F82D02064B0C
:101400004019186070BDC046003801400C00002033
:1014100008000020004800400C480040082904D182
:101420000368044A134003607047802302685B012D
:101430001343F8E7FFEFFFFF4368024A13400B43F3
:1014400043607047FFCFFFFF0368024A13400B431E
:1014500003607047FFF9FFFF0C22036893430B43BF
:10146000036070478368024A13400B4383607047F0
:10147000FFFCFFFF01230268134303607047012252
:10148000036893430360704770B50D00040000F0DB
:1014900009F82900200000F001F870BDC905C90D48
:1014A000816270478023C2691A42FCD07047C069CC
:1014B0000840411E8841C0B27047FEE770470000F7
:1014C00010B5164B164A17498B4218D30021164AFD
:1014D000934217D38023154A9B001168144C0B4389
:1014E0001360144B9C420FD3134C144B9C420ED3ED
:1014F000FEF7E6FD124C134B9C420BD310BD01CA04
:1015000001C3E1E702C3E3E708CC9847E9E708CC69
:101510009847EAE708CC9847EDE7C046000000206E
:10152000182B0008100000209C01002014ED00E0A2
:10153000182B0008182B0008182B0008182B00087F
:10154000182B0008182B000802B4714649084900FE
:10155000095C49008E4402BC7047C0460022430823
:101560008B4274D303098B425FD3030A8B4244D36B
:10157000030B8B4228D3030C8B420DD3FF220902AD
:1015800012BA030C8B4202D31212090265D0030B6C
:101590008B4219D300E0090AC30B8B4201D3CB0362
:1015A000C01A5241830B8B4201D38B03C01A5241A4
:1015B000430B8B4201D34B03C01A5241030B8B42A6
:1015C00001D30B03C01A5241C30A8B4201D3CB0291
:1015D000C01A5241830A8B4201D38B02C01A524176
:1015E000430A8B4201D34B02C01A5241030A8B4279
:1015F00001D30B02C01A5241CDD2C3098B4201D391
:10160000CB01C01A524183098B4201D38B01C01A0E
:10161000524143098B4201D34B01C01A5241030985
:101620008B4201D30B01C01A5241C3088B4201D334
:10163000CB00C01A524183088B4201D38B00C01AE1
:10164000524143088B4201D34B00C01A5241411A08
:1016500000D20146524110467047FFE701B5002015
:1016600000F0F0F802BDC0460029F7D076E77047D9
:1016700003460B437FD4002243088B4274D30309F3
:101680008B425FD3030A8B4244D3030B8B4228D394
:10169000030C8B420DD3FF22090212BA030C8B42BA
:1016A00002D31212090265D0030B8B4219D300E05A
:1016B000090AC30B8B4201D3CB03C01A5241830BDF
:1016C0008B4201D38B03C01A5241430B8B4201D38F
:1016D0004B03C01A5241030B8B4201D30B03C01AB8
:1016E0005241C30A8B4201D3CB02C01A5241830A32
:1016F0008B4201D38B02C01A5241430A8B4201D361
:101700004B02C01A5241030A8B4201D30B02C01A8A
:101710005241CDD2C3098B4201D3CB01C01A5241F1
:1017200083098B4201D38B01C01A524143098B427A
:1017300001D34B01C01A524103098B4201D30B0163
:10174000C01A5241C3088B4201D3CB00C01A524188
:1017500083088B4201D38B00C01A524143088B424D
:1017600001D34B00C01A5241411A00D201465241E6
:10177000104670475DE0CA0F00D04942031000D305
:101780004042534000229C4603098B422DD3030A5A
:101790008B4212D3FC22890112BA030A8B420CD36A
:1017A000890192118B4208D3890192118B4204D393
:1017B00089013AD0921100E08909C3098B4201D313
:1017C000CB01C01A524183098B4201D38B01C01A4D
:1017D000524143098B4201D34B01C01A52410309C4
:1017E0008B4201D30B01C01A5241C3088B4201D373
:1017F000CB00C01A524183088B4201D38B00C01A20
:101800005241D9D243088B4201D34B00C01A5241F6
:10181000411A00D20146634652415B10104601D383
:101820004042002B00D54942704763465B1000D30D
:10183000404201B5002000F005F802BD0029F8D0B3
:1018400016E770477047C0468446101C62468C46B7
:10185000191C634600E0C0461FB500F0FFF80028E1
:1018600001D40021C8421FBD10B500F049F8404224
:10187000013010BD10B500F0F1F8002801DB0020A8
:1018800010BD012010BDC04610B500F0E7F80028DB
:1018900001DD002010BD012010BDC04610B500F0D4
:1018A0006BF8002801DC002010BD012010BDC046EF
:1018B00010B500F061F8002801DA002010BD012009
:1018C00010BDC04670B500220C4B04000D00FFF7A0
:1018D000EFFF002804D12000290000F02DFF70BD8B
:1018E000064B00222000290000F094FB00F024FFAA
:1018F00080231B069C466044F1E7C0460000E0419F
:10190000F0B54F464646D646944691461A03120B0A
:10191000184DC0B54C000F0392465A000600804691
:101920003F0B0120640DC90F520DDB0FAC420AD0F2
:10193000AA4203D0944201D157450DD0E0BCBA462B
:10194000B146A846F0BD3D003543F7D1A242F5D1DE
:10195000524665462A43F1D10120C845EED199424D
:1019600006D0002CEAD13E433000461EB041E5E7E8
:101970000020E3E7FF070000F0B54E464546574616
:10198000DE4604001800E0B516001B031B0B324DA9
:101990000F034A0099464300A446B0463F0B520D40
:1019A000C90F5B0DC00FAA4229D0AB4218D0002A44
:1019B0002AD13C43A34665426541002B02D14C46E7
:1019C000264327D0002D15D1814228D0022001398D
:1019D00008400138F0BCBB46B246A946A046F0BD5F
:1019E0004D462E432FD1002AEED13C43654265413E
:1019F000002DE9D00028EDD101204042EAE73D006A
:101A0000254320D19342EBD0002BDDD14C46264319
:101A1000DAD1DBE75B460020002BDBD0D6E79A4229
:101A20000ADCE7DB4F45D1D810D000204F45D1D29A
:101A30000029E1D00800CDE743425841022340424B
:101A400018400138C6E702204042C3E7C445BDD86C
:101A50000020C445BED2EBE7FF070000F0B54E46BC
:101A600045465746DE4604001800E0B516001B0345
:101A70001B0B314D0F034A0099464300A446B04664
:101A80003F0B520DC90F5B0DC00FAA4211D0AB42E4
:101A900014D0002A2FD13C43A34665426541002B58
:101AA00014D14C46264311D15B460020002B17D0A1
:101AB00010E03D00254312D193421CD14D462E43E8
:101AC0000DD1002A04D13C4365426541002D0DD162
:101AD000814216D0022001390840013800E002207E
:101AE000F0BCBB46B246A946A046F0BD0028F7D1DF
:101AF00001204042F4E7002BEAD14C462643E7D1CF
:101B0000E8E79A4206DD434258410223404218402A
:101B10000138E5E79A42E9DB4F45DBD806D00020E3
:101B20004F45DDD20029E3D00800D9E7C445D1D81C
:101B30000020C445D4D2F5E7FF070000F0B55746B2
:101B40004E464546DE46E0B598460C034B0006007F
:101B5000924687B0240B5B0DCF0F002B6CD0DD4A73
:101B6000934200D186E0420FE40014438022120425
:101B70001443D94AC5009446634400930023994610
:101B80009B46434642461E03D20F5B00504690469A
:101B9000360B5B0D00D178E0CE4A93421DD0CE4982
:101BA000420F8C4600996344F6008C46164380220F
:101BB0009C44120463461643C2000020009300991F
:101BC000434601318C4649467B4001930F2900D999
:101BD0007EE0C24B890059588F465246009B3243E3
:101BE00000D056E1BB4900268C4663444946009329
:101BF0000223194389460220E1E74346019334005A
:101C0000150083465B46022B5ED0032B00D1F3E127
:101C1000012B00D018E1002200240025019B1205B1
:101C20002243DB071A432800110007B0F0BCBB4673
:101C3000B246A946A046F0BD2500054300D141E1CA
:101C4000002C00D1ADE1200000F002FE01000200F6
:101C50000B391D2310005B1A310035000838844011
:101C6000D94085400C439E48831A0093002399462F
:101C70009B4686E70500254300D01CE1082200931F
:101C80000223002491469B467BE75246324300D113
:101C90000AE1002E00D176E1300000F0D9FD02000B
:101CA0000B3A1D2301009B1A52460839DA408E4038
:101CB000164352468A40009B8949181A03008C46F5
:101CC0006344002000937AE700240025814AA5E7B9
:101CD0002F0C2D042D0C2B00110C1204120C53434D
:101CE0009846130028007B4399464843484483465E
:101CF00040460B00000C824658467B4350440293FA
:101D0000814506D99A4680235B029946CA445346C8
:101D10000293030C9B4643461B0400041B0C98468D
:101D2000030043440493330C99462B003604360CCD
:101D30007343984633007B439A464B465D435F436B
:101D400043465544180C4019824503D980235B0251
:101D50009A465744050CEB19059343461D042D0C78
:101D600000044019250C2404240C270057436A431F
:101D700090462A003B0C9A464A43614341445144F1
:101D80008344884503D980235B02984642443F043C
:101D90000B0C3F0C0904C919270098464B467743A2
:101DA0005C436E435D433B0C9946A4194C4442444A
:101DB0000395A64204D980235B02984645440395C7
:101DC000029B3F045B441E008342804123049846EB
:101DD000059B3F0C4744984676188E4289414744FC
:101DE00040423D18A846934649428A46C3449F4212
:101DF000BF4180458041039BDA44984653464042A8
:101E00007F420743240C934592418A4589413F19FB
:101E1000DC0D049B75021D43681E854153465242EA
:101E200049420A43BF184744F60D7F0235435A0220
:101E30003C431543FB0100D4C1E001216A080D4079
:101E40001543E2071543640826496144002956DD1D
:101E50006B0709D00F222A40042A05D02A1DAA4266
:101E6000AD416D4264191500E30104D580211E4A7D
:101E7000C900144061441D4A914200DD24E7620715
:101E8000ED08640249051543240B4A0DC6E6019787
:101E9000B8E6104A0320944663444A46009303235D
:101EA0001A43914652468AE6494601231943894618
:101EB0000026012083E60C220093032305009146AF
:101EC0009B465EE6042399460023009301330024D9
:101ED0009B4656E6FF07000001FCFFFFD82A0008DA
:101EE0000DFCFFFFFF030000FFFFFFFEFE070000E9
:101EF000002380240025444A019324038EE6012018
:101F0000401A382800DD86E61F285BDD1F222300EB
:101F10005242511ACB401900202803D03B4A624458
:101F2000944025436A1E95412A000A4307210D006B
:101F30000024154011425BD00F21002411400429D8
:101F400053D0111D914292415242A4180A0023021B
:101F50004BD501220024002560E680231B031C4290
:101F600009D01E4207D133431C0343461500240BFE
:101F7000254A019352E68022120314432403224A85
:101F8000240B01974AE600F063FC03001A001532A7
:101F900020301C2A00DC84E65646083B00229E4086
:101FA00089E600F055FC01000200153120321C29A1
:101FB00000DC4EE6340008380025844053E6009BE0
:101FC0009C4641E71249220061442E008D408A4020
:101FD000C640691E8D4132432A43C4405307B6D0E0
:101FE0000F2111400429ACD1B1E765076402240B2D
:101FF000D2081543002211E6802212031443240361
:10200000014A240B0AE6C046FF0700003E04000018
:102010001E040000F8B557464E464546DE4604000D
:10202000E0B51F0010000B03620F4E00CD0F5B0ADE
:1020300039031343490AE200440F2143C24C91463D
:102040009246C0007A008046760D520DFF0FA242E4
:1020500000D1B4E001246740BB46BD4200D188E016
:10206000B41AA446002C00DCB2E0002A00D1C5E07E
:10207000B54A964200D18BE2802212041143624697
:10208000382A00DDA1E11F2A00DD16E220270C001E
:10209000BF1ABC400200A0466446B840E240444635
:1020A00014430200501E82416046C14022435B1A25
:1020B00049468C1AA145924152429B1A9846434682
:1020C0001B0200D417E143465B025B0A9846434675
:1020D000002B00D16CE1404600F0BAFB0200083A48
:1020E000202120004346891A9340C840944003436E
:1020F000964200DD57E1961B711C1F2900DDCBE1E4
:10210000202218002600521A94409040CE40CB4026
:10211000621E94413043984600260443630709D069
:102120000F232340042B05D0231DA342A441644266
:10213000A0441C0043461B0200D4DFE0824B013662
:102140009E4200D1FBE04246804BE4081A40130057
:10215000710552075B0222431B0B490D0905ED0770
:10216000194329431000F0BCBB46B246A946A0461D
:10217000F8BDB41AA446002C58DD002A00D19EE018
:10218000714A964200D13BE180221204114362461B
:10219000382A00DDC1E01F2A00DCBBE10C00203A38
:1021A000D44022006446202C04D040273F1BB94075
:1021B000084380464446611E8C411443B1E00C0044
:1021C00004432AD0BB46BD422DD0614CA446B44442
:1021D0006446002C5CD0941BA446002E00D015E170
:1021E0004D461D4300D1C3E1651E012C00D10CE218
:1021F000554EB44200D1F8E1AC460EE10A0002436C
:1022000000D136E12200013A012C00D1C6E14E4C4A
:10221000A44500D1F4E0944631E701246740BB4671
:10222000BD4200D01CE74A4CA446B4446446002C8E
:1022300000D1CFE0941BA446002E00D15CE1424EB9
:10224000B24200D1ECE18026360433436446382C98
:1022500000DDB3E11F2C00DD38E22026361B1C0018
:10226000B4404F46A0466446E74044463C434F4690
:10227000B7403E00771EBE4134436646F340C9185E
:10228000241884429B415B429846160088444EE0E5
:10229000304A741C144200D0D6E04A461A43002E3D
:1022A00000D05BE1002A00D1A5E10A00024300D082
:1022B000BBE14A465907D2080A43DB0827E00A0077
:1022C000024300D174E12200013A012C05D01E4CDA
:1022D000A44500D194E0944659E7484448459241CA
:1022E0005B189846040052429044434602261B0263
:1022F00000D5C4E0013E630700D011E74346B44671
:102300005907E2080A43DB080F498C4540D0614673
:102310001B0349051B0B490D20E701430C00611EFF
:102320008C414C444C45924152429046984443461D
:102330001B02E0D5044B01369E4200D09FE03100E5
:10234000002300220AE7C046FF070000FFFF7FFFCF
:1023500001F8FFFFFE070000002A00D160E10A003B
:1023600002434DD04A465C07D20822438024DB0852
:102370002403234207D0CE08264204D15D46330011
:10238000C20849070A43510FD200D20849070A433D
:102390001100194300D1C8E1802109030B431B033D
:1023A000D5491B0BDAE6D549B61A0B409846B5E677
:1023B000200000F04DFA020018321F2A00DC8FE6E0
:1023C000230008388340002492E608430200501E90
:1023D00082416DE6CA4C721C224200D0ADE04A46F2
:1023E0001A43002EB8D1002A00D158E10A00024356
:1023F00000D059E14A465907D2080A43DB0886E76C
:102400004A465907D2080A43DB08C1E7BA4DAA4237
:1024100000D11EE180252D042B436446382C5DDC61
:102420001F2C00DDD0E0202567462D1B4E461C00EA
:10243000FE40AC4034434E46AE403500FB406E1E7D
:10244000B541C91A2C434EE04A46141AA14592419F
:10245000524290465F1A3A004746D21B90461202FB
:1024600000D58BE04246224300D030E60023002511
:102470004DE74A465907D2080A43DB0844E742467B
:102480009E4B61081A401300012214400C43DA07E6
:102490005B089846144341E61A001F3EF2401600BE
:1024A000202903D04022511A8B401C43621E9441C4
:1024B00000233443984600261DE70C00203AD44000
:1024C00022006446202C04D040273F1BB94008431B
:1024D00080464446611E8C412243E9E54C46234335
:1024E0001C00631E9C41041BA0429B415B42CB1A13
:1024F00098465D461600E2E54E461E4300D1AEE02A
:10250000661E012C00D1FDE07B4FBC4200D107E1EB
:10251000B4469BE664462022121B0C009440070040
:102520009040A0466446421E90416246E7404446C1
:10253000D1403C4304435B18F3E66F4CA24200D108
:10254000D5E048445B184845894149425B18DC079F
:1025500040085B08984616000443CCE6002A00D0E9
:1025600082E00A00024340D1802300251B0313E7C9
:102570004B07C2081A435D46CB08C5E64A46841A93
:10258000A0429241CB1A52429B1A98465D469EE564
:102590004A465907D2080A43DB08F9E64A46141AA4
:1025A000A14592415B1A52429B1A9846012686E544
:1025B0004A465907D2080A43DB08A5E64C4623439E
:1025C0001C00631E9C415BE665461E00203DEE40FC
:1025D000202C05D040252D1BAB404C461C43A24669
:1025E0005446631E9C4134437DE74B07C2081A439F
:1025F0005D46CB08CCE60A00024300D136E74B0724
:10260000C2081A435D46CB0881E64A46841AA042B6
:102610009241CB1A52429B1A98465D4601264EE5DE
:102620004B07C2081A43CB08B2E64A46141AA14522
:1026300092415F1A5242BA1A904612026BD54A462C
:10264000841AA0429241CB1A52429B1A98465D4688
:1026500064E54B07C2081A435D46CB0898E64B0772
:10266000C2081A43CB084FE60A00024390D04A46FC
:102670005C07D20814438022DB081203134208D0FF
:10268000CE08164205D1C0084907084304005D463C
:102690003300610FE2004907D2080A4378E64B078E
:1026A000C2081A43CB0832E648445B1848459241B9
:1026B000984652429044434604001B0200D41AE656
:1026C00042460E4B01261A40904614E666461F000D
:1026D000203EF740202C05D04026361BB3404C4608
:1026E0001C43A2465446631E9C413C43C8E511006E
:1026F0000023002232E5C046FF070000FFFF7FFFF6
:10270000FE0700004A461418844292415B1898461E
:1027100052429044E9E54246224300D1A6E6EAE56A
:102720004B07C2081A43CB0832E6002201491300C6
:1027300014E5C046FF0700000A0030B5134C5300F3
:1027400009030500090B00205B0DD20FA34204DD35
:102750000F48834202DD0F4BD01830BD802040036C
:1027600001430D48C01A1F2808DD0C48C31AD94080
:102770000B005842002AF0D11800EEE7084CC54083
:10278000A446634499400B002B43F2E7FE0300008C
:102790001D040000FFFFFF7F33040000130400004E
:1027A000EDFBFFFF70B5002816D0C317C5185D40BC
:1027B000C40F280000F04CF8114A121A0A2816DC3F
:1027C00003002E0015339E400B23181AC5405305F5
:1027D0002D032D0B5B0D03E00024002300250026B4
:1027E0001B052B43E40723433000190070BD0B3851
:1027F000854053052D0300262D0B5B0DF0E7C046E9
:102800001E04000010B5041E10D000F021F80F4B7C
:102810001B1A0A2811DC0B222100121AD140153094
:102820000A035B058440120B5B0D01E000230022CC
:102830001B0513432000190010BD22000B388240F5
:102840005B0512030024120B5B0DF1E71E04000070
:102850001C2101231B04984201D3000C10391B0AD0
:10286000984201D3000A08391B09984201D3000994
:10287000043902A2105C40187047C04604030202EB
:1028800001010101000000000000000053656E73AB
:102890006F7220426F6F746C6F6164657220537445
:1028A0006172740A00000000666E6900666E692B32
:1028B000000000006E616E00666E692D0000000071
:1028C000420D0008580D0008580D0008580D00086A
:1028D000580D0008580D0008580D0008580D000844
:1028E000580D0008580D0008580D0008580D000834
:1028F000580D0008580D0008580D0008580D000824
:10290000580D0008580D0008580D0008580D000813
:10291000580D0008580D0008580D0008580D000803
:10292000580D0008580D0008580D0008580D0008F3
:10293000580D0008580D0008580D0008580D0008E3
:10294000580D0008740B0008580D0008580D0008B9
:10295000580D0008580D0008580D0008580D0008C3
:10296000580D0008580D0008580D0008580D0008B3
:10297000580D0008580D0008580D0008580D0008A3
:10298000580D0008580D0008580D0008180A0008D6
:10299000580D0008580D0008580D0008580D000883
:1029A000580D0008580D0008580D0008580D000873
:1029B000580D0008180A0008B40B0008180A00088F
:1029C000580D0008740B0008580D0008580D000839
:1029D000180A0008580D0008580D0008580D000886
:1029E000580D0008580D0008180A00080C0D0008C2
:1029F000580D0008580D0008280C0008580D000854
:102A0000180A0008580D0008580D0008180A000898
:102A10004A090008C4080008C4080008540900084E
:102A2000C4080008C4080008C4080008C408000856
:102A3000C4080008C4080008C408000840090008C9
:102A4000C408000836090008C4080008C4080008C3
:102A50001809000800000000000000000000F03F1E
:102A60000000000000002440000000000000594069
:102A70000000000000408F40000000000088C340BC
:102A800000000000006AF8400000000080842E4131
:102A900000000000D01263410000000084D797417D
:102AA0000000000065CDCD4152464D2053504920D5
:102AB000577269746500000054696D656F75742004
:102AC000257320253038580A000000005254432056
:102AD0004953520A00000000D01C0008FE1B0008E9
:102AE000FE1B0008FA1B0008041C0008041C000858
:102AF000F01E0008FA1B0008041C0008F01E000865
:102B0000041C0008FA1B00088E1E00088E1E000818
:082B10008E1E00085A1F000888
:102B18000004080868FF1F0068FF1F0068FF1F0007
:04000005080014C11A
:00000001FF
